:020000040800F2
:1000000000500020693F000895040008970400088C
:10001000990400089B0400089D04000800000000EB
:100020000000000000000000000000009F04000825
:10003000A104000800000000A3040008A5040008B3
:10004000B13F0008B13F0008B13F0008B13F0008D0
:10005000B13F0008B13F0008B13F0008B13F0008C0
:10006000B13F0008B13F0008B13F0008B13F0008B0
:10007000B13F0008B13F0008B13F0008B13F0008A0
:10008000B13F0008B13F0008B13F0008B13F000890
:10009000B13F0008B13F0008B13F0008B13F000880
:1000A000B13F0008B13F0008B13F0008B13F000870
:1000B000B13F0008B13F0008B13F0008B13F000860
:1000C000B13F0008B13F0008B13F0008B13F000850
:1000D000B13F0008B13F0008B13F0008B13F000840
:1000E000B13F0008B13F0008B13F00080000000028
:1000F0000000000000000000000000000000000000
:0C01000000000000000000005FF808F1A3
:10010C0010B5054C237833B9044B13B10448AFF345
:10011C0000800123237010BD340200200000000079
:10012C001862000808B5034B1BB103490348AFF331
:10013C00008008BD00000000380200201862000892
:10014C0010B514460A2392B2024805F07AF82046FC
:10015C0010BD00BF9802002010B51348134C05F0D9
:10016C00E9F9642003F068FF204600224FF4007187
:10017C0004F09EF800224FF48051204604F098F8C9
:10018C00642003F059FF204601224FF4007104F063
:10019C008FF8204601224FF4805104F089F8BDE815
:1001AC0010400A2003F048BF30620008000C0140E8
:1001BC0000B591B02422002107A805F09BFA142267
:1001CC00002101A805F096FA0223012106931023C1
:1001DC0006A8CDE90A1304F0EDFC014608B172B68D
:1001EC00FEE70F23CDE90300CDE90130059001A80E
:1001FC0004F0A2FE08B172B6FEE711B05DF804FB84
:10020C007FB503F0F5FEFFF7D3FF1022002102A803
:10021C0005F070FA3C4B4FF4D9719A693B4842F0A7
:10022C0004029A619A69002402F004020092009A76
:10023C009A69012642F008029A619B69002203F038
:10024C0008030193019B04F033F800224FF45E4144
:10025C002F4804F02DF802254FF4D9732B4802A92E
:10026C00CDE90236CDE9044503F04EFF4FF45E4371
:10027C00274802A9CDE90236CDE9044503F044FF35
:10028C004FF40053224802A9CDE90234049403F040
:10029C003BFF2048204A214BC0E90244C0E900231F
:1002AC004FF48043C0E90644C0E90434046204F00E
:1002BC0005FA034608B172B6FEE74FF4E1350C249B
:1002CC001748184AC0E90233C0E905430361C3610A
:1002DC00C0E9002504F086FF034608B172B6FEE7BC
:1002EC001148124AC0E90233C0E90025C0E90434C0
:1002FC00C0E9063304F076FF08B172B6FEE7FFF7EB
:10030C002BFF03F0FDFDFCE700100240000801404C
:10031C00000C0140E002002000540040A0860100C7
:10032C009802002000380140500200200044004098
:10033C000A4B82B09A6942F001029A619A6902F002
:10034C0001020092009ADA6942F08052DA61DB69AC
:10035C0003F080530193019B02B0704700100240E0
:10036C0010B5044686B01022002102A805F0C2F98F
:10037C002268114B9A421CD1104CC022A369104820
:10038C0043F00803A361A36902A903F008030093D7
:10039C00009B1223CDE902230323059303F0B4FE43
:1003AC00E36943F40013E361E36903F4001301937D
:1003BC00019B06B010BD00BF00540040001002406D
:1003CC00000C0140102210B5044688B00DEB020061
:1003DC00002105F08FF92368274A93422AD1274B35
:1003EC004FF400709A6904A942F480429A619A69A8
:1003FC0002F480420092009A9A6942F004029A61D7
:10040C009B6903F004030193019B0223CDE90403D0
:10041C0003231B48079303F077FE4FF480630022FD
:10042C0004930123164804A9CDE9052303F06CFEBF
:10043C0008B010BD134A9342FAD1104B0421DA696B
:10044C000F4842F40032DA61DA6902F400320292A7
:10045C00029A9A6942F004029A619B6903F00403C0
:10046C000393039B0223CDE90413032304A90793ED
:10047C0003F04AFE0823D2E7003801400010024086
:10048C000008014000440040FEE7FEE7FEE7FEE7FF
:10049C00FEE770477047704703F0BCBD70B50D4662
:1004AC0014460E46731B9C4201DC204670BDAFF314
:1004BC00008006F8010BF5E74FF0FF3070474FF462
:1004CC00005300204B60704701207047002070479C
:1004DC000B4A0346116810B509B90A491160106836
:1004EC0009490A4C0344091B8B4206D905F050F903
:1004FC000C2303604FF0FF3010BD1360FCE700BF0E
:10050C0034030020B005002000500020000400003F
:10051C007047000030B50D46642185B0CDE901214E
:10052C000446014600932A460123074804F06EF95D
:10053C0038B12A462146054804F094FF002005B046
:10054C0030BD0120FBE700BFE00200204262000842
:10055C0030B50D46642185B0CDE901210446014634
:10056C0000932A460123074804F0E0F938B12A46E3
:10057C002146054804F076FF002005B030BD01206F
:10058C00FBE700BFE00200205D6200087047704787
:10059C0008B503F04BFD034A13681060C31A98B2F8
:1005AC0008BD00BF3803002003F046BD07B5134655
:1005BC00002200920A46014603480078FFF7AAFF82
:1005CC0003B05DF804FB00BFCC0100201FB5002375
:1005DC0001460648009301220DF10F030078FFF746
:1005EC00B7FF9DF80F0005B05DF804FBCC010020AF
:1005FC001FB500238DF80F10014607480093012208
:10060C000DF10F030078FFF785FFB0FA80F0400979
:10061C0005B05DF804FB00BFCC01002070B50546A9
:10062C000C461646FFF7D2FF20EA04013440214461
:10063C002846BDE87040C9B2FFF7DABF10B50024F8
:10064C00104B22465C70104BFF215C700F4B3A2014
:10065C005C70FFF7E3FF224620213E20FFF7DEFF10
:10066C00FF220B4B83F8492093F85C2083F84F4012
:10067C0002F00F025C76DC7583F85C2083F85E4038
:10068C0010BD00BF9A0300209803002090030020A7
:10069C00A803002070B50C46417905460122164B83
:1006AC00164EA9B91A70202226201146FFF7B6FF64
:1006BC00315D2720FFF79CFF27206D79FFF786FF20
:1006CC002246294603460E48BDE8704004F0CABED7
:1006DC005A7020223E201146FFF7A0FF315D3F20CB
:1006EC00FFF786FF3F206D79FFF770FF2246034628
:1006FC0029460448E8E700BF90030020CD01002004
:10070C0078620008AB62000808B500220121532072
:10071C00FFF784FF00220E215320FFF77FFF0E22EC
:10072C0053201146FFF77AFF00220E215320FFF7CA
:10073C0075FFC02253201146FFF770FF4022C021E5
:10074C005320FFF76BFFBDE80840014804F0F2BEF0
:10075C00DE620008802208B511466420FFF75EFFB8
:10076C00002280216420FFF759FF0A20FFF71CFFAD
:10077C0000220F215320FFF751FFBDE8084001482C
:10078C0004F0D8BE0D63000810B5044614F8030B32
:10079C00FF2800D110BD14F8012C14F8021CFFF72F
:1007AC003DFFF3E74FF480310023F0B5C1642349DA
:1007BC00FF224B700B704FF48131C0E915134FF4CD
:1007CC007F01016140F20D511D4F1E4E1E4D1F4CFD
:1007DC007B7073706B7063703B7033702B70237015
:1007EC004375C382038380F83F200364A0F8443030
:1007FC0080F84920A0F84A3080F85330A0F85C30DB
:10080C0080F85E30C36080F86530A0F866300180F7
:10081C00837090F8AB3080F86B2003F0030380F802
:10082C00AB30B0F8AC3080F86C2003F0F403A0F8D7
:10083C00AC30232380F8AE30F0BD00BF9203002013
:10084C009A030020980300209603002094030020B4
:10085C002DE9F74305466FF06F09144B144F0193C4
:10086C0001AEB046002487F80090E0B2FFF7AEFE70
:10087C0018F8013B98420AD10134042CF5D104201C
:10088C00FFF7A4FE85F8AF0003B0BDE8F083942316
:10089C0000243B70E0B2FFF799FE16F8013B83424F
:1008AC00DED10134042CF5D1E9E700BF54490268CC
:1008BC00CC01002000F0030203210F20FFF7AEBE95
:1008CC0010B59A20FFF782FE40F6F434B4FBF0F436
:1008DC000E48214604F0C6FD142CD5BF1022002270
:1008EC00114610215020FFF799FE0120FFF7E2FF7F
:1008FC00642CD3BF2022002220211146B820FFF700
:10090C008DFEBDE810400020FFF7D4BF4D630008FA
:10091C0038B505465120FFF759FE04460A20FFF76B
:10092C0055FEAB7C04F00104A34214BF0020C0F3BD
:10093C00C01038BD01280CBF0B200A2008B5FFF7EA
:10094C0045FE00F00800003818BF012008BD00006B
:10095C00012810B503D1BDE81040FFF76FBE00248D
:10096C00104B22461C70104BFF211C700F4B222089
:10097C001C70FFF753FE224620212620FFF74EFE67
:10098C00FF220B4B83F83F2093F85C2083F8454003
:10099C0022F00F021C769C7583F85C2083F85D4076
:1009AC0010BD00BF9A030020980300209003002084
:1009BC00A803002038B5404D04465120FFF706FE31
:1009CC002B78942B03D100F00100A04272D1012CA2
:1009DC0040D13A4804F0AEFD2046FFF76BFF0022F1
:1009EC001021C520FFF71AFE2B78942B27D1B920A4
:1009FC00FFF7ECFD010620D500228021B920FFF77E
:100A0C000DFE1022C5201146FFF708FE0020FFF74F
:100A1C0051FF2B4804F08EFD3822FF213A20FFF7BE
:100A2C00FDFD04223A201146FFF7F8FD00220421B7
:100A3C003A20BDE83840FFF7F1BD8022DDE7C92040
:100A4C00FFF7C4FD020653BF80220022802111460D
:100A5C00C920D4E71B4804F06DFD0120FFF72AFFE5
:100A6C0000221021B520FFF7D9FDB920FFF7AEFD0C
:100A7C00030655BF8022002211468021B920FFF7C2
:100A8C00CDFD1022B5201146FFF7C8FD0020FFF761
:100A9C0011FF0D4804F04EFD3822FF212220FFF7F4
:100AAC00BDFD042222201146FFF7B8FD00220421CF
:100ABC002220BEE738BD00BFCC01002077630008C0
:100ACC00AB630008EB6300081F6400082DE9F041DC
:100ADC0005469C4804F02EFD012D9B4F9B4E6ED17C
:100AEC009220FFF773FD05469020FFF76FFD4DB187
:100AFC0044074FD54FF4C054B4FBF5F49448214649
:100B0C0004F0B0FC3B78942B07D1233C7D2C8CBF9C
:100B1C0000213F213820FFF76BFD3820FFF756FDF1
:100B2C0001468C4804F09EFC0120FFF7C3FEC12057
:100B3C00FFF74CFD0446C220FFF748FD2146024654
:100B4C00854804F08FFC0020FFF7B4FE757845BB98
:100B5C000120FFF7AFFEDC20FFF738FD04462846E6
:100B6C00FFF7A8FEA4B97D4804F0E4FC3822FF216D
:100B7C003A20FFF753FD04223A201146FFF74EFDB1
:100B8C00224604213A20FFF749FD754B83F8544067
:100B9C00BDE8F08100074CBF4FF440544FF4406463
:100BAC00AAE7704804F0C6FC6D4B93F85C2042F049
:100BBC00500283F85C20032283F85E20E8E7902043
:100BCC00FFF704FD05469120FFF700FD294602467C
:100BDC00654804F047FC9120FFF7F8FC054690208F
:100BEC00FFF7F4FC4DB1C1077ED54FF4C054B4FBF4
:100BFC00F5F45E48214604F035FC3B78942B2DD15E
:100C0C000A20FFF7E3FC10F040054FF0010072D012
:100C1C00FFF750FE2022B1201146FFF7FFFC012206
:100C2C000721B220FFF7FAFCB120FFF7CFFC0546F5
:100C3C00B220FFF7CBFC294602464D4804F012FCCB
:100C4C000020FFF737FE3B78942B07D1233C7D2CFB
:100C5C008CBF00213F212020FFF7CAFC2020FFF78A
:100C6C00B5FC0146434804F0FDFB0A20FFF7AEFC3F
:100C7C0043060FD50120FFF71DFE00228021B8206E
:100C8C00FFF7CCFC00220721B620FFF7C7FC0020A1
:100C9C00FFF710FE3678324C002E46D10120FFF7BC
:100CAC0009FED420FFF792FC05463046FFF702FE02
:100CBC009DB9314804F03EFC3822FF212220FFF779
:100CCC00ADFC042222201146FFF7A8FC2A46042181
:100CDC002220FFF7A3FC84F8535094F85C3023F0E7
:100CEC00070384F85C3053E782074CBF4FF4405441
:100CFC004FF440647BE7FFF7DDFD2A462021B1204D
:100D0C00FFF78CFC04220721B220FFF787FCB120EF
:100D1C00FFF75CFC8046B220FFF758FC41460246C8
:100D2C00134804F09FFB28468BE7144804F002FCA0
:100D3C0094F85C3043F0050384F85C30032384F8AA
:100D4C005D3025E75F640008CC0100209A03002089
:100D5C006F640008876400089B640008BD64000889
:100D6C00A8030020EE640008236500084365000812
:100D7C005B6500087D65000891650008C265000888
:100D8C0038B50546904804F0D5FB8F4804F0D2FBEB
:100D9C008D4804F0CFFB8C4804F0CCFB8A4804F05F
:100DAC00C9FB894804F0C6FB012D884C64D16478DA
:100DBC0004F03F043F2C40F005810022844B3E2080
:100DCC005D70844B5A70FFF701FC0146824804F0B9
:100DDC0049FB20223E201146FFF720FC3E20FFF766
:100DEC00F5FB01467C4804F03DFB7C4B20465978D2
:100DFC00022994BF032101F07F01FFF7F9FB784B27
:100E0C0040205978022994BF032101F07F01FFF79C
:100E1C00EFFB744B41205978022994BF032101F058
:100E2C007F01FFF7E5FB704A704892F85C3023F0C5
:100E3C00700382F85C3004F07DFB3F20FFF7C6FBAB
:100E4C0001466B4804F00EFB4020FFF7BFFB014648
:100E5C00684804F007FB4120FFF7B8FB01466648E1
:100E6C0004F000FB00213A20FFF7C2FBC021BDE8D3
:100E7C003840D020FFF7BCBB0A20FFF7A7FB10F0CF
:100E8C0040005BD0247804F00304032C40F09A80DB
:100E9C0001224F4B26201A7000224E4B4F4D1A70D8
:100EAC00FFF794FB0146554804F0DCFA202226207B
:100EBC001146FFF7B3FB2620FFF788FB01464F488E
:100ECC0004F0D0FA2978022929D821462720FFF7E7
:100EDC008FFB21462820FFF78BFB21462920FFF7AB
:100EEC0087FB474804F026FB2720FFF76FFB0146E2
:100EFC00444804F0B7FA2820FFF768FB0146424843
:100F0C0004F0B0FA2920FFF761FB01463F4804F0DA
:100F1C00A9FA00212220FFF76BFB3021A7E701F093
:100F2C007F012720FFF764FB2978282001F07F013F
:100F3C00FFF75EFB297801F07F01CFE7237803F000
:100F4C003F033F2B3ED10122214B1A70214B1870CD
:100F5C002620FFF73BFB0146284804F083FA2022A9
:100F6C0026201146FFF75AFB2620FFF72FFB0146E0
:100F7C00224804F077FA194B27201978022994BFDC
:100F8C00032101F07F01FFF733FB154B2820197863
:100F9C00022994BF032101F07F01FFF729FB114BBC
:100FAC0029201978022994BF032101F07F01FFF752
:100FBC001FFB0D4A164892F85C3023F0070382F8A9
:100FCC005C308FE738BD00BFF76500089803002040
:100FDC009A030020900300203F660008960300202F
:100FEC009403002092030020A80300205C660008F4
:100FFC008F660008C7660008FF66000837670008A0
:10100C00546700088B670008C7670008036800086E
:10101C003F68000870B5037AC27904469A4238BF1B
:10102C001346427A2CBF01250025934228BF022586
:10103C001F4E38BF1A462946735D1E4804F012FA3B
:10104C006379F3B92720FFF7C1FA020604D460795B
:10105C00BDE87040FFF794BE202226201146FFF712
:10106C00DDFA715D2720FFF7C3FA27206479FFF7BB
:10107C00ADFA2A46214603460F48BDE8704004F0FD
:10108C00F1B93F20FFF7A2FA0306E0D520223E205B
:10109C001146FFF7C3FA715D3F20FFF7A9FA3F2015
:1010AC006479FFF793FA2A46034621460348E4E79E
:1010BC00CD01002072680008B8680008E8680008D4
:1010CC0010B5044681780B4804F0CCF923783C2BFE
:1010DC0002D8A378E37110BD462B02D8A3782372F3
:1010EC00F9E7502BF7D8A37820466372BDE810407F
:1010FC00FFF790BF1869000810B5A820FFF766FA33
:10110C0004465120FFF762FA00F0010314F00100CD
:10111C0000D01BB114F0100018BF184610BD08B554
:10112C0028B90A20FFF752FA00F0010008BD0B2085
:10113C00F8E738B50A20FFF749FA05460B20FFF708
:10114C0045FA00F002045120FFF740FAAB0700F01B
:10115C00010000D520B1002C18BF0446204638BD34
:10116C000124FBE710B504460220FFF7A3FB152072
:10117C00FFF72CFAC0F3411084F85F001620FFF73C
:10118C0025FA801184F860001720FFF71FFAC0F3CE
:10119C00021084F861001720FFF718FAC0F38100E1
:1011AC0084F862001820FFF711FA00F07F0084F831
:1011BC0064001920FFF70AFA801184F863000020FC
:1011CC00FFF778FB94F862303BB994F86430012B4C
:1011DC008CBF0123022384F8623010BD38B504465D
:1011EC000220FFF767FB1520FFF7F0F905460020FA
:1011FC00FFF760FB237DC5F3411023F003030228A6
:10120C0084F86C50237523D0032830D0012827D0C4
:10121C001A4804F027F90220FFF74CFB1720FFF7C0
:10122C00D5F9237DC0F3810001280CBF43F02003C6
:10123C0003F0DF0323750020FFF73CFB7120FFF761
:10124C00C5F9BDE8384000F0FB017120FFF7D0B9BB
:10125C000B4804F007F9237D43F002032375DAE70A
:10126C00084804F0FFF8237D43F00103F6E7064835
:10127C0004F0F8F8237D43F00303EFE76B690008F3
:10128C0045690008586900087D69000838B50446AE
:10129C000220FFF70FFB1620FFF798F905460020F8
:1012AC00FFF708FB05F0C000402804D1237D23F094
:1012BC001003237538BD8028FCD1237D43F0100327
:1012CC00F7E700002DE9F0410746BA4804F032F97F
:1012DC000120FFF7EFFA10217020FFF789F9802128
:1012EC007120FFF785F900217220FFF781F90020AA
:1012FC00FFF7E0FAFC7C04F00304012C6ED0022C06
:10130C0004D0002C00F08B8000247DE0AA4804F06F
:10131C0011F93B7D03F00303022B53D0032B2AD08E
:10132C00012B51D0A54804F005F9002400227821A6
:10133C006720FFF773F900216820FFF759F9A048DF
:10134C0004F0F8F83B7DDB0640F1DB809D4804F0AF
:10135C0089F83B7D9E0640F1CC809B4804F0EAF86E
:10136C000120FFF7A7FA994A15217020FFF71EF903
:10137C00002602258AE0964804F0DCF8002480263A
:10138C003D7D15F0030540F00F8197F862000128B0
:10139C0040F0F380FB7C13F0200877D1FFF78AFA3A
:1013AC0015218C4A7020FFF701F94046FFF782FAAD
:1013BC00782267201146FFF731F9ED216820FFF7FD
:1013CC0017F9D5E78448D7E7844804F0B3F897F9C0
:1013DC001330FC7C002B15DA052415E03B7D03F063
:1013EC000303012B12D0022B08D0002B8CD1734895
:1013FC0004F0A0F8FC7CC4F3801497E7764804F062
:10140C0099F8FC7CC4F380140026B9E7734804F007
:10141C0091F897F91330002BBFF676AFDCE77048E4
:10142C0004F088F83B7D03F00303012B57D0022B0B
:10143C0004D0002B7FF468AF60489DE7664804F049
:10144C0079F8684804F00EF8002278216720FFF73D
:10145C00E5F800216820FFF7CBF8594804F06AF84A
:10146C003B7DD80673D5574803F0FCFFFB7C9906EF
:10147C0065D55D4804F05EF80120FFF71BFA5B4A66
:10148C0015217020FFF792F8002603250020FFF7A6
:10149C0011FA2A4603216520FFF7C0F822460721DE
:1014AC006720FFF7BBF845B978212A466720FFF77C
:1014BC00B5F829466820FFF79BF832468021512069
:1014CC00FFF7ACF897F8AF30C02B71D0002E6DD071
:1014DC000022BDE8F04103215020FFF79FB83F48A0
:1014EC0004F028F897F91330FC7C002B24DA05243F
:1014FC00A7E73F4804F01EF80120FFF7DBF93D4A4F
:10150C0032E73D4803F0AEFF3B7D01209D060AD536
:10151C00FFF7D0F970201521384AFFF747F82A4811
:10152C0004F008F824E7FFF7C5F970201521344AB8
:10153C00FFF73CF82E48F3E7C4F3801481E73148F9
:10154C0003F0F8FF0120FFF7B5F92F4A98E72A4876
:10155C0003F088FFFB7C9A0607D5234803F0EAFFCB
:10156C000120FFF7A7F9294A8AE7264803F0E2FF92
:10157C000120FFF79FF9264A82E7022886D1FB7CDF
:10158C009B0683D50120FFF795F91521214A702080
:10159C00FFF70CF82846FFF78DF9782140226720D9
:1015AC00FFF73CF8102109E700256FE7022290E7CE
:1015BC00BDE8F08190690008B1690008066A00086E
:1015CC00306A00084B6A0008536A0008FB81000867
:1015DC00C769000868810008DC690008F169000827
:1015EC001B6A00086A6A0008546A0008A781000890
:1015FC005B6A0008E6810008626A00082582000820
:10160C00108200085C6A000892810008D1810008F1
:10161C00BC8100087D81000838B504460D46712058
:10162C00FEF7D4FF227D012D02F0DC0200F0FC035A
:10163C00227513D0022D0BD04DB943F0040171204B
:10164C00FEF7D6FFFF2384F86B3084F86C3038BD7E
:10165C0043F0060142F002022275F0E743F0050167
:10166C0042F00102F8E7000038B504469A20FEF774
:10167C00ADFF05460146064803F0F4FE237D332DED
:10168C0003F0EF0398BF43F01003237538BD00BF80
:10169C00796A000870B5064690F8AF509A20FEF7AC
:1016AC0095FF40F6F431B1FBF0F1F47C337D24016D
:1016BC0004F0300403F00303F92944EA030449DC81
:1016CC00434803F0CFFE2146424803F0CBFE5020A6
:1016DC00FEF77CFF0146404803F0C4FE232C29D8BA
:1016EC000F2C14D8012C1DD021D8C02D04D00022D1
:1016FC000C215020FEF792FF802264201146FEF749
:10170C008DFF002280216420FEF788FF12E0012368
:10171C00103C324AE4B2A3401A40002AE5D1304AC8
:10172C001A403AB1C02DE7D000221C21E1E7023C5F
:10173C00012CDAD9C02D04D1062207215620FEF740
:10174C006DFF5020FEF742FFBDE870400146224875
:10175C0003F088BE234803F085FE21461D4803F0A4
:10176C0081FE5020FEF732FF01461B4803F07AFE43
:10177C00232C29D80F2C14D8012C1DD021D8C02DE6
:10178C0004D008220C215020FEF748FF8022642050
:10179C001146FEF743FF002280216420FEF73EFF36
:1017AC0012E00123103C0D4AE4B2A3401A40002A77
:1017BC00E5D10B4A1A403AB1C02DE7D008221C21C2
:1017CC00E1E7023C012CDAD9C02DBAD10422B4E7EE
:1017DC00A96A0008E36A00080E6B00080A000D00F5
:1017EC00050002003A6B0008024618B9102150207F
:1017FC00FEF714BFFFF764B870B506464A4803F00D
:10180C0099FE4A4B96F8552053F8220003F02AFE15
:10181C00474803F08FFE5120FEF7D8FE00F09B05E1
:10182C006520FEF7D3FEF37C00F00F0403F00303F6
:10183C00012B34D0022B35D096F85630012B07D122
:10184C0096F85730023B012B02D93046FFF722FFA6
:10185C0096F8AF30C02B0AD196F85630012B24D114
:10186C0096F85730023B012B1FD8FFF729F896F852
:10187C005730023B012B09D8802264201146FEF719
:10188C00CDFE002280216420FEF7C8FE96F856306B
:10189C00013B032B0FD8DFE803F00C191E1C44F09E
:1018AC001004C9E744F02004C6E70020FFF79CFFB2
:1018BC00DDE745F0400596F85730022B0ED0032B90
:1018CC002ED0012B0CD144F0400409E045F020054A
:1018DC00F1E745F0400544F0C004ECE745F00405A1
:1018EC002946144803F0BEFD2146134803F0BAFD07
:1018FC0029465120FEF77CFE21466520FEF778FE36
:10190C000120FEF7D7FF00218D20FEF771FE00218C
:10191C008E20FEF76DFEBDE870400020FEF7CABFBA
:10192C0045F00405CFE700BF756B0008540100209B
:10193C00916B0008966B0008A26B0008C27C02F049
:10194C000302012A06D0022A06D03AB930216520BA
:10195C00FEF764BE1022F9E72022F7E7704700007B
:10196C0010B50446084803F0E5FD2046FFF736FCA9
:10197C002046FFF78BFC2046FFF7A4FC2046BDE871
:10198C001040FFF7DBBF00BFAE6B000810B504467C
:10199C00084803F0CFFD00212046FFF73DFE20460E
:1019AC00FFF762FE2046FFF78DFC2046BDE8104095
:1019BC00FFF7C4BFC66B000810B50446FFF7B9FBB0
:1019CC0094F8AB3060F3451384F8AB309B0620469B
:1019DC0013D4FFF7DBFF94F8AB30992023F080038E
:1019EC0084F8AB30FEF7F2FD0011052884F869008D
:1019FC0009D0062811D0002206E0FFF7B3FB2046E1
:101A0C00FFF7AEFFE7E704220C216520FEF706FE88
:101A1C002046BDE81040FFF7EFBE0822F4E70000B7
:101A2C0038B505460C460A460146254803F01AFD12
:101A3C00C5BB0A200CBBFEF7C9FD10F001050CD08C
:101A4C00204803F077FD0120FEF734FF012203212B
:101A5C00B020FEF7E3FD20460BE01B4803F06AFDC7
:101A6C000120FEF727FF2A460321B020FEF7D6FD02
:101A7C002846BDE83840FEF71DBFFEF7A7FD10F065
:101A8C00010407D0114803F055FD0120FEF712FFA9
:101A9C000322E9E70E4803F04DFD0120FEF70AFF93
:101AAC002246D4E70B4D2CB10B4803F043FD002329
:101ABC002B6038BD094803F03DFD0123F8E700BF5A
:101ACC00DA6B0008F36B0008096C00081E6C000848
:101ADC00346C00089C030020576C0008686C0008EC
:101AEC0010B50446184803F025FDBCB92146204624
:101AFC00FFF796FF0F2211201146FEF78FFD4FF4D2
:101B0C009670FEF751FD0F2122461120FEF786FD3F
:101B1C0001212046BDE81040FFF782BF00210120C3
:101B2C00FFF77EFF0F2218201146FEF777FD4FF4CA
:101B3C009670FEF739FD0F2100221820FEF76EFD7E
:101B4C0001210846E6E700BF796C0008022210B5B7
:101B5C0011461020FEF762FD002202211020FEF734
:101B6C005DFD7B20FEF732FD044601467B20FEF72F
:101B7C003FFD21467B20FEF73BFD21467B20FEF7F7
:101B8C0037FD2146BDE810407B20FEF731BD012812
:101B9C0008B508D1FFF7DAFF0022BDE808401F2185
:101BAC005220FEF73BBD1F22F7E720227D20114675
:101BBC00FEF734BD10227D201146FEF72FBD00220A
:101BCC0010217D20FEF72ABD38B50446AE20FEF765
:101BDC00FDFC00F00F00A070AA20FEF7F7FC20F02F
:101BEC000F03237000F00F0305466370AA20FEF765
:101BFC00EDFC637800F00F00034315F0600F637089
:101C0C0008D1AB20FEF7E2FCC3075EBF237843F09C
:101C1C000103237038BD10B5437804468B4217D0AE
:101C2C004170042914D8DFE801F00308130D1400E7
:101C3C00022210201146FEF7F1FCBDE810400020F6
:101C4C00FFF7A5BFFFF7B6FFFFF7B9FFC923238244
:101C5C0010BDFFF77BFFBDE8104000221F21522072
:101C6C00FEF7DCBC038A37B5642B38BF642382785B
:101C7C00643B9BB2012A0446038273D04278032A48
:101C8C0052D0042A57D0012A6CD10330FFF79CFFA5
:101C9C0094F90330002B65DA102270215420FEF7E2
:101CAC00BDFCE278530614D500220C217720FEF7F8
:101CBC00B5FC30227A201146FEF7B0FC0022302110
:101CCC007E20FEF7ABFC002270215420FEF7A6FC10
:101CDC0013E012F020054FF00C014FF008024FF00A
:101CEC00770011D0FEF79AFCB02110227A20FEF773
:101CFC0095FC70217E20FEF77BFCFFF756FFFFF76B
:101D0C0025FF0321204611E0FEF788FC102230212C
:101D1C007A20FEF783FC2A4630217E20FEF77EFCDB
:101D2C002A4610217D20D1E7E3B9042103B0BDE898
:101D3C003040FFF770BFABB9972303826846FFF7BB
:101D4C0043FFE2789DF800309A4209D122799DF840
:101D5C0001309A4204D162799DF802309A4201D046
:101D6C000121CFE703B030BD10B50020FEF7A2FD76
:101D7C005120FEF72BFC012210F00104114610D06B
:101D8C001820FEF74BFC0120FEF70EFC002201216F
:101D9C001820FEF743FCFEF751FC0022084B5A7545
:101DAC0010BD1120FEF73AFC0120FEF7FDFB224688
:101DBC0001211120FEF732FC2046FEF7C9FDECE7AD
:101DCC00A803002008B598B1C02253201146FEF795
:101DDC0025FC202252201146FEF720FC00220E2169
:101DEC005320FEF71BFCBDE80840034803F0A2BBE0
:101DFC00BDE80840FEF788BC9D6C000838B50C4661
:101E0C0099B1C02253201146FEF708FC2022522023
:101E1C001146FEF703FC00220E215320FEF7FEFBB9
:101E2C002048BDE8384003F085BB05780A2D37D132
:101E3C000A4653200121FEF7F1FB22460E215320C6
:101E4C00FEF7ECFBFFF758F9012806D1BDE8384046
:101E5C00202252201146FEF7E1BB8022642011465D
:101E6C00FEF7DCFB224680216420FEF7D7FB2846D8
:101E7C00FEF79AFB0E2253201146FEF7CFFB2246AB
:101E8C000E215320FEF7CAFBC02253201146FEF749
:101E9C00C5FB4022C0215320FEF7C0FB0248C0E71F
:101EAC0038BD00BFD56C00080D6D000808B518B121
:101EBC00BDE80840FEF74EBC0F2253201146FEF73A
:101ECC00ADFBBDE80840014803F034BB476D00088A
:101EDC0010B5837D5A1C152B82750DD990F84530A1
:101EEC00012B09D000248475044803F023FB204601
:101EFC00BDE81040FFF7F4BD10BD00BF886D0008B1
:101F0C0008B5C37D5A1C152BC2750DD990F84F30EE
:101F1C00012B09D00023C375044803F00BFBBDE86B
:101F2C0008400120FFF7DCBD08BD00BFAC6D000808
:101F3C0010B5037E5A1C152B027614D990F8453037
:101F4C00012B10D000240476074803F0F3FA20206C
:101F5C00FEF73CFB28B93F21BDE810402020FEF7DE
:101F6C0047BB2146F8E710BDD06D000810B5437E85
:101F7C005A1C152B427614D990F84F30012B10D0E7
:101F8C0000244476074803F0D5FA3820FEF71EFBF0
:101F9C0028B93F21BDE810403820FEF729BB214667
:101FAC00F8E710BDF76D000838B5044651200D4612
:101FBC00FEF70CFB00F00100A8422DD1FFF7B9F899
:101FCC00054688B123780A2B03D101212046FFF75F
:101FDC0022FE94F8AB30114843F0200384F8AB3068
:101FEC00BDE8384003F0A6BA01462046FFF713FEC1
:101FFC0094F8AB3065F3C71384F8AB3023780A2B15
:10200C0002D12046FFF7C2FC94F8AB30044823F011
:10201C00200384F8AB30E3E738BD00BF1E6E000828
:10202C003D6E000803681BB16422B3FBF2F303603E
:10203C004BF637630068984245F61C738BBFA0F5CE
:10204C003E40C0F53E403838383098428CBF0020B6
:10205C000120704738B500210F20FEF7C9FA052181
:10206C007320FEF7C5FA01210F20FEF7C1FA1221E9
:10207C005720FEF7BDFA02215720FEF7B9FA0121CD
:10208C005620FEF7B5FA00215020FEF7B1FA0021D8
:10209C005120FEF7ADFA04215320FEF7A9FA612076
:1020AC00FEF794FA05466120FEF790FA044661208B
:1020BC00FEF78CFA022D28D1022C2DD102282BD11F
:1020CC0001215020FEF794FA60215120FEF790FA7E
:1020DC0004215320FEF78CFA6120FEF777FA0446B0
:1020EC006120FEF773FA05466120FEF76FFA45EAA8
:1020FC00002544EA052400210F20FEF779FA00217F
:10210C007320FEF775FA204638BD2CB90540EDB2A8
:10211C00FF2DF0D10321D4E70024ECE737B5FFF70E
:10212C0099FF014601901E4803F09CF901A8FFF7A6
:10213C0079FF80BB4BF638611A48019103F092F994
:10214C004FF47A74019D1848B5FBF4F4214603F062
:10215C0089F942F21073B5FBF3F3DBB2581CB4FBF4
:10216C00F3F1B4FBF0F20A39C2F10A02914288BFD2
:10217C00C3B2B4FBF3F10D4803F074F94FF47A6178
:10218C00B5FBF1F10A4B0B48AA081A6003B0BDE885
:10219C00304003F067B9084803F0CCF9D0E700BF32
:1021AC005B6E0008706E0008A66E0008B66E000824
:1021BC00A4030020C46E00088D6E000810B5044600
:1021CC005120FEF703FA00F00100031B584258415E
:1021DC0010BD000038B50D46FFF7F0FFD8B10E4C1E
:1021EC0055B10120FFF7EEFD012384F867300B4851
:1021FC00BDE8384003F09EB923780A2B08D194F837
:10220C006730012B04D1FEF77FFA054803F092F9F1
:10221C00002384F8673038BDA8030020D26E000874
:10222C00036F000810B5044601700A464179104846
:10223C0003F018F92378462B17D008D81E2B0DD095
:10224C003C2B10D000216079FFF7C4FF01E0502B2C
:10225C00F8D100232371A370E37010BD0021204638
:10226C00FEF718FAF5E70121F9E70221F7E700BFBD
:10227C00336F00082DE9F74F04465120FEF7A6F9FD
:10228C00637900F0010B012B40F092800B20FEF7DC
:10229C009DF98246B720FEF799F90646B820FEF75D
:1022AC0095F900F0E009B920FEF790F90546BA203F
:1022BC00FEF78CF90746BB20FEF788F980463146BD
:1022CC00B720FEF795F94946B820FEF791F9294653
:1022DC00B920FEF78DF93946BA20FEF789F9414647
:1022EC00BB20FEF785F99520FEF770F96179594509
:1022FC0007D11AF0800F01BFFF26E37863F07F034C
:10230C00E3700090334622787F4803F0ABF8FF2F40
:10231C007DD0FF2D7BD000232371AEB149467B4885
:10232C0003F0A0F829467A4803F09CF8394679481E
:10233C0003F098F84146784803F094F8A378E678CF
:10234C0001330136A370F6B27206E67005D4FF2F86
:10235C0000F0D780FF2D00F0D48016F00C0F00F0A9
:10236C00D0800A265120A670FEF730F9637900F070
:10237C000105012B0CBF0B203046FEF727F96379C2
:10238C00AB4207D1030603D594F90330002B01DAD5
:10239C008A23A3702046FEF793FE23781D2B00F2B0
:1023AC00A4801E21204603B0BDE8F04FFFF73ABFD2
:1023BC000A20FEF70BF98246B220FEF707F9064613
:1023CC00B320FEF703F900F0E009B420FEF7FEF8A5
:1023DC000546B520FEF7FAF80746B620FEF7F6F8E4
:1023EC0080463146B220FEF703F94946B320FEF78A
:1023FC00FFF82946B420FEF7FBF83946B520FEF766
:10240C00F7F84146B620FEF7F3F893206CE72379F2
:10241C000133DBB2032B23717FF67FAF23781E2BA6
:10242C0034D93E4803F086F86379012B39D1B920B1
:10243C00FEF7CCF805460146B920FEF7D9F8FF2D7A
:10244C000FD13820FEF7C2F848BB3F213820FEF7E9
:10245C00CFF83820FEF7BAF80146314803F002F8FD
:10246C00FF252E4803F066F80C2294F805A01146BF
:10247C00BAF1000F2FD11120FEF7D0F852460C21E3
:10248C001120FEF7CBF8274803F054F800232371F2
:10249C00E37823F00F0343F04003E3703DE70021A2
:1024AC00D4E7B420FEF792F805460146B420FEF7B7
:1024BC009FF8FF2DD5D12020FEF788F848B93F2191
:1024CC002020FEF795F82020FEF780F801461648EC
:1024DC00C4E70021F4E71820FEF7A0F800220C2135
:1024EC001820FEF79BF81148CEE73B2B01D83C2176
:1024FC0058E7452B01D8462154E7502B01D85021E1
:10250C0050E703B0BDE8F08F566F000877700008F5
:10251C008770000896700008A4700008876F000888
:10252C00D16F0008FB6F0008E66F000839700008D7
:10253C0010B5044681780E4802F094FF2046FEF751
:10254C00BFFDA378052B11D921781E2903D1204674
:10255C00FFF768FE05E03C29F9D04629F7D0502951
:10256C00F5D000232371A370E37010BD9B21EEE71F
:10257C00B17000082DE9FF4104465120FEF726F802
:10258C00637900F00108434540F0B980B8F1000FC1
:10259C0062D00B20FEF71AF80646B720FEF716F8A5
:1025AC0001460546B720FEF723F89520FEF70EF8F6
:1025BC0006F08903092B08BFE378074604BF0133F3
:1025CC00E370CDE90160E3784E48009322782B4606
:1025DC00617902F047FF3F2D20D9A3780121013307
:1025EC00A3706079FFF7F6FDA378022B16D90023B0
:1025FC004548A37002F036FF6379012B3AD138209D
:10260C00FDF7E4FF18B93F213820FDF7F1FF382022
:10261C00FDF7DCFF01463D4802F024FF2278132A27
:10262C006DD1CDE90167E3783648009361792B468B
:10263C0005F0C00502F016FFC02D2AD141463448E2
:10264C0002F010FF4046FFF74BFA9B21204604B0E6
:10265C00BDE8F041FFF7E6BD0A20FDF7B7FF0646DF
:10266C00B220FDF7B3FF01460546B220FDF7C0FFCF
:10267C0093209BE72020FDF7A9FF0028CED13F2116
:10268C002020FDF7B5FF2020FDF7A0FF01462148D3
:10269C00C2E7E378C3B96379012B1F4B16D15B7882
:1026AC00002BD2D11D4B5B7803F07F030E2B0BD983
:1026BC001B4B5B7803F07F030E2B05D9194B5B7812
:1026CC0003F07F030E2BC0D81421BFE71B78002B1F
:1026DC00BBD10A20FDF77AFF10F0400F0F4B01D051
:1026EC001B78EDE71B7803F07F030E2BECD90C4B1A
:1026FC001B7803F07F030E2BE6D90A4BF0E704B0EE
:10270C00BDE8F081D370000821710008D16F00087A
:10271C004E710008E66F000890030020960300201D
:10272C00940300209203002010B504465120FDF7BD
:10273C004DFF2378502B1AD009D83C2B03D0462BB5
:10274C0001D01E2B07D12046FFF7F2FE03E0512BE0
:10275C0013D09C2B11D02378FF2B21D0132B19D8FD
:10276C002046FFF707FF23780133237010BD204666
:10277C00FFF7DEFE9B232370EDE70023A371FF23FD
:10278C002370637900F00100834202BF0122064BE3
:10279C00DA81E0E74F2BE6D82046FFF76BFDE2E746
:1027AC000023A371E2E700BFA803002010B5437912
:1027BC000446CBB12378FF2B1BD15120FDF706FF2C
:1027CC00637900F0010083420CBF002115212046E3
:1027DC00FFF728FD01232046A371FFF7A5FF0A236D
:1027EC00E3712372637204E00A20FDF7EFFE4306E7
:1027FC00E0D510BD012838B5614C56D1FEF75AF81A
:10280C00D820FDF7E3FE05465E4802F093FE29460C
:10281C005D4802F027FEDC20FDF7D8FE01465B4840
:10282C0002F020FE05F00303032B0CD1DD20FDF795
:10283C00CDFE574B014658706378564843F003035E
:10284C00637002F00FFE05F00C030C2B0CD1DE2094
:10285C00FDF7BCFE504B0146587063784F4843F06F
:10286C000C03637002F0FEFD05F03005302D0CD129
:10287C00DF20FDF7ABFE4A4B0146587063784948A0
:10288C0043F03003637002F0EDFD0020FEF712F808
:10289C00637803F03F033F2B71D10120FEF770FAF0
:1028AC004148BDE83840FFF781BF0120FEF702F830
:1028BC00D020FDF78BFE002305463C48237002F028
:1028CC0039FE29463A4802F0CDFDD420FDF77EFEB4
:1028DC000146384802F0C6FD2178374802F0C2FDA7
:1028EC0005F00303032B0CD1D520FDF76FFE284B0D
:1028FC00014618702378314843F00303237002F02B
:10290C00B1FD05F00C030C2B0CD1D620FDF75EFEAF
:10291C00214B014618702378294843F00C0323708F
:10292C0002F0A0FD05F03005302D0CD1D720FDF7BD
:10293C004DFE1B4B014618702378224843F03003A0
:10294C00237002F08FFD0020FDF7B4FF0A20FDF785
:10295C003DFE10F04005237808D003F00303032B51
:10296C000DD10020FEF70CFA17489AE703F03F034D
:10297C003F2B04D1154802F0DDFD2846F2E738BDA7
:10298C009803002087710008BE710008EA710008E6
:10299C009603002016720008940300205872000859
:1029AC00920300209A720008F1030020DC720008E8
:1029BC0013730008437300086F730008A6730008B4
:1029CC00E87300082A740008E70300206C74000800
:1029DC00012970B504460D4623D80A2606FB0103CF
:1029EC0093F84530EBB90846FEF799FBC8B194F85B
:1029FC005C30002D45D19B071ED5574802F09AFD3F
:102A0C0094F85C3013F001010CD12220FDF7F0FD9D
:102A1C0094F85C3043F0030384F85C30032384F8AF
:102A2C005D3070BD9D07FCD543F0010384F85C302C
:102A3C0094F85D300133F2E73046FDF7C7FD474DA2
:102A4C0010F0400F2B7818D003F00303032B02D0A7
:102A5C000020FFF7CFFE94F853200F2A4FD9002106
:102A6C003F4802F0FFFC00212220FDF7C1FD04F1DC
:102A7C003F00BDE87040FFF799BE03F03F033F2BCA
:102A8C00E5E798061ED5344802F054FD94F85C3006
:102A9C0013F010010CD13A20FDF7AAFD94F85C302C
:102AAC0043F0300384F85C30032384F85E30B8E7DD
:102ABC009906B6D543F0100384F85C3094F85E3078
:102ACC000133F2E7254D6B7803F03F033F2B02D027
:102ADC000120FFF78FFE94F854200F2A2DD90121E5
:102AEC00204802F0BFFC00213A20FDF781FD04F1E3
:102AFC004900FFF75BFE012194F8542014E00A20F2
:102B0C00FDF764FD42062B7813D503F00303032B6A
:102B1C0007D00020FDF74EFF94F85330013384F8B2
:102B2C005330002194F853200F48BDE8704002F058
:102B3C0099BC03F03F033F2BEAE76B7803F03F03AC
:102B4C003F2BD8D00120FDF735FF94F854300133DA
:102B5C0084F85430CFE700BFA97400089803002014
:102B6C00D27400084E7500082E75000838B590F820
:102B7C005C300446002B41D013F0010516D090F8C0
:102B8C005D2022B923F0010384F85C3002E0013AA5
:102B9C0080F85D2094F85C30D90630D594F85E202E
:102BAC004ABB23F0100384F85C3027E013F00200DA
:102BBC000FD02846FDF7BEFE0028EBD0224802F0CD
:102BCC00B9FC2846FDF782FF94F85C3023F0020331
:102BDC00DAE75D07DED5FDF7ADFE0028DAD01B483D
:102BEC0002F0A8FC04F13F00FFF7E0FD94F85C3024
:102BFC0023F00403C8E7013A84F85E2038BD9A0636
:102C0C000FD50120FDF796FE0028F7D0104802F0F2
:102C1C0091FC0120FDF75AFF94F85C3023F020035F
:102C2C00C1E75B06EAD50120FDF784FE0028E5D05C
:102C3C00084802F07FFC04F14900FFF7B7FD94F857
:102C4C005C3023F04003AEE7AA750008D675000887
:102C5C0007760008337600082DE9F04F9A2087B0EC
:102C6C00FDF7B4FC674B1C686423B4FBF3F4C4EBB2
:102C7C000424B4FBF0F40A23B4FBF3F351200293C5
:102C8C00FDF7A4FC9020FDF7A1FCFEF752FA029B85
:102C9C0070B19920FDF79AFC00F0F0006028029BBF
:102CAC0000F0AB80702800F0AA80502800F0A080C3
:102CBC001C4699200593FDF789FC07469D20FDF7DE
:102CCC0085FC82469C20FDF781FC4FEA0A2A0AF417
:102CDC007C5A82449F20FDF779FC80469E20FDF7AC
:102CEC0075FC4FEA082808F47C588044A120FDF7B5
:102CFC006DFC0646A220FDF769FC360106F47066F1
:102D0C000644A120FDF762FC0546A020FDF75EFC01
:102D1C002D0205F480750544A820FDF757FC0290A0
:102D2C00A420FDF753FC8346A320FDF74FFC4FEA8C
:102D3C000B2B0BF4706B8344A420FDF747FC8146EE
:102D4C00A520FDF743FC4FEA091909F47069814489
:102D5C00A720FDF73BFC0390A620FDF737FC049061
:102D6C00A820FDF733FC284A04991460274C039AD9
:102D7C001FFA88FEB6B2A4F800E01FFA8AFCB6442B
:102D8C00A4F804C0ADB2ACEB0E0C01F01F0102F0C4
:102D9C003F022582ACEB050CA2821FFA8BF50A448C
:102DAC00E580AD1A029AC0F3C000C7F34007920049
:102DBC0047EA400702F004021743A27E059BE68116
:102DCC0022F007021FFA89F61743AD1BA360E182BC
:102DDC00A4F812C066802583A7764A46CDE900B3D5
:102DEC00414653460A4802F03DFB07B0BDE8F08F60
:102DFC002822B4FBF2F41C445BE71422F9E75C00D4
:102E0C0057E700BFA40300208C03002070030020B0
:102E1C00647600082DE9F74F07469020FDF7D6FBA6
:102E2C00002F52D100F003049120FDF7CFFB054693
:102E3C000A20FDF7CBFB8046002C4ED0012C0CBF9A
:102E4C00C5F3470BC5F3870B4E20FDF7BFFB81463F
:102E5C000C20FDF7BBFB07F1060A00F0C00656FA82
:102E6C000AF64AD0314E3248317802F0FBFA337808
:102E7C00102B40D1BBF11B0F22D809F0C00353FA21
:102E8C000AF31DD118F0800F1AD10120FDF712FDA5
:102E9C004A46414623462748009502F0E3FA264865
:102EAC0002F048FB04220521CFB9B220FDF7B6FB96
:102EBC00E022B1201146FDF7B1FB0020FDF7FAFC32
:102ECC000023337003B0BDE8F08FC0F3810492206F
:102EDC00FDF77CFB05460B20ABE7AB46B4E7C22005
:102EEC00FDF79CFBC022B1201146FDF797FB202279
:102EFC00C1201146DFE70133E3E70120FDF7DAFCDF
:102F0C0057B93A466021B120FDF788FB002003B089
:102F1C00BDE8F04FFDF7CEBC32464021B120FDF7A5
:102F2C007DFB32462021C120EEE700BFA00300202C
:102F3C00A9760008B9760008EA760008992008B549
:102F4C00FDF744FB0011052808D006282FD00022DD
:102F5C000C216520FDF762FB002305E004220C2107
:102F6C006520FDF75BFB0123144A02201360FDF77B
:102F7C00A1FC1520FDF72AFB114BC0F34110186082
:102F8C000020FDF797FC6520FDF720FB0D4BC0F3EF
:102F9C00011018605120FDF719FB0120FDF78AFC88
:102FAC000020FDF787FCBDE80840FEF7C2B80822F8
:102FBC000C216520FDF732FB0223D5E764030020CA
:102FCC006C0300206803002038B504460D460A4601
:102FDC000178364802F046FA2178A94264D02A4694
:102FEC00334802F03FFA334B53F8250002F03AFA1B
:102FFC00314802F09FFA25700A2D55D8DFE805F00C
:10300C000654545427103A5454543D000021084699
:10301C00FEF706FD0021BDE838400120FEF700BD9B
:10302C000020FEF743FFFEF79FFE0020FEF777F827
:10303C00014648B9FEF7F4FC0120FEF770F8014692
:10304C000028E8D00121E6E701210020F2E700206A
:10305C00FEF72CFF94F8AB3023F0800384F8AB30F0
:10306C000023238384F83E308221BDE838406A2057
:10307C00FDF7BEBA6523E381F6E72046FEF79CFC1C
:10308C00FDF768FB01212046FEF7C5FDFFF7E4FDC7
:10309C00FFF754FF8F218420FDF7AAFA81216A20C3
:1030AC00FDF7A6FA0023637538BD00BFFF76000854
:1030BC002B77000894010020FF6E000810B5044621
:1030CC00FDF770FB0A48FDF75FFB94F8AF30C02B9F
:1030DC0002D10848FDF758FBFFF720F820460521E0
:1030EC00FFF772FF2046BDE810400021FEF793BDAC
:1030FC00558200083A8200082DE9F04105460A2065
:10310C00FDF764FA064600F089080B20FDF75EFA1D
:10311C0007465120FDF75AFA10F0010410D10A208D
:10312C00FDF754FA430602D42046FFF773FE18F05D
:10313C00800F07D02846BDE8F0410621FFF744BFB9
:10314C000120F2E74FF00A0808FB045393F84530CE
:10315C00012B35D0697D1CBB06F00906092E0CD15C
:10316C000131C9B26975174802F07CF94046FDF788
:10317C002DFA0146144802F075F96B7D152B1FD9F9
:10318C00002312486B7502F0D5F92046FEF7A8FC17
:10319C002046FDF7DDFB2046BDE8F041FDF796BC6F
:1031AC0007F00907092FE8D10131C9B26975054843
:1031BC0002F058F90B20FDF709FA01460448DAE74A
:1031CC00BDE8F0815A7700087077000898770008FE
:1031DC008477000838B5044698B9024601210A4D97
:1031EC005120FDF71BFAAB7CA34209D004212846E1
:1031FC00FFF7EAFEFF23AC7485F86B3085F86C3072
:10320C0038BD01221146EAE7A803002010B50C4C8A
:10321C002046FDF71DFB2046FFF750FF032200243C
:10322C00084B1146C02083F8264083F8234083F8CE
:10323C002540FDF7F3F92046BDE81040FFF7CABF63
:10324C00A80300203C030020C38910B5642B38BFB1
:10325C0064230278643B9BB2062A0446C38107D0E0
:10326C000A2A0FD0042A2DD1BDE81040FFF744BF25
:10327C0043BBFDF741FF28BB2046BDE810400A21A7
:10328C00FFF7A2BE90F9AB30002B0ADA8378012B42
:10329C0007D0FEF791FB94F8AB3023F0800384F851
:1032AC00AB305320FDF792F903060BD5B4F866301A
:1032BC0043B9FDF721FF014620B92046BDE8104077
:1032CC00FEF79CBD10BD0000F8B5064651200D461A
:1032DC00FDF77CF9044600270120FDF7EBFA0022EC
:1032EC006021B120FDF79AF900226021C120FDF781
:1032FC0095F90020FDF7DEFA04F00104184BAC42FE
:10330C001F701FD12046FDF70AFF012805460CD17E
:10331C00144802F00FF904213046FFF755FE2946F8
:10332C002046BDE8F840FEF77BBB0F4802F002F9DF
:10333C0039462046FEF774FB3046BDE8F8400521BF
:10334C00FFF742BE2846FDF7EAFE044628B9284698
:10335C00FDF7FEFA21462846E3E70121FBE700BF13
:10336C00A0030020B9770008CF77000810B50446F9
:10337C00FDF7CEFA012808D10A4802F0DBF8204606
:10338C00BDE810400621FFF71FBE074802F0D2F837
:10339C0020460421FFF718FE2046BDE8104000210E
:1033AC00FEF739BCE6770008F877000810B5012065
:1033BC00FDF780FA802420460134E4B2FDF706F9CB
:1033CC00902CF8D120460134E4B2FDF7FFF8A02C84
:1033DC00F8D10020BDE81040FDF76CBA01282DE9AA
:1033EC00F04740F0AF810220FDF764FA2420FDF78E
:1033FC00EDF804462820FDF7E9F807462920FDF7EB
:10340C00E5F880462A20FDF7E1F805460020FDF797
:10341C0051FA812CC64C40F08081032F40F07D8105
:10342C00B8F10C0F40F07981002D40F0768102202C
:10343C00FDF740FA1820FDF7C9F884F83000242075
:10344C00FDF7C4F884F831002520FDF7BFF884F8A7
:10345C0032002620FDF7BAF884F833002720FDF758
:10346C00B5F884F834002820FDF7B0F884F835005E
:10347C002920FDF7ABF884F836002A20FDF7A6F8D2
:10348C0084F837002B20FDF7A1F884F838002C20A5
:10349C00FDF79CF884F839002D20FDF797F884F897
:1034AC003A002E20FDF792F884F83B002846FDF7F1
:1034BC0001FA022363774FF4807340F20220E38316
:1034CC004FF0FF33C4E90803A362072384F82C30C0
:1034DC0094F8383003F0E003402B7FD194F8393066
:1034EC000F2B7BD8182094F83060924BEAB200FB7B
:1034FC0002F1595CFF2903D08E4205F10105F5D18B
:10350C00182101FB02330120D3E90186D3E9039A88
:10351C005D69FDF7CFF9C8F30712FF219D20FDF778
:10352C007DF84FEA0812F02102F0F0029C20FDF722
:10353C0075F8F2B2FF219220FDF770F8C6F3032262
:10354C000F219320FDF76AF84FEA0912F02102F0DF
:10355C00F0029320FDF762F8FF21C9F307129420C3
:10356C00FDF75CF84FEA0A12A6EB5508F02102F0C1
:10357C00F0029F20FDF752F8FF215FFA88F28F20AE
:10358C00FDF74CF806EB55050F21C8F303229020EC
:10359C00FDF744F82A01F02102F0F0029020FDF72B
:1035AC003DF8FF21C5F307129120FDF737F80020F5
:1035BC00FDF780F9102266201146FDF72FF8202226
:1035CC0085201146FDF72AF8FFF7F0FE9F20FCF747
:1035DC00FDFF9E20FCF7FAFFA6EB090694F83820B5
:1035EC0094F86A3002F0E002402A40F09680D90745
:1035FC005CBF43F0010384F86A3094F86A3013F02E
:10360C00010002D10020BDE8F08794F839200F2A80
:10361C001CD813F0020207D123F00E0343F002036F
:10362C0084F86A3084F83C2094F8303094F83C20CC
:10363C0084F83D309A42E6D03E2B05D81F2B15D886
:10364C00042B1AD0132B18D0062718E002F0F00226
:10365C00602A18D0802AD6D11907D4D494F83030E7
:10366C00202B46D8032B39D806234EE0324AA3F13F
:10367C002001C9B2CA40D207E6D584F82260277768
:10368C0084F83C30BFE75D07BDD494F83030202B74
:10369C000ED8032B01D8062316E0284A043BDBB2D4
:1036AC0022FA03F313F0010F0CBF062302230BE0E5
:1036BC00223BDBB21C2BEED8214A22FA03F313F087
:1036CC00010F14BF02230623237794F86A3023F0EA
:1036DC000E0343F0040384F86A3094E7174A043B62
:1036EC00DBB222FA03F313F0010F0CBF0623042301
:1036FC000BE0223BDBB21C2BB6D8114A22FA03F3A7
:10370C0013F0010F14BF04230623237794F86A30B7
:10371C0023F00E0343F00803DDE794F86A30DA0770
:10372C007FF570AF23F00F0384F86A306AE700BFAF
:10373C00A80300200400002005000050039001188D
:10374C000100001482216A20FCF752FF0022102194
:10375C006620FCF763FF002220218520FCF75EFF2A
:10376C0050E700BF2DE9F74F03780446002B00F01B
:10377C0054830020FDF79EF80520FCF727FF064632
:10378C000620FCF723FF05460720FCF71FFF8146A8
:10379C000820FCF71BFF82460920FCF717FF804628
:1037AC000A20FCF713FF0190D020FCF70FFF07460F
:1037BC0031460520FCF71CFF29460620FCF718FFB4
:1037CC0049460720FCF714FF51460820FCF710FF70
:1037DC0041460920FCF70CFFD02007F00F01FCF745
:1037EC0007FF002E00F0AA803146BD4801F03AFEDA
:1037FC00320604D5BB4801F09DFE0023A375730669
:10380C0006D5A17DB84801F02DFE2046FEF760FBE1
:10381C00B0060AD5B54801F08DFE0020FDF78AF8F8
:10382C0018B100212046FEF7BFFB310727D5B04861
:10383C0001F080FE0023A375AE4B1A7894F85C302F
:10384C00002A40F0798213F0010140F075822220A9
:10385C00FCF7CEFE94F85C3043F0030384F85C3044
:10386C00032384F85D30019B580608D594F8583032
:10387C0043F0100384F85830032384F85A30F106CF
:10388C001BD59D4801F056FE019B5A0608D594F8AD
:10389C00583043F0100384F85830032384F85A301E
:1038AC00944B1A784AB994F85C3084F85D2003F094
:1038BC00FE0343F0020384F85C30730716D58F487F
:1038CC0001F038FE0C20FCF781FE10F0400B0DD1FE
:1038DC000120FCF7EFFF5A466021B120FCF79EFE59
:1038EC005846FCF7E7FF864B83F800B0B0071CD5B1
:1038FC004FF0000B834884F816B084F818B001F030
:10390C0019FE072213201146FCF788FE0520FCF750
:10391C004BFE5A4607211320FCF780FE5846FDF754
:10392C0009F810B15846FDF7D1F8F10706D57648DD
:10393C0001F000FE00212046FFF7C6FC002D00F030
:10394C009C802A0604D5714801F0F4FD0023E37530
:10395C006B0605D56E4801F0EDFD2046FEF7D0FA5A
:10396C00AE060AD56B4801F0E5FD0120FCF7E2FF3D
:10397C0018B101212046FEF717FB28071FD5664812
:10398C0001F0D8FD0023E3755A4B5A7894F85C305B
:10399C00002A40F0DC8113F0100640F0D8815F481B
:1039AC0001F0C8FD31463A20FCF722FE94F85C3059
:1039BC0043F0300384F85C30032384F85E3015F058
:1039CC00100614D0564801F0B5FD94F85C30DA06B8
:1039DC0044BF002284F85E20464A52783AB923F05C
:1039EC00100343F0200384F85E2084F85C306B07EE
:1039FC0015D54C4801F09EFD0C20FCF7E7FD0006A8
:103A0C000DD40120FCF756FF00226021C120FCF7E9
:103A1C0005FE0020FCF74EFF0022394B1A70A90757
:103A2C0022D5414801F086FD07221A201146FCF7E9
:103A3C00F5FD0520FCF7B8FD002207211A20FCF744
:103A4C00EDFD002315F00C0F6376E37540F08A81D1
:103A5C0094F85C309A0600F185810120FCF76AFF2E
:103A6C0010B10120FDF732F8ED0706D52F4801F013
:103A7C0061FD01212046FFF727FCB9F1000F00F092
:103A8C00A38019F0400F06D0294801F053FDFEF732
:103A9C0091F8FEF794F819F0800F0DD0254801F03D
:103AAC0049FD002280217A20FCF7B8FDFEF782F850
:103ABC00FEF785F8FEF74AF819F0200F06D01E48DD
:103ACC0001F038FD00212046FEF798F919F0100F8F
:103ADC0038D01A4801F02EFD0121204630E000BFFD
:103AEC000B78000817780008397800085878000817
:103AFC007E7800089A030020A9780008D378000883
:103B0C00A0030020FE7800081E7900083F79000809
:103B1C00617900087C790008A2790008CD79000849
:103B2C00EB790008157A0008407A0008607A0008E2
:103B3C00817A00089B7A0008B67A0008D17A0008CE
:103B4C00FEF75CF919F0080F02D0B54801F0F2FC51
:103B5C0019F0040F02D0B34801F0ECFC19F0020F7D
:103B6C0002D02046FFF702FC19F0010F2CD0019B6C
:103B7C00AD4D13F0400600F00B81AC4801F0DAFCBF
:103B8C002B78942B20D10120FCF794FE00220721E6
:103B9C00B620FCF743FD2022B1201146FCF73EFD78
:103BAC0001220721B220FCF739FDB120FCF70EFDF4
:103BBC000546B220FCF70AFD294602469C4801F056
:103BCC0051FC0020FCF776FEBAF1000F2BD01AF056
:103BDC00200F02D0974801F0ADFC1AF0100F02D064
:103BEC00954801F0A7FC1AF0080F02D0934801F099
:103BFC00A1FC1AF0040F0AD0914801F09BFC94F838
:103C0C003E3023B90120FFF7E9FB84F83E001AF09F
:103C1C00020F02D08B4801F08DFC1AF0010F02D07C
:103C2C00894801F087FCB8F1000F62D018F0800FC2
:103C3C0002D0864801F07EFC18F0400F0ED07A4B73
:103C4C0009201B78942B0CBF20214021FCF7D0FCC1
:103C5C007F4801F06FFC2046FEF788F918F0200F22
:103C6C0009D020210920FCF7C3FC7A4801F062FC42
:103C7C002046FEF75DF918F0100F02D0764801F0DF
:103C8C0059FC18F0080F02D0744801F053FC18F0DE
:103C9C00040F02D0724801F04DFC18F0020F02D054
:103CAC00704801F047FC18F0010F22D06E4801F06B
:103CBC0041FC0220FCF7FEFD1420FCF787FC0646B5
:103CCC001520FCF783FC05460020FCF7F3FD94F867
:103CDC006B30B34203D194F86C30AB4205D094F8FE
:103CEC00AB3043F0800384F8AB3084F86B6084F81D
:103CFC006C50002F00F09180F80670D53021D02048
:103D0C00FCF776FC594801F015FC0020FEF772FD1B
:103D1C0004F13F0007F03007FEF748FDBA066CD5FA
:103D2C002021D020FCF764FC514801F003FC002159
:103D3C002046FEF74DFE60E09A077FF594AD43F008
:103D4C00010384F85C3094F85D30013389E5990601
:103D5C007FF535AE43F0100384F85C3094F85E3098
:103D6C0001332AE6002E7FF478AE94F85C30DB0643
:103D7C003FF57AAE31463A20FCF73AFC94F85C30C9
:103D8C0043F0300384F85C30032384F85E306BE638
:103D9C00384801F0CFFB2B78942B7FF415AF012022
:103DAC00FCF788FD03220721B620FCF737FC3246CE
:103DBC002021B120FCF732FC04220721B220FCF7B1
:103DCC002DFCB120FCF702FC0546B220FCF7FEFBF3
:103DDC0029460246164801F045FB3046F2E67906C4
:103DEC009CD5C021D020FCF703FC234801F0A2FB9A
:103DFC00012007F0C007FEF7FDFC3B060DD5802126
:103E0C00D020FCF7F5FB1D4801F094FB0121204666
:103E1C0003B0BDE8F04FFEF7DBBD03B0BDE8F08F9B
:103E2C00F47A0008177B0008CC010020347B0008D2
:103E3C00547B0008A27B0008C87B0008EC7B0008C0
:103E4C00007C00081E7C0008357C00084C7C0008B7
:103E5C006B7C0008897C0008A77C0008CB7C0008E0
:103E6C00ED7C00080F7D0008357D00085A7D0008A8
:103E7C00A07D0008817B00087D7D0008C37D0008C3
:103E8C0010B50F4C2046FFF76DFC2046FFF7DCF910
:103E9C002046FDF7E7FE94F84530012B03D104F1E1
:103EAC003F00FEF741FC94F84F30012B02D105483E
:103EBC00FEF73AFCBDE810400148FEF757BE00BFC4
:103ECC00A8030020F103002008B5FCF75FFB0748AE
:103EDC0001F030FB0649074801F0C4FA064801F02E
:103EEC0029FBBDE80840054801F024BB8080000890
:103EFC00B5800008C6800008D5800008E78000085F
:103F0C0038B5144C2578A5B9FCF741FBFFF7DCFF5D
:103F1C0029460120FDF784FD4FF47A70FCF744FB31
:103F2C00FFF774F901210846FDF77AFD0123237090
:103F3C0038BDFCF72DFB084B1A88104480B263285F
:103F4C0001D81880F4E700221A80BDE83840FFF74A
:103F5C0097BF00BF5A04002058040020FCF7D8FA81
:103F6C000B480C490C4A002302E0D458C4500433CB
:103F7C00C4188C42F9D3094A094C002301E01360A0
:103F8C000432A242FBD301F009FCFCF739F970476B
:103F9C000000002034020020688300083402002056
:103FAC00AC050020FEE7000038B50E4B05461A782C
:103FBC004FF47A73B3FBF2F30B4A1068B0FBF3F0D7
:103FCC0000F08EF8044658B90F2D09D80246294640
:103FDC004FF0FF3000F054F82046044B1D6038BD04
:103FEC000120FCE7D001002000000020D4010020BB
:103FFC00074A08B51368032043F01003136000F060
:10400C002DF80F20FFF7D0FFFCF792F9002008BD28
:10401C0000200240034A044B11681B780B441360C8
:10402C00704700BF5C040020D0010020014B1868D1
:10403C00704700BF5C04002038B50446FFF7F6FF5C
:10404C000546631C1EBF044B1B78E418FFF7EEFFFC
:10405C00431BA342FAD338BDD00100200749030209
:10406C00CA6803F4E06322F4E0621204120C1343F6
:10407C0043F0BF6343F40033CB60704700ED00E0C6
:10408C00154B30B5DC68C4F30224C4F10703251DBD
:10409C00042B28BF0423062D4FF0FF3594BF0024BA
:1040AC00033C05FA03F321EA0303A54022EA0502C7
:1040BC00A340002843EA0203ACBF00F16040074A6A
:1040CC004FEA0313DBB2ABBF00F5614000F00F0009
:1040DC0080F80033135430BD00ED00E014ED00E027
:1040EC000138B0F1807F0BD24FF0E023F021054A6C
:1040FC00586182F823100020072298611A617047DA
:10410C000120704700ED00E02DE9F74F00244FF03F
:10411C000F0E2646DFF884C1614B00F104080A68D3
:10412C0032FA06F502D103B0BDE8F08F012505FA8D
:10413C0006F702EA070537EA020276D14A68032A33
:10414C0007D8013A022A00F28380DFE802F0919648
:10415C009C00122A00F0948069D8112A00F08A8001
:10416C00FF2D94BF8146C1464FEA8602D9F80070F4
:10417C0088BF203A0EFA02FA27EA0A0704FA02F27A
:10418C001743C9F80070D1F8049019F0805F4CD037
:10419C00DCF8182026F0030742F00102CCF81820B6
:1041AC00DCF8182007F1804702F00102019207F5B4
:1041BC00803706F0030A019A4FEA8A0ABA680EFAA7
:1041CC000AFB22EA0B0B374A904260D002F5806260
:1041DC0090425ED002F5806290425CD002F5806223
:1041EC00904214BF0422032202FA0AF242EA0B02A2
:1041FC00BA609A6819F4801F14BF2A43AA439A60C4
:10420C00DA6819F4001F14BF2A43AA43DA605A680B
:10421C0019F4003F14BF2A43AA435A601A6819F4D0
:10422C00803F14BF2A43AA431A60013677E7DFF8B0
:10423C0078904A450CD014D8A9F580194A4507D076
:10424C0009F570294A4503D0A9F580194A4587D14B
:10425C008A68D2B1012A4FF008040CBF076147618C
:10426C007EE7DFF848904A45F2D009F58039EDE752
:10427C00CC6875E7CC68043472E7CC6808346FE717
:10428C00CC680C346CE700246AE7042468E700224D
:10429C00AAE70122A8E70222A6E700BF001002400D
:1042AC000004014000080140000022100000311001
:1042BC000AB1016170470904FBE7016800224B69F0
:1042CC0013F4806310D06FF480634B61202302637E
:1042DC0080F83D3080F83E20036C80F83C2043F0A1
:1042EC000403036401207047184670472DE9F84613
:1042FC0006460F4691461D464FEA114A3368BAF1FD
:10430C00010F0CBF5C699C6927EA0404A4B2B4FADF
:10431C0084F46409A14501D0002025E06A1CEED08C
:10432C00FFF784FE089BC01AA84201D8002DE5D1E6
:10433C003368BAF1010F0CBF5B699B6927EA030371
:10434C009BB2B3FA83F35B099945D7D100232022A2
:10435C000120336386F83D2086F83E30326C86F8B7
:10436C003C3042F020023264BDE8F8862DE9F04181
:10437C0004460F46164698462568686927EA0000E9
:10438C0080B2C0B16B695A0517D52B68202243F453
:10439C0000732B606FF480636B610023236384F8DC
:1043AC003D2084F83E30236C43F004032364002347
:1043BC00012084F83C30BDE8F081731CDDD0FFF7A0
:1043CC0035FEA0EB0800B04201D8002ED4D12368F2
:1043DC005A6927EA020292B2002ACDD00023202289
:1043EC00236384F83D2084F83E30236C1343DDE7CF
:1043FC0070B504460D46164623685B691B0601D54D
:10440C0000201EE02046FFF758FFC8B96A1CF3D005
:10441C00FFF70CFE801BA84201D8002DECD12368BD
:10442C005B6913F08003E7D12022236384F83D20DD
:10443C0084F83E30226C84F83C3042F02002226436
:10444C00012070BD2DE9F0431546026899461368AA
:10445C0085B043F480731360DDE90C780E463B465F
:10446C0000224FF00111CDF800800446FFF73EFF0B
:10447C00236838B11B68DB0502D54FF40073236445
:10448C00032620E006F0FE061E613A46434620460F
:10449C001849FFF76BFFA8B9236803905A6939468E
:1044AC0003929B69424603932046039BFFF7A0FFB0
:1044BC00064660B1236C042B01BF2268136843F4D9
:1044CC00007313600126304605B0BDE8F083B9F1E6
:1044DC00010F236802D1EDB21D61F4E72A0A1A61BB
:1044EC00394642462046FFF783FF0028E2D1236875
:1044FC00F1E700BF020001002DE9FF479A46DDE914
:10450C000C78036815461A680E4642F480621A60ED
:10451C001A684FF0011142F480721A603B46002277
:10452C00CDF800800446FFF7E1FE236848B11B6814
:10453C00DB0548BF4FF400734FF0030048BF236402
:10454C0021E05FFA86F906F0FE061E613A46434604
:10455C0020462A49FFF70AFFA0B9236803905A693D
:10456C00394603929B69424603932046039BFFF70F
:10457C003FFF58B1236C042B01BF2268136843F42E
:10458C0000731360012004B0BDE8F087BAF1010F8D
:10459C0023681AD1EDB24246394620461D61FFF719
:1045AC0027FF02460028E5D1216820460B6843F41A
:1045BC0080730B603B464FF00111CDF80080FFF784
:1045CC0095FE226860B11368B2E72A0A1A6139466F
:1045DC0042462046FFF70CFF0028CBD12368D9E7D1
:1045EC0049F001031361204643463A460349FFF75D
:1045FC00BDFE003818BF0120C5E700BF0200010056
:10460C0070B504460D46164623685B695B0701D5F9
:10461C0000201EE02046FFF750FEC8B96A1CF3D0FC
:10462C00FFF704FD801BA84201D8002DECD12368B4
:10463C005B6913F00403E7D12022236384F83D2047
:10464C0084F83E30226C84F83C3042F02002226424
:10465C00012070BD70B504460D46164621684B69A5
:10466C0013F0400301D0002011E04A69D2060FD5A7
:10467C006FF010024A612022236384F83D2084F8F5
:10468C003E30236C23640023012084F83C3070BD41
:10469C00FFF7CCFC801BA84201D8002DDED123688B
:1046AC005B6913F04003D9D12022236384F83D20A9
:1046BC0084F83E30236C1343E4E7000070B50446E5
:1046CC0008B9012070BD90F83D3003F0FF021BB912
:1046DC0080F83C20FBF744FE242384F83D3023680B
:1046EC001A6822F001021A601A6842F400421A6039
:1046FC001A6822F400421A6000F0BAFC3F4B65685D
:10470C009D4294BF3E4B3F4B98428CBF00230123EC
:10471C00002BD6D1394E3C4BB542B0FBF3F388BFDE
:10472C004FF496762268516821F03F0141EA03016B
:10473C0082BF73434FF47A76B3FBF6F35160116A80
:10474C00013321F03F010B431362D169431E2B4807
:10475C0021F44F41854221F0FF0132D86D00B3FBAB
:10476C00F5F340F6FC700133034242D0C3F30B0364
:10477C001943D1611168D4E9073021F0C00103431A
:10478C000B4313609168D4E9030321F40341034301
:10479C0021F0FF010B439360D168D4E9053021F07F
:1047AC00FF0103430B43D3601368002043F0010364
:1047BC0013602023206484F83D30206384F83E008D
:1047CC0080E7A06850B905EB4505B3FBF5F3013361
:1047DC00C3F30B037BB143F40043C9E719206843CF
:1047EC00B3FBF0F30133C3F30B0323B143F44043A6
:1047FC00BEE70423BCE70123BAE700BFA086010093
:10480C007F841E00FF083D0040420F002DE9F74356
:10481C00044699460F4690460C9EFFF707FC94F809
:10482C003D300546202B03D0022003B0BDE8F083B9
:10483C0000901923012220463A49FFF757FD002822
:10484C00F2D194F83C30012BEED00123206884F88F
:10485C003C3003684246D90758BF036839465CBFF1
:10486C0043F001030360036823F400630360212316
:10487C0084F83D30402384F83E30002323640A9BA7
:10488C0020466362BDF82C306385638D2385264BEF
:10489C00E3624B46CDE90065FFF7D4FD00282AD032
:1048AC000120C2E7FFF7A4FD40B1236C042B01BF2C
:1048BC002268136843F400731360F1E7636A276896
:1048CC001A4612F8011B39616262628D218D013A20
:1048DC0092B262857A69481E80B2520720850AD549
:1048EC0048B15A7802333A616362638D0239013BF5
:1048FC009BB221856385238D2A4631462046002BA9
:10490C00D0D1FFF77DFE0028CFD12268136843F485
:10491C0000731360202384F83C0084F83D3084F845
:10492C003E0082E7020010000000FFFF2DE9F0437B
:10493C0099460023044689B003930D469046129F76
:10494C00FFF774FB94F83D300646202B04D002256B
:10495C00284609B0BDE8F0830090192301222046B7
:10496C009049FFF7C3FC0028F1D194F83C30012B9F
:10497C00EDD00123206884F83C3003682946DB071E
:10498C0058BF036842465CBF43F0010303600368F1
:10499C0023F400630360222384F83D30402384F821
:1049AC003E3000232364109B20466362BDF84430E4
:1049BC006385638D23857C4BE3624B46CDE90076A2
:1049CC00FFF79AFD0546002840F0BA80228D236837
:1049DC00C2B904905A6904929A690492049A1A68AA
:1049EC0042F400721A60DFF8C481DFF8C491238DA1
:1049FC00002B37D1202284F83C3084F83D2084F8F9
:104A0C003E30A5E7012A11D11A6822F480621A609F
:104A1C0072B6236805905A6905929A690592059AAF
:104A2C001A6842F400721A6062B6DCE7022A1A684D
:104A3C000ED142F400621A6072B6236806905A696D
:104A4C0006929A690692069A1A6822F48062EAE73C
:104A5C0042F480621A6007905A6907929B69079327
:104A6C00079BC0E7032B78D8012B15D1324639466A
:104A7C002046FFF7EFFD002862D123681A69636AAC
:104A8C001A70636A01336362238D013B2385638D46
:104A9C00013B9BB26385AAE7022B4FF000023B4619
:104AAC0041462046009618D1FFF720FC002847D13C
:104ABC0072B623681A6842F400721A601A69636A43
:104ACC001A70636A01336362238D013B2385638D06
:104ADC00013B9BB2638562B6CFE7FFF707FC00286A
:104AEC002ED12268136823F48063136072B646F2E9
:104AFC00A81123681A69636A1A70626A531C63628C
:104B0C00238D013B2385638D013B9BB26385D9F8D3
:104B1C000030B3FBF1F323214B430393039B013B85
:104B2C000393039B73B92022236384F83D2084F8FC
:104B3C003E30226C42F02002226462B684F83C3093
:104B4C00012505E7236859694907E7D5196841F438
:104B5C00007119601B695370B3E732463946204621
:104B6C00FFF778FD0028EBD123681A69636A1A7085
:104B7C00628D616A013A92B24B1C62852268636253
:104B8C00238D5069013B9BB2400723857FF52FAFE6
:104B9C00032B02BF136823F48063136013694B70FB
:104BAC006FE700BF020010000000FFFF04000100CF
:104BBC00000000202DE9F341054638B30368DB07FC
:104BCC0010D42B689F075ED42B68190700F19580D1
:104BDC002B685A0700F1C180EB69002B40F02C8147
:104BEC00002029E0904C636803F00C03042B07D0E1
:104BFC00636803F00C03082B0AD16368DE0307D546
:104C0C0023689C03DDD56B68002BDAD1012013E0FF
:104C1C006B68B3F5803F12D1236843F48033236073
:104C2C00FFF704FA064623689803CAD4FFF7FEF987
:104C3C00801B6428F7D9032002B0BDE8F0819BB932
:104C4C00236823F480332360236823F480232360B8
:104C5C00FFF7ECF9064623689903B2D5FFF7E6F99E
:104C6C00801B6428F7D9E6E7B3F5A02F236803D19E
:104C7C0043F480232360CFE723F48033236023683D
:104C8C0023F48023CBE7684C636813F00C0F07D038
:104C9C00636803F00C03082B10D16368DA030DD49E
:104CAC0023689B0702D52B69012BAFD123686A6956
:104CBC0023F0F80343EAC203236085E72A695B4BC0
:104CCC006AB101221A60FFF7B1F9064623689F0703
:104CDC00ECD4FFF7ABF9801B0228F7D9ABE71A60CD
:104CEC00FFF7A4F90646236898077FF56DAFFFF729
:104CFC009DF9801B0228F6D99DE7AA694A4E4B4BB9
:104D0C00E2B10122C3F88024FFF790F90446736ADC
:104D1C009B070DD54FF4FA52454B1B68B3FBF2F3CE
:104D2C00019300BF019B5A1E0192002BF9D14FE752
:104D3C00FFF77CF9001B0228E9D97CE7C3F8802433
:104D4C00FFF774F90446736A9F077FF541AFFFF7CD
:104D5C006DF9001B0228F6D96DE7334CE369D800D6
:104D6C0024D40127E36943F08053E361E36903F042
:104D7C0080530093009B2F4E3368D90518D5EB68F0
:104D8C00012B26D1236A43F001032362FFF74EF96E
:104D9C0041F288380646236A9B073FD5002F3FF423
:104DAC001BAFE36923F08053E36115E70027E2E7CB
:104DBC00336843F480733360FFF738F98046336807
:104DCC00DA05DCD4FFF732F9A0EB08006428F6D939
:104DDC0031E7ABB9236A41F2883823F0010323622F
:104DEC00236A23F004032362FFF720F90646236AA3
:104DFC009807D3D5FFF71AF9801B4045F7D91AE766
:104E0C00052B236A03D143F004032362BAE723F092
:104E1C0001032362236A23F00403B6E7FFF706F9C4
:104E2C00801B4045B7D906E7001002400000424203
:104E3C0000000020007000402A4C626802F00C0256
:104E4C00082A3ED00022022B274B1A662CD1FFF7E2
:104E5C00EDF806462368990120D42B6AB3F5803F00
:104E6C0005D16268A96822F400320A436260696A5B
:104E7C0062680B4322F474121343012263601A4BD1
:104E8C001A66FFF7D3F8054623689A013FF5A8AEDA
:104E9C00FFF7CCF8401B0228F6D9CCE6FFF7C6F892
:104EAC00801B0228D6D9C6E6FFF7C0F80546236852
:104EBC009B017FF595AEFFF7B9F8401B0228F6D998
:104ECC00B9E6012B3FF4A2AE60682B6A00F4803285
:104EDC009A427FF49BAE6B6A00F47010C01A18BF34
:104EEC000120A9E600100240000042420D4A53681E
:104EFC0003F00C01082912D10B48C3F38341DB03E7
:104F0C00405C09D55368094AC3F340435043084AEF
:104F1C00D35CB0FBF3F07047064B58437047034823
:104F2C00704700BF001002405083000800127A0046
:104F3C004E83000800093D002DE9F0410D46044662
:104F4C0010B90120BDE8F081444A136803F007034F
:104F5C008B4228D321688E0730D4CA0743D43F4AEA
:104F6C00136803F00703AB4265D822683C4D12F07E
:104F7C00040F6CD1130706D56B68226923F46053B8
:104F8C0043EAC2036B60FFF7B1FF6B68354AC3F3AA
:104F9C000313D35CD840344B1860344B1868FFF7BC
:104FAC0003F80020CEE7136823F007030B431360CC
:104FBC00136803F007038B42C3D1CBE7284B11F0E6
:104FCC00040F1EBF5A6842F4E0625A60080742BFE1
:104FDC005A6842F460525A605A68A06822F0F00293
:104FEC0002435A60B9E762681D4E012A33681AD130
:104FFC0013F4003FA5D0736841F2883823F0030303
:10500C0013437360FFF712F807467368626803F086
:10501C000C03B3EB820FA2D0FFF708F8C01B40457E
:10502C00F3D903208EE7022A02D113F0007FE1E7C7
:10503C0013F0020FDEE7136823F007032B43136012
:10504C00136803F00703AB427FF47BAF8DE76B680B
:10505C00E16823F4E0630B436B608BE700200240B4
:10506C00001002405881000800000020D4010020EC
:10507C00044B054A5B68C3F30223D35C034A1068F4
:10508C00D8407047001002405081000800000020FA
:10509C00044B054A5B68C3F3C223D35C034A106814
:1050AC00D8407047001002405081000800000020DA
:1050BC00026802F10C0353E8003F23F490730C32A6
:1050CC0042E8003102680029F2D102F1140353E8DE
:1050DC00003F23F0010302F1140C4CE800310029CD
:1050EC00F3D1036B012B0BD102F10C0353E8003FFE
:1050FC0023F0100302F10C0C4CE800310029F3D121
:10510C00202380F8423000230363704710B5044617
:10511C000368C1681A6922F440520A431A61826812
:10512C000069D9680243606921F4B05121F00C0187
:10513C0002430A43DA605A69A16922F440720A43B5
:10514C005A610E4A934215D1FFF7A2FF192343432C
:10515C00626820689200B3FBF2F36422B3FBF2F1B5
:10516C0002FB11331B013233B3FBF2F303EB0113DC
:10517C00836010BDFFF77CFFE8E700BF00380140FB
:10518C00F7B505460C4617461E462A68136834EADE
:10519C00030301D1002021E0701CF7D0FEF746FF7D
:1051AC00C01B86421CD3DEB12B68DA685107ECD5E4
:1051BC00802CEAD0402CE8D01A681207E5D50024E0
:1051CC0001941A68284601925B680193019BFFF7D2
:1051DC006FFF082301206B6485F8404003B0F0BDDD
:1051EC000320FBE710B5044648B390F8413003F0B8
:1051FC00FF021BB980F84020FBF7E4F82423226857
:10520C0084F84130D368204623F40053D360FFF771
:10521C007DFF236800201A6922F490421A615A69B2
:10522C0022F02A025A61DA6842F40052DA60202332
:10523C00606484F8413084F84230606310BD012012
:10524C00FCE72DE9F843984690F841300446202BB2
:10525C000E4617463FD100293FD0002A3DD02123CE
:10526C000025456480F84130FEF7E0FEA3688146D6
:10527C00B3F5805FA784E78403D123690BB9354666
:10528C001E46E38C9BB253B943464A464021204606
:10529C00FFF776FF202350B984F841300AE04346EB
:1052AC004A4680212046FFF76BFF28B120230320BC
:1052BC0084F84130BDE8F88322684EB935F8023BDA
:1052CC00C3F308035360E18C013989B2E184D8E758
:1052DC0016F8013BF6E70220ECE70120EAE70000B4
:1052EC00002310B50446C0E90033C0E904338360E1
:1052FC0081814366C2818361194608225C3000F0CB
:10530C00F9F90D4B246263620C4BA3620C4BE36204
:10531C000C4B23630C4B9C4206D003F16802944265
:10532C0002D0D0339C4205D104F15800BDE81040A6
:10533C0000F058BA10BD00BF515500087355000855
:10534C00AB550008CF55000860040020024A034901
:10535C00034800F069B800BFD80100208560000840
:10536C00E801002041680C4B10B59942044601D06D
:10537C0000F082FEA168094B994202D0204600F051
:10538C007BFEE168064B994204D02046BDE81040F4
:10539C0000F072BE10BD00BF60040020C8040020E5
:1053AC003005002010B50B4B0B4C0C4A20461A60F4
:1053BC0004210022FFF794FF04F168000122092167
:1053CC00FFF78EFF04F1D0000222BDE8104012213D
:1053DC00FFF786BF98050020600400205953000891
:1053EC00014800F000BA00BFA1050020014800F000
:1053FC00FBB900BFA105002010B50446FFF7F0FF74
:10540C00236A1BB1BDE81040FFF7F0BF044B2362C9
:10541C00044B1B68002BF5D1FFF7C4FFF2E700BF6C
:10542C0071530008980500202DE9F843074688467B
:10543C0014460026D4E90195B9F1010905D5246873
:10544C00002CF7D13046BDE8F883AB89012B07D986
:10545C00B5F90E30013303D029463846C047064310
:10546C006835E9E70FB407B5064904AB086853F88B
:10547C00042B8168019300F0D7FA03B05DF804EBBC
:10548C0004B07047E4010020036A70B505460E466F
:10549C0084680BB9FFF7B0FF636EDB0705D4A389F3
:1054AC00980502D4A06D00F09EF9A389190702D5C6
:1054BC002369002B35D12146284600F0C5F880B36E
:1054CC004FF0FF35636EDA0705D4A3899B0502D430
:1054DC00A06D00F089F9284670BD002B04DAA26992
:1054EC009A4217DC0A2915D023685A1C22601970BD
:1054FC00A36816F8011F013BA3600029EDD1002B16
:10550C0011DA22460A21284600F05FF80130D7D084
:10551C000A25D7E72246284600F057F80130E7D194
:10552C00CEE7013EE4E723685A1C22600A221A7077
:10553C00EEE70000024B01461868FFF7A5BF00BF5D
:10554C00E401002010B50C46B1F90E1000F0FCF887
:10555C000028ABBF636DA3891B1823F48053ACBF29
:10556C006365A38110BD2DE9F0411F468B8905466B
:10557C00DB050C46164605D502230022B1F90E10A8
:10558C0000F0D0F8A389324623F48053A381284637
:10559C003B46B4F90E10BDE8F04100F0E7B810B589
:1055AC000C46B1F90E1000F0BDF8431CA38915BFD1
:1055BC00606523F4805343F48053A38118BFA38107
:1055CC0010BDB1F90E1000F09DB8F8B50E4614469A
:1055DC00054618B1036A0BB9FFF70EFFA369A36068
:1055EC00A3891A0701D5236943B92146284600F03F
:1055FC002BF818B14FF0FF373846F8BD23682269F5
:10560C00F6B2981A63693746834205DC2146284670
:10561C0000F032FD0028EDD1A368013BA3602368A4
:10562C005A1C22601E706269431C9A4204D0A389E2
:10563C00DB07E1D50A2EDFD12146284600F01CFD00
:10564C000028D9D0D6E7000038B5294B0546186894
:10565C000C4618B1036A0BB9FFF7CEFEB4F90C3047
:10566C00190722D4DA0607D409222A6043F0400332
:10567C004FF0FF30A38133E0580712D5616B41B175
:10568C0004F14403994202D0284600F0AFF80023FD
:10569C006363A38923F02403A3810023636023693C
:1056AC002360A38943F00803A38123694BB9A38921
:1056BC0003F42073B3F5007F03D02146284600F095
:1056CC0028FDB4F90C3013F001020AD00022A260BC
:1056DC0062695242A261226942B913F08000C5D1BD
:1056EC0038BD990758BF6269A260F4E70020F7E75C
:1056FC00E401002003460244934200D1704703F8B2
:10570C00011BF9E738B50023054D044608462B600C
:10571C00FAF7D2FE431C02D12B6803B1236038BDCB
:10572C009C05002038B50446084611460022054D5C
:10573C002A601A46FAF7CAFE431C02D12B6803B141
:10574C00236038BD9C05002038B504460846114638
:10575C000022054D2A601A46FAF7A0FE431C02D11E
:10576C002B6803B1236038BD9C05002038B5044676
:10577C00084611460022054D2A601A46FAF7E0FC4D
:10578C00431C02D12B6803B1236038BD9C0500205B
:10579C00014B1868704700BFE401002070B500266B
:1057AC000C4D0D4C641BA410A64209D100F02EFD2B
:1057BC0000260A4D0A4C641BA410A64205D170BDEC
:1057CC0055F8043B98470136EEE755F8043B9847EB
:1057DC000136F2E7608300086083000860830008EC
:1057EC0064830008704770477047000038B5054661
:1057FC00002940D051F8043C0C1F002BB8BFE41812
:10580C0000F0DEF81C4A136833B963601460284654
:10581C00BDE8384000F0DAB8A34208D92068211856
:10582C008B4201BF19685B6809182160EDE71A46C5
:10583C005B680BB1A342FAD911685018A0420BD186
:10584C0020680144501883421160E0D118685B68ED
:10585C00084410605360DAE702D90C232B60D6E7BA
:10586C00206821188B4201BF19685B6809182160F8
:10587C0063605460CBE738BDA805002070B50F4EAF
:10588C000C463168054611B900F0A2FC3060214687
:10589C00284600F09DFC431C03D14FF0FF342046FA
:1058AC0070BDC41C24F00304A042F8D0211A284671
:1058BC0000F08EFC0130F2D1EFE700BFA405002010
:1058CC002DE9F843CD1C25F0030508350C2D38BF08
:1058DC000C25002D064601DBA94204D90C233360AC
:1058EC000020BDE8F883DFF8D48000F069F8D8F820
:1058FC0000301C4644BB29463046FFF7BFFF431C13
:10590C00044658D1D8F800402746002F43D1002C2C
:10591C004BD023683946304604EB030900F058FCA1
:10592C00814542D1216830466D1A2946FFF7A6FF02
:10593C0001303AD023682B442360D8F800305A68E1
:10594C0062BBC8F800700FE02268521B20D40B2AEF
:10595C0017D96119A342256018BF5960636808BF45
:10596C00C8F8001062514B60304600F02FF804F17B
:10597C000B00231D20F00700C21A1CBF1B1AA350DA
:10598C00AFE76268A3420CBFC8F800205A60EBE78F
:10599C0023466468AEE73C467F68B6E71A465B6808
:1059AC00A342FBD100235360DEE70C233046336067
:1059BC0000F00CF894E70560D6E700BFA8050020BE
:1059CC000148FFF710BF00BFA00500200148FFF7FA
:1059DC000BBF00BFA0050020936810B4013B002B47
:1059EC00936007DA9469A34201DB0A2902D110BC47
:1059FC00FFF7EBBD1368581C10601970084610BCFB
:105A0C007047F8B506460F461446D518AC4201D17E
:105A1C00002007E03A46304614F8011BFFF7DCFF84
:105A2C00431CF3D1F8BD00002DE9F04F0D46144690
:105A3C00984606469DB018B1036A0BB9FFF7DCFC1B
:105A4C006B6ED90705D4AB899A0502D4A86DFFF704
:105A5C00CAFEAB891B0701D52B699BB92946304679
:105A6C00FFF7F2FD70B16B6EDC0704D54FF0FF3021
:105A7C001DB0BDE8F08FAB899805F7D4A86DFFF782
:105A8C00B3FEF3E70023099320238DF8293030234C
:105A9C004FF00109CDF80C80DFF8A8818DF82A3081
:105AAC0023469A4613F8012B0AB1252AF9D1BAEBF1
:105ABC00040B0BD05B46224629463046FFF7A1FF6C
:105ACC00013000F0A780099A5A4409929AF80030E4
