:020000040800F2
:1000000000500020CD6200086161000869610008AD
:10001000716100087961000881610008000000003A
:1000200000000000000000000000000089610008DE
:100030009561000800000000A1610008AD610008A2
:1000400015630008156300081563000815630008B0
:1000500015630008156300081563000815630008A0
:100060001563000815630008156300081563000890
:100070001563000815630008156300081563000880
:100080001563000815630008156300081563000870
:100090001563000815630008156300081563000860
:1000A0001563000815630008156300081563000850
:1000B0001563000815630008156300081563000840
:1000C0001563000815630008156300081563000830
:1000D0001563000815630008156300081563000820
:1000E0001563000815630008156300080000000090
:1000F0000000000000000000000000000000000000
:0C01000000000000000000005FF808F1A3
:10010C0010B5054C237833B9044B13B10448AFF345
:10011C0000800123237010BD74000020000000003B
:10012C008495000808B5034B1BB103490348AFF392
:10013C00008008BD000000007800002084950008B5
:10014C0080B588B004AF3B600346FB710B46BB71B6
:10015C0013467B71FB7999B2BB799AB27B799BB2CE
:10016C004FF0FF30029001933B68009301230A4843
:10017C0006F016FD0346FB60FB68002B07DAFB79E3
:10018C00BA791946054808F023FB002300E0012347
:10019C0018461037BD4680BD280200209C950008EB
:1001AC0080B588B004AF3B600346FB710B46BB7156
:1001BC0013467B71FB7999B2BB799AB27B799BB26E
:1001CC004FF0FF30029001933B68009301230A48E3
:1001DC0006F0E0FD0346FB60FB68002B07DAFB79B9
:1001EC00BA791946054808F0F3FA002300E0012318
:1001FC0018461037BD4680BD28020020C495000863
:10020C0080B584B000AF03460A46FB711346BB7140
:10021C00BB1DF97901229C20FFF792FF0346FB736B
:10022C00FB7B002B0CBF01230023DBB218461037DD
:10023C00BD4680BD80B584B000AF0346FB7107F1AD
:10024C000F03F97901229C20FFF7AAFFFB7B1846CC
:10025C001037BD4680BD80B584B000AF0346FB713E
:10026C0007F10F03F97901229820FFF799FFFB7B27
:10027C0018461037BD4680BD80B584B000AF03462C
:10028C000A46FB711346BB71BB1DF97901229820FC
:10029C00FFF756FF0346FB73FB7B002B0CBF0123C0
:1002AC000023DBB218461037BD4680BD80B586B042
:1002BC0000AF0346B9607A60FB737B68DAB2F97BF6
:1002CC00BB689820FFF76CFF0346FB75FB7D002B8A
:1002DC000CBF01230023DBB218461837BD4680BD86
:1002EC0080B584B000AF0346FB710B46BB7113465F
:1002FC007B71BB79FF2B16D0FB791846FFF7ABFF50
:10030C000346FB7397F90630DB435AB297F90F306B
:10031C0013405BB2FB737A79BB791340DAB2FB7B87
:10032C001343FB7301E07B79FB73FA7BFB7911467A
:10033C001846FFF7A1FF034618461037BD4680BD8F
:10034C0080B582B000AF0023FB711D4B1B68022BE4
:10035C0006D0022B2DDC002B13D0012B0BD028E068
:10036C0003F0C0FAFB790133FB71FB79322B22D9F4
:10037C000023FB711FE005F0E9F8114B02221A6013
:10038C001AE0104808F08CFA0F4808F089FA03F0CC
:10039C0093F900F071F8002005F0F4F80121102019
:1003AC0004F08EF9094808F07BFA054B01221A601B
:1003BC0002E000BF00E000BF00BF0837BD4680BDB3
:1003CC0090000020B8970008D0970008E497000828
:1003DC0080B500AF0220FFF73EFF03461A460B4BD9
:1003EC009A700A4B9B78212B03D1094808F058FAD4
:1003FC000AE0064B9B78222B03D1064808F050FAF2
:10040C0002E0054808F04CFA00BF80BD94000020C3
:10041C0028980008489800086898000880B400AF35
:10042C00024B9B781846BD4680BC70479400002058
:10043C0080B400AF024B1B791846BD4680BC704798
:10044C0094000020B0B582B000AF78607B68002BC0
:10045C0009D0084A7B6814461D460FCD0FC495E899
:10046C00030084E80300FFF7B3FF00BF0837BD4665
:10047C00B0BD00BF9400002080B500AF164800F05E
:10048C003FFA164BDB78DB09DBB203F00103D9B280
:10049C00124A137D61F38203137502F0F5FF0346D4
:1004AC001A460E4B1A610E4800F02AFA0D4800F05D
:1004BC0027FA0D4800F024FA0C4800F021FA0C48F9
:1004CC0000F01EFA0B4800F01BFA0B4808F0E8F994
:1004DC0001F07AFF00BF80BD78AB000894000020CB
:1004EC00E4AB000838AC000844AC00087CAC000855
:1004FC009CAC0008C0AC00088898000880B500AF20
:10050C000E20FFF7A8FE034603F02003DBB2002BFE
:10051C0007D06120FFF79FFE012005F033F801237F
:10052C0003E0002005F02EF80023184680BD0000E3
:10053C00F0B58BB004AFF860B9607A600023BB757E
:10054C00994B5B7D7B750E20FFF785FE03463B7553
:10055C003B7D03F04003002B02D00123FB7501E02F
:10056C000023FB75BB68002B09D0FA7D7B7D9A427A
:10057C0014BF01230023DBB21A46BB681A70FB7D43
:10058C00002B04D1884A137D23F00103137597F9CE
:10059C001430002B80F25D813B7D1946834808F0B6
:1005AC0017F90620FFF757FE0346FB74FB7C1A462F
:1005BC0006217F4808F00CF997F91330002B12DA5A
:1005CC007C4808F06DF9142214210420FFF788FEF2
:1005DC000420FFF740FE034623F01403DBB2194658
:1005EC000420FFF749FEFB7C03F01003002B09D01D
:1005FC00714808F055F900F04DFB6B4A137D23F060
:10060C0001031375FB7C03F00403002B10D06B4823
:10061C0008F046F900F056FB634B1B7D03F0010319
:10062C00DBB2002B04D0664808F03AF902F0B4FBB8
:10063C00FB7C03F00103002B08D0BB68002B05D01A
:10064C00BB6801221A705F4B00221A60FB7C03F01E
:10065C000203002B04D0544A137D23F001031375BD
:10066C000720FFF7F8FD0346BB74BB7C1A46072135
:10067C004F4808F0ADF8BB7C03F00203002B07D009
:10068C00514808F00DF9022202210A20FFF728FE3A
:10069C00BB7C03F00103002B13D0434A137D23F0E2
:1006AC00010313754620FFF7D6FD03467B747B7C54
:1006BC001946464808F08CF8424B00221A6000F0AC
:1006CC0001FB0820FFF7C7FD03463B743B7C1A4631
:1006DC000821374808F07CF83B7C03F01003002B12
:1006EC0002D03B4B01221A70EE20FFF7B4FD0346FB
:1006FC003B743B7C03F01003002B0AD0314B1B687E
:10070C000133304A13602F4B1B681946314808F0EF
:10071C005FF83B7C03F04003002B05D07B68012283
:10072C001A70284B00221A603B7C002B6FD03B7C4C
:10073C001946EE20FFF7A0FD3B7C03F04003002B95
:10074C0001D0254C00E0254C3B7C03F02003002B12
:10075C0001D0234D00E0214D3B7C03F01003002B16
:10076C0001D0204E00E01D4E3B7C03F00803002B13
:10077C0001D01D4B00E0194B3A7C02F00402002A18
:10078C0001D01A4A00E0154A397C01F00201002917
:10079C0001D0174900E01149387C00F00100002815
:1007AC002AD0144829E000BF9400002008990008C2
:1007BC0028990008449900085C9900087099000871
:1007CC0080990008B0000020C8990008E89900083A
:1007DC004C010020049A0008209A0008389A00085E
:1007EC003C9A0008509A0008649A0008749A000811
:1007FC00949A0008B09A000825480390029101923F
:10080C00009333462A462146224807F0E1FFFF2198
:10081C000C20FFF731FDFF210D20FFF72DFD0222EB
:10082C0002210E20FFF75CFD0E20FFF714FD03469E
:10083C0043F00103BB75BB7D19460E20FFF71CFD71
:10084C00BB7D23F00303BB75BB7D19460E20FFF760
:10085C0013FDBB68002B0DD0BB681B78012B09D195
:10086C00FB7D002B06D1012000F02CF830216120FB
:10087C00FFF702FDFB68002B02D0FB68FA7D1A70B3
:10088C00054AFB7D5375FB7D18461C37BD46F0BDF4
:10089C00389A0008D09A00089400002080B500AF68
:1008AC00024800F02DF800BF80BD00BF04AD000869
:1008BC0080B500AF024800F023F800BF80BD00BF38
:1008CC00E0AC000880B582B000AF0346FB7100229B
:1008DC0001210F20FFF704FDFB79002B14BF01232E
:1008EC000023DBB21A460121C120FFF7F9FC0321DA
:1008FC00C620FFF7C1FC00BF0837BD4680BD000015
:10090C0080B584B000AF78600023FB60FA681346B2
:10091C005B0013447A6813441B78002B12D1FA68DD
:10092C0013465B0013447A6813445B78002B09D19F
:10093C00FA6813465B0013447A6813449B78002BC7
:10094C0000F08D80FA6813465B0013447A681344F8
:10095C005B78002B1ED1FA6813465B0013447A684F
:10096C0013449B78002B15D1FA6813465B00134493
:10097C007A6813441B7819463B4807F029FFFA683C
:10098C0013465B0013447A6813441B78184605F031
:10099C001FFD60E0FA6813465B0013447A68134449
:1009AC005B78FF2B24D1FA6813465B0013447A68FA
:1009BC0013441B781946FA6813465B0013447A6893
:1009CC0013449B781A46294807F002FFFA6813462D
:1009DC005B0013447A6813441878FA6813465B007A
:1009EC0013447A6813449B781946FFF745FC32E0B0
:1009FC00FA6813465B0013447A6813441B78194653
:100A0C00FA6813465B0013447A6813445B78184603
:100A1C00FA6813465B0013447A6813449B780246C9
:100A2C00134807F0D5FEFA6813465B0013447A6846
:100A3C0013441878FA6813465B0013447A6813441D
:100A4C005978FA6813465B0013447A6813449B7810
:100A5C001A46FFF745FCFB680133FB6056E700BF05
:100A6C001037BD4680BD00BFE49A0008F49A000818
:100A7C00189B000880B582B000AF786039603B6885
:100A8C00002B01D1002317E07B68DA0F13445B10B5
:100A9C00D9B27B68002B03F00103B8BF5B42DBB219
:100AAC00DB01DAB28023386800F00AF80346012B28
:100ABC0001D1002300E0012318460837BD4680BD54
:100ACC0090B587B000AF7860084611461A460346C9
:100ADC00FB700B46BB7013463B807B68FB607B68EE
:100AEC00002B01D10123C9E00620FFF7B4FB03461C
:100AFC0003F00403002B04D0624807F0D1FE00F091
:100B0C00E1F800F0C7F83B88FB82BB78FB7400224D
:100B1C0001210F20FFF7E4FBAAE0B7F91630202BD8
:100B2C00A8BF2023BB82B7F91430FA7C194656486B
:100B3C0007F04EFE01211020FFF79EFB0921152026
:100B4C00FFF79AFB00233B8222E01620FFF783FB82
:100B5C000346FB7297F90B30002B1EDBFB7A03F07C
:100B6C003803002B07D10620FFF775FB034603F073
:100B7C000403002B06D0434807F092FE00F0A2F8C5
:100B8C0001237BE0B7F910309BB201339BB23B825F
:100B9C00B7F91030C72BD8DD00E000BF01211020C1
:100BAC00FFF76AFBA0211120FFF766FBFB7C1946BF
:100BBC001220FFF761FBBB8ADBB219461320FFF74B
:100BCC005BFBFB7819461420FFF756FB032115201D
:100BDC00FFF752FBBB8ADAB2FB7C1344FB74FA8A34
:100BEC00BB8AD31A9BB2FB82FA233B821DE0032003
:100BFC0005F0EEFB1620FFF72EFB0346FB7297F970
:100C0C000B30002B16DBFB7A03F03803002B06D0DD
:100C1C00FB7A19461D4807F0DBFD01232EE0B7F9DE
:100C2C0010309BB2013B9BB23B82B7F91030002BCA
:100C3C00DDDC00E000BFB7F91030002B06D1FB7AE9
:100C4C001946134807F0C4FD012317E0FC68631C28
:100C5C00FB601720FFF7FFFA03462370B7F9143037
:100C6C009BB2013B9BB2BB82B7F91430002BEDDC7D
:100C7C00B7F91630002B3FF750AF002318461C373E
:100C8C00BD4690BD409B00085C9B0008949B0008EF
:100C9C00C89B000880B500AF01211020FFF7ECFACB
:100CAC0009211520FFF7E8FA00BF80BD80B500AF21
:100CBC0001211020FFF7E0FA0A211520FFF7DCFADA
:100CCC0000BF80BD80B582B000AF0420FFF7C3FA2F
:100CDC0003467B712020FFF7BEFA03463B711020C0
:100CEC00FFF7B9FA0346FB707B7943F00103DBB2E3
:100CFC0019460420FFF7C0FA01211020FFF7BCFAB7
:100D0C000023BB7124E00F211520FFF7B5FA002357
:100D1C00FB7113E01620FFF79EFA0346BB7097F9A0
:100D2C000230002B0EDBBB7803F03803002B0BD109
:100D3C00012005F04DFBFB790133FB71FB79C72BCF
:100D4C00E8D902E000BF00E000BFBB790133BB7102
:100D5C00BB79012BD7D900BF00BF0837BD4680BD7A
:100D6C0080B582B000AF0420FFF775FA034643F05C
:100D7C000803FB71FB7919460420FFF77DFA30213B
:100D8C006120FFF779FA002290216220FFF7A8FA80
:100D9C00002289216420FFF7A3FA00BF0837BD4663
:100DAC0080BD000090B583B000AF044608461146E4
:100DBC001A462346FB710346BB710B467B711346E7
:100DCC003B711D210420FFF757FA3B7903F0010317
:100DDC00D9B2244A137D61F3410313750122012119
:100DEC000F20FFF77DFA00215820FFF745FA00226B
:100DFC0001210F20FFF774FA1A4B1B7D03F002033D
:100E0C00DBB2002B02D00120FFF75CFD154B1A79E9
:100E1C00BB791146184600F047FA7A79BB7911462E
:100E2C00184600F0B9FA0F4B1B7D03F00203DBB23E
:100E3C00002B04D00121C020FFF71EFA03E0002193
:100E4C00C020FFF719FAFB79184600F0B3FB152107
:100E5C000420FFF711FA00F079FC012318460C3737
:100E6C00BD4690BD9400002080B483B000AF034613
:100E7C00FB71044AFB791371012318460C37BD46EC
:100E8C0080BC70479400002080B596B000AF03463C
:100E9C000A46FB711346BB71002387F853300022BE
:100EAC0001210F20FFF71CFAFB79BA7919468D48FE
:100EBC0007F08EFCFB79002B21D000237B651AE018
:100ECC0089497A6D13465B001344DB000B441B7895
:100EDC00FA799A420CD17B6D87F8533097F85330DE
:100EEC001946824807F074FC814807F0D9FC0BE0E6
:100EFC007B6D01337B657B6D142BE1D904E07D4860
:100F0C0007F0CEFC0023C9E17B6D142B04D97A4881
:100F1C0007F0C6FC0023C1E197F853207249134631
:100F2C005B001344DB000B4406331B883B6497F8CF
:100F3C0053206D4913465B001344DB000B44023312
:100F4C001B88FB6397F85320674913465B001344D7
:100F5C00DB000B440A331B88BB6397F853206249B0
:100F6C0013465B001344DB000B440C331B887B6380
:100F7C0097F853205C4913465B001344DB000B4489
:100F8C000E331B881A467B6B13443B6397F8532034
:100F9C00554913465B001344DB000B4408331B8894
:100FAC00FB6297F85320504913465B001344DB0057
:100FBC000B4404331B88BB6297F853204A491346F1
:100FCC005B001344DB000B4410331B887B6297F8E7
:100FDC005320454913465B001344DB000B4412338A
:100FEC001B883B6297F853203F4913465B00134420
:100FFC00DB000B4414331B881A463B6A1344FB6119
:10100C0097F85320384913465B001344DB000B441C
:10101C0010339B79C3F38003DBB2012B01D1022384
:10102C0000E00023FB7697F853202F4913465B0012
:10103C001344DB000B4410339B79C3F34003DBB246
:10104C00012B01D1042200E0002297F91B3013433D
:10105C005BB2FB76BB7903F00103002B03D0BB6BB7
:10106C00013BFB6402E0BB6B023BFB64FA6C7B6BE9
:10107C0013447B613B6CDA0F13445B101A46FB6C18
:10108C0013443B617B6AFB60FA683B6A1344BB60A8
:10109C0097F85320144913465B001344DB000B44B0
:1010AC0010339B79C3F30003DBB2012B05D140F65F
:1010BC00FF73BB643F237B6428E097F853200A49F5
:1010CC0013465B001344DB000B441B78272B15D114
:1010DC00FA68FB6A1344013BBB64BA6C3B6A134469
:1010EC007B6413E0F09B000828AD0008189C0008F6
:1010FC002C9C0008489C0008649C0008FA68FB6A59
:10110C001344BB64BA6C3B6A13447B64FB7E1A4683
:10111C0006219020FFF7E4F83B69DBB21B01DBB240
:10112C001A46F0219020FFF7DBF83B691B11DBB26C
:10113C0019469120FFF7A0F8FB6CDBB219469520FD
:10114C00FFF79AF87B69DBB219469620FFF794F803
:10115C007B691B115BB223F00F035AB2FB6C1B12A1
:10116C005BB203F00F035BB213435BB2DBB2194605
:10117C009720FFF781F8FB68DBB21946A020FFF738
:10118C007BF8BB68DBB21B01DAB2FB681B12DBB26B
:10119C0003F00F03DBB21344DBB21946A120FFF7B7
:1011AC006BF8BB6CDBB21946A220FFF765F87B6CC1
:1011BC005BB223F00F035AB2BB681B115BB203F096
:1011CC000F035BB213435BB2DBB21946A620FFF7E9
:1011DC0053F87B6CDBB21B01DAB2BB6C1B12DBB2BB
:1011EC0003F00F03DBB21344DBB21946A320FFF765
:1011FC0043F83B69DBB21946A420FFF73DF897F89A
:10120C005320284913465B001344DB000B44103376
:10121C009B79C3F30003DBB2002B01D0002200E06A
:10122C0010223B691B12DBB203F00F03DBB2134439
:10123C00DBB21946A520FFF71FF87B699B115BB247
:10124C0003F040035AB2FB6C1B125BB203F01003A9
:10125C005BB213435BB2DAB23B6B1B13DBB203F032
:10126C000103DBB21344DBB21A465121B120FFF764
:10127C0037F83B699B125BB203F004035AB23B692B
:10128C001B135BB203F001035BB213435BB2DBB223
:10129C001A460521B220FFF723F8012318465837C8
:1012AC00BD4680BD28AD000880B584B000AF0346B4
:1012BC000A46FB711346BB717020FEF7CCFF034648
:1012CC00FB73FB7B03F00303FB73FB7B43F001031A
:1012DC00FB73FB7903F00303012B02D0022B08D024
:1012EC000FE0FB7B43F04003FB73244807F0D8FA74
:1012FC000BE0FB7B63F07F03FB73214807F0D0FA14
:10130C0003E0204807F0CCFA00BFBB7903F00803D8
:10131C00002B06D0FB7B43F02003FB731A4807F02D
:10132C00BFFABB7903F00103002B06D0FB7B43F023
:10133C001003FB73154807F0B3FABB7903F00203F3
:10134C00002B06D0FB7B43F00803FB73104807F01F
:10135C00A7FABB7903F00403002B06D0FB7B43F008
:10136C000403FB730B4807F09BFAFB7B19467020B8
:10137C00FEF782FF00BF1037BD4680BD7C9C000885
:10138C00989C0008B49C0008D09C0008E89C0008BD
:10139C00F89C00080C9D000880B584B000AF034693
:1013AC000A46FB711346BB71FB79BA791946724830
:1013BC0007F00EFAFB7903F00303012B21D16F48E0
:1013CC0007F06EFABB7903F00303022B06D0022B55
:1013DC0016DC002B0ED0012B06D011E0684807F06C
:1013EC005FFA0023FB730BE0664807F059FA002301
:1013FC00FB7305E0644807F053FA0323FB7300BF4B
:10140C0000BFFB7B032B40F09580FB7B19465F48AC
:10141C0007F0DEF9FB7903F03003302B06D0302BCC
:10142C0067DC102B23D0202B42D062E0584807F009
:10143C00CFF90023BB7316E0BB7B7333DAB2BB7BF3
:10144C005449CB5C19461046FEF716FFBB7B03F1E3
:10145C007301BB7B4F4AD35C1A464F4807F0B8F96F
:10146C00BB7B0133BB73BB7B142BE5D962E04B48D0
:10147C0007F0AEF90023BB7316E0BB7B7333DAB213
:10148C00BB7B4749CB5C19461046FEF7F5FEBB7B90
:10149C0003F17301BB7B424AD35C1A463E4807F00A
:1014AC0097F9BB7B0133BB73BB7B142BE5D941E0B4
:1014BC003C4807F08DF90023BB7316E0BB7B7333FC
:1014CC00DAB2BB7B3849CB5C19461046FEF7D4FE2A
:1014DC00BB7B03F17301BB7B334AD35C1A462E48AA
:1014EC0007F076F9BB7B0133BB73BB7B142BE5D9BF
:1014FC0020E02E4807F06CF90023BB7316E0BB7B91
:10150C007333DAB2BB7B2A49CB5C19461046FEF723
:10151C00B3FEBB7B03F17301BB7B254AD35C1A463C
:10152C001D4807F055F9BB7B0133BB73BB7B142BF8
:10153C00E5D900BFFB7B002B05D1102210210F2019
:10154C00FEF7CEFE04E0002210210F20FEF7C8FEAD
:10155C007220FEF780FE034603F01C037B737A7B3C
:10156C00FB7B13437B737B7B19467220FEF784FE57
:10157C0000BF1037BD4680BD1C9D0008609D000853
:10158C00789D0008909D0008A89D0008C09D00084B
:10159C00D49D000848AB0008E49D0008F89D0008A5
:1015AC0060AB0008089E000818AB0008189E0008E5
:1015BC0030AB000880B584B000AF0346FB71FEF77A
:1015CC002DFF0346FB7310216120FEF755FEFB79BE
:1015DC00013B012B0FD8802290216220FEF780FE68
:1015EC00802289216420FEF77BFE002210216820D6
:1015FC00FEF776FE0FE0102290216220FEF770FEBF
:10160C00092289216420FEF76BFE1022102168202C
:10161C00FEF766FE00BFFB7B222B73D1FB79022BFE
:10162C0036D0022B4CDC002B02D0012B18D047E01B
:10163C00002202216120FEF753FE04223C2163208C
:10164C00FEF74EFE00229F216620FEF749FE202267
:10165C00E0217220FEF744FE384807F021F944E0FF
:10166C00022202216120FEF73BFE20223C21632056
:10167C00FEF736FE97229F216620FEF731FE2022D0
:10168C00E0217220FEF72CFE2D4807F009F92CE022
:10169C00022202216120FEF723FE30223C2163202E
:1016AC00FEF71EFE97229F216620FEF719FE2022D0
:1016BC00E0217220FEF714FE224807F0F1F814E046
:1016CC00022202216120FEF70BFE04223C21632042
:1016DC00FEF706FE00229F216620FEF701FE202267
:1016EC00E0217220FEF7FCFD00BF174B1B7D03F0C1
:1016FC000203DBB2002B17D1022202216120FEF77C
:10170C00EFFD11E0104B1B7D03F00203DBB2002B4D
:10171C0005D0002202216120FEF7E2FD04E0022246
:10172C0002216120FEF7DCFD002228210420FEF7B7
:10173C00D7FD00BF1037BD4680BD00BF789E0008A6
:10174C00A09E0008CC9E00089400002080B500AF3D
:10175C00002201210F20FEF7C3FD00223021612061
:10176C00FEF7BEFD00BF80BD80B584B000AF7860D1
:10177C00012201210F20FEF7B3FD7B681B785B0073
:10178C00DBB203F07C03FB73FB7B19469120FEF765
:10179C0073FD7B6801331B7819469220FEF76CFDB4
:1017AC007B6802331B7803F00F03DBB219469320DE
:1017BC00FEF762FD7B6802331B781B09DBB219460E
:1017CC009420FEF759FD7B6803331B78194698204B
:1017DC00FEF752FD7B6804331B7819469920FEF7FF
:1017EC004BFD002201210F20FEF77AFD00BF1037C0
:1017FC00BD4680BD80B584B000AF0346FB710B467F
:10180C00BB7113467B710023FB734F4B5B79BB732E
:10181C00BB79142B0AD0142B0DDC102B10D0122BEF
:10182C0009D1FB7B43F04003FB730AE0FB7B63F0C5
:10183C007F03FB7305E0FB7B63F03F03FB7300E06E
:10184C0000BF7B79002B08D0BB7B23F04003BB731C
:10185C00FB7B43F01103FB7325E0BB7B43F04003A0
:10186C00BB73FB79042B06D0042B13DC022B0CD09E
:10187C00032B05D00EE0FB7B43F00F03FB7312E050
:10188C00FB7B43F00703FB730DE0FB7B43F003038F
:10189C00FB7308E0BB7B23F04003BB73FB7B43F083
:1018AC000103FB7300BFBB7B43F00103BB73264AF0
:1018BC00FB7BD371002201210F20FEF711FDFB7B76
:1018CC0023F00F03DBB21946E020FEF7D5FCBB7BFF
:1018DC001946E120FEF7D0FCE421E220FEF7CCFC17
:1018EC007B79002B04D01021E320FEF7C5FC03E02C
:1018FC000021E320FEF7C0FC0021E420FEF7BCFC35
:10190C000021E520FEF7B8FC7B79002B17D0402294
:10191C0040215C20FEF7E4FC00237B730AE05F208F
:10192C00FEF799FC034603F02003002B06D17B7BCA
:10193C0001337B737B7B632BF1D900E000BF00BFCD
:10194C001037BD4680BD00BF9400002080B584B028
:10195C0000AF0346FB71002201210F20FEF7C0FCF3
:10196C004721E120FEF788FCE421E220FEF784FC0D
:10197C00FB79002B08D0D021E020FEF77DFC102154
:10198C00E320FEF779FC07E0C021E020FEF774FCB1
:10199C000021E320FEF770FC0821E420FEF76CFC2C
:1019AC000821E520FEF768FCFB79002B17D00023FB
:1019BC00FB730AE05F20FEF74EFC034603F02003A6
:1019CC00002B06D1FB7B0133FB73FB7B632BF1D923
:1019DC0000E000BFD121E020FEF74EFC03E0CF2158
:1019EC00E020FEF749FC5C20FEF735FC034623F0B3
:1019FC004003DBB219465C20FEF73EFCE020FEF70C
:101A0C002AFC03461A46034BDA7100BF1037BD4659
:101A1C0080BD00BF9400002080B500AF4121E120C3
:101A2C00FEF72AFCE421E220FEF726FCC021E02090
:101A3C00FEF722FC0021E320FEF71EFC0021E4202F
:101A4C00FEF71AFC0221E520FEF716FCCF21E02060
:101A5C00FEF712FC00BF80BD80B500AF084BFA2228
:101A6C001A70084B00221A70142214210420FEF75D
:101A7C0037FC102210210F20FEF732FC00BF80BD76
:101A8C00AC000020AD00002080B584B000AF3A60FF
:101A9C001A460346FB710B46BB7113467B71AA4B6E
:101AAC0024221A70A94B00221A70A94AFB69D36030
:101ABC00A74B0022DA71A64ABB7993751422142124
:101ACC000420FEF70DFC15215820FEF7D5FB002253
:101ADC0010210F20FEF704FCBB79002B47D0FB79BB
:101AEC00C02B04D181215820FEF7C6FB39E0FEF74C
:101AFC009FFC034603F00403002B32D0FB69954A8C
:101B0C00934209D86023BB7300237B7300233B7380
:101B1C00914806F0C5FE16E0FB69904A934209D83D
:101B2C004023BB7300237B7300233B738C4806F06C
:101B3C00B7FE08E00023BB7310237B7304233B73B5
:101B4C00884806F0ADFEBA7B7B7B1343DAB23B7B55
:101B5C001343DBB243F00103DBB219465820FEF706
:101B6C008BFB10221021E020FEF7BAFB0AE0E020EC
:101B7C00FEF771FB034623F01003DBB21946E0209D
:101B8C00FEF77AFBFB79A02B00F091803B68764A3C
:101B9C0093424BD03B68744A93424AD83B68734A91
:101BAC00934240D03B68714A934242D83B68704A9A
:101BBC0093422CD03B686E4A93423AD83B686D4AAC
:101BCC0093422DD03B686B4A934232D83B686A4AA9
:101BDC00934219D03B68684A93422AD83B684BF62B
:101BEC008032934219D03B684BF68032934220D816
:101BFC003B68B3F5FA4F0DD03B684AF6444293422A
:101C0C0017D10023FB731AE00823FB7317E00C2396
:101C1C00FB7314E00323FB7311E00223FB730EE050
:101C2C000A23FB730BE00E23FB7308E00923FB7301
:101C3C0005E04BF680333B600223FB7300BF444A44
:101C4C00FB7B1372424B1B7A184600F0EBF8BB6916
:101C5C00002B2CD1494B00221A70484B00225A7091
:101C6C007B790133DA0F13445B10DAB2434B9A7071
:101C7C00424B9B78002B03D1404B01229A7006E01B
:101C8C003E4B9B78042B02D93C4B04229A703B4A66
:101C9C00FB7BD370FB7BDB435BB21B015BB243F082
:101CAC000B035BB2DAB2354B1A71344BBB611022A9
:101CBC0014210420FEF714FBFB79C02B0CD0C02B95
:101CCC0000F38F80A02B38D0A02B00F38A80802BC0
:101CDC006ED0902B58D084E0294806F0E1FDBB690A
:101CEC001B7843F00203DAB2BB691A70BB6902338A
:101CFC0000221A70BB6903331A78BB69033322F0D4
:101D0C000F02D2B21A70BB6903331A78BB69033362
:101D1C0042F00902D2B21A70BB6904331A78BB695B
:101D2C00043342F06B02D2B21A70B869FFF71CFD93
:101D3C00BB791846FFF70AFE53E0124806F0B0FDD7
:101D4C00FFF76AFE4DE000BFAC000020AD000020A4
:101D5C00940000207FC3C901F89E0008FFB3C4049F
:101D6C001C9F0008409F000800B80B0000EE02000A
:101D7C0010B102000077010088580100B400002067
:101D8C00609F0008709F0008234806F089FDBB691E
:101D9C001B7843F00203DAB2BB691A70B869FFF71B
:101DAC00E3FCBB791A4618210120FFF723FD18E04C
:101DBC001A4806F075FDBB691B7823F00203DAB2F2
:101DCC00BB691A70B869FFF7CFFC7B790133DA0F66
:101DDC0013445B10DBB2BA7918211846FFF70AFDE1
:101DEC0000BF0920FEF737FA034603F07F03DBB28E
:101DFC0019460920FEF740FA094BDB791946E02019
:101E0C00FEF73AFA002214210420FEF769FA00BF0B
:101E1C001037BD4680BD00BF809F0008909F000812
:101E2C009400002080B58AB000AF0346FB71FF23FD
:101E3C0087F82330002387F822300023FB6000232F
:101E4C00BB61E520FEF707FA034603F00803DBB29B
:101E5C00002B02D00123FB7501E00023FB75FB79FD
:101E6C000E2B41D801A252F823F000BFBD1E000872
:101E7C00F51E0008C51E0008B51E0008F51E00085A
:101E8C00F51E0008F51E0008F51E0008CD1E000802
:101E9C00ED1E0008D51E0008F51E0008DD1E00080A
:101EAC00F51E0008E51E00084FF480537B621EE00F
:101EBC004FF4C4537B621AE04FF4C0537B6216E0BC
:101ECC004FF444537B6212E04FF440537B620EE0BC
:101EDC004FF4C4437B620AE04FF4C0437B6206E0DC
:101EEC004FF4C0437B6202E04FF4C0537B6201228B
:101EFC0001210F20FEF7F4F97B6ADBB2194633207F
:101F0C00FEF7BAF97B6A1B0ADBB219463420FEF7DE
:101F1C00B3F97B6A1B0CDBB203F00F03DBB219467F
:101F2C003520FEF7A9F9614B1B78002B52D000230A
:101F3C003B6148E01E2004F04BFA3720FEF78BF98A
:101F4C0003461B03FB603620FEF785F903461B0195
:101F5C00FA681343FB603520FEF77DF903461B0935
:101F6C0003F00F03FA681343FB60FB68002B29D0C6
:101F7C00BA69FB689A4204D9BA69FB68D31AFB6147
:101F8C0003E0FA68BB69D31AFB61FB68BB61FB69B0
:101F9C00042B0DD897F82230013387F822303A6998
:101FAC00FB6813443B6197F822301F2B0BD905E0DB
:101FBC00002387F8223000233B6104E03B695B0976
:101FCC00BB6107E000BF97F823305A1E87F8232027
:101FDC00002BAFD1BB69DBB219463020FEF74CF9B0
:101FEC00BB691B0ADBB219463120FEF745F9BB6908
:101FFC001B0CDBB203F00F03DBB219463220FEF7E9
:10200C003BF9002201210F20FEF76AF9C321F820C9
:10201C00FEF732F9A521F820FEF72EF9234B1B7899
:10202C00002B05D002220221C520FEF759F90AE047
:10203C00C520FEF710F9034623F00203DBB2194664
:10204C00C520FEF719F9FF21F820FEF715F9FB7DE5
:10205C00002B27D1012201210F20FEF741F9092382
:10206C00FB71FB7919469820FEF706F9FB79DB43E7
:10207C00FB719920FEF7EFF8034603F00F03FB7298
:10208C0097F907301B015AB297F90B3013435BB227
:10209C00DBB219469920FEF7EFF8002201210F2040
:1020AC00FEF71EF900BF2837BD4680BDAE000020EC
:1020BC0080B582B000AF03463960FB71FB79002B11
:1020CC0005D10021D220FEF7D7F8012308E03868AB
:1020DC0000F022F90346002B01D1012300E000237C
:1020EC0018460837BD4680BD80B582B000AF0346A8
:1020FC003960FB71FB79002B05D10021CD20FEF757
:10210C00BBF8012308E0386800F026F80346002BE2
:10211C0001D1012300E0002318460837BD4680BDDD
:10212C0080B582B000AF03463960FB71FB79002BA0
:10213C0005D10021CE20FEF79FF8012308E0386876
:10214C0000F08FF80346002B01D1012300E000239F
:10215C0018460837BD4680BD80B584B000AF7860A6
:10216C007B68002B01D1012377E0012201210F2094
:10217C00FEF7B6F87B681B7919465820FEF77CF8F9
:10218C007B685B7919465920FEF776F87B689B795A
:10219C0019465A20FEF770F87B68DB7919465B20EC
:1021AC00FEF76AF87B681B7A19465C20FEF764F828
:1021BC007B685B7A19465E20FEF75EF87B689B7A3B
:1021CC0019465F20FEF758F87B68DB7A19466020C9
:1021DC00FEF752F87B681B7B19466120FEF74CF822
:1021EC007B685B7B19466220FEF746F87B689B7B1D
:1021FC0019466320FEF740F87B68DB7B19466420A8
:10220C00FEF73AF87B681B7C19466520FEF734F81C
:10221C000023FB600023FB720AE07A68FB6813441E
:10222C0004331B78FA7AD31AFB72FB680133FB6018
:10223C00FB680C2BF1DDFB7A6F33FB72FB7A1946D2
:10224C005D20FEF719F8002201210F20FEF748F857
:10225C000321CD20FEF710F8002318461037BD4699
:10226C0080BD80B584B000AF78607B68002B01D155
:10227C0001234DE0012201210F20FEF731F87123DB
:10228C00FB737B681B7919466820FDF7F5FF682006
:10229C00FDF7E1FF03461A46FB7B9B1AFB737B6839
:1022AC005B7919466920FDF7E7FF6920FDF7D3FF3D
:1022BC0003461A46FB7B9B1AFB737B68DB7919463A
:1022CC006B20FDF7D9FF6B20FDF7C5FF03461A46BF
:1022DC00FB7B9B1AFB737B681B7A19466C20FDF702
:1022EC00CBFF6C20FDF7B7FF03461A46FB7B9B1A0E
:1022FC00FB73FB7B19466D20FDF7BEFF002201210D
:10230C000F20FDF7EDFF0321CE20FDF7B5FF0023D5
:10231C0018461037BD4680BD80B584B000AF7860DC
:10232C000023FB737B68002B01D1012348E00122C1
:10233C0001210F20FDF7D4FF7B68DB791946802043
:10234C00FDF79AFF7B681B7A19468120FDF794FFF5
:10235C007B68DB79FA7BD31AFB737B681B7AFA7B7D
:10236C00D31AFB737B681B7A5BB2002B0EDA7B688B
:10237C005B7AFA7BD31AFB737B685B7A19468220F3
:10238C00FDF77AFFFB7B6933FB7306E000218220AB
:10239C00FDF772FFFB7B6A33FB737B68FA7BDA70A9
:1023AC007B68DB7819468320FDF766FF002201214C
:1023BC000F20FDF795FF0321D220FDF75DFF0023D1
:1023CC0018461037BD4680BD80B584B000AF634859
:1023DC0006F0FEF90023BB6012E0B968604806F015
:1023EC00F7F9BB68032B05D0BB68072B02D0BB6881
:1023FC000B2B02D15B4806F0EBF9BB680133BB60D9
:10240C00BB680F2BE9DD584806F04AFA002201217F
:10241C000F20FDF765FF0023FB6046E0F968534889
:10242C0006F0D6F90023BB6029E0FA68BB681344B8
:10243C00172B10D0FB68DAB2BB68DBB21344DBB2EB
:10244C001846FDF708FF0346FB71FB791946444813
:10245C0006F0BEF904E0FB791946454806F0B8F9D8
:10246C00BB68032B05D0BB68072B02D0BB680B2BBA
:10247C0002D1404806F0ACF9BB680133BB60BB68C5
:10248C000F2BD2DD3C4806F00BFAFB685A4203F0E6
:10249C003F0302F03F0258BF5342302B02D1374862
:1024AC0006F0FEF9FB681033FB60FB68FF2BB5DD13
:1024BC00012201210F20FDF713FF4FF49873FB60ED
:1024CC003BE0F968294806F083F90023BB601EE065
:1024DC00FB68DAB2BB68DBB21344DBB21846FDF71B
:1024EC00BAFE0346FB71FB7919461D4806F070F9DC
:1024FC00BB68032B05D0BB68072B02D0BB680B2B2A
:10250C0002D11C4806F064F9BB680133BB60BB68A0
:10251C000F2BDDDD184806F0C3F9FB685A4203F0B7
:10252C003F0302F03F0258BF5342202B02D1144804
:10253C0006F0B6F9FB681033FB60FB68B3F5007F5F
:10254C00BFDB0F4806F0ACF9002201210F20FDF78C
:10255C00C7FE00BF1037BD4680BD00BF10A00008ED
:10256C0018A0000820A0000824A0000868A00008FB
:10257C0070A0000874A0000878A000087CA00008D7
:10258C00BCA0000880B582B000AF0346FB71FB799C
:10259C00002B08D000F00CFC0346012B0AD100F0F4
:1025AC003AF8002307E0064A137D23F00103137564
:1025BC0000F031F8012318460837BD4680BD00BF36
:1025CC009400002080B400AF044B1B7DC3F30003C8
:1025DC00DBB21846BD4680BC704700BF940000209B
:1025EC0080B500AF002207210A20FDF779FE1C21DF
:1025FC000C20FDF741FE00210D20FDF73DFE0122D0
:10260C0001210E20FDF76CFE002201210E20FDF7AA
:10261C0067FE00BF80BD80B500AF00212220FDF712
:10262C002BFE00212020FDF727FE01220121042092
:10263C00FDF756FE01211020FDF71EFEFFF7D0FF1F
:10264C00FEF740FB00BF80BD80B500AF002110201D
:10265C00FDF712FE01212120FDF70EFE00BF80BD0B
:10266C0080B500AF01211F20FDF706FE012003F00D
:10267C00AFFE00BF80BD80B500AF00211F20FDF76D
:10268C00FBFD00BF80BD80B584B000AF0023FB73A1
:10269C00FFF7E6FFFFF7EFFF002201210F20FDF708
:1026AC001FFE3B1D082219463020FDF7FFFD0023BD
:1026BC00FB730EE0FB7B2833DAB2FB7B10333B441D
:1026CC0013F80C3C19461046FDF7D6FDFB7B013385
:1026DC00FB73FB7B072BEDD900BF00BF1037BD464A
:1026EC0080BD000080B584B000AF786039600022F6
:1026FC0001210F20FDF7F4FD01211020FDF7BCFD99
:10270C0074211120FDF7B8FD40211220FDF7B4FD16
:10271C0003211320FDF7B0FD00211520FDF7ACFDC2
:10272C00C823FB731DE0012003F052FE1620FDF7B9
:10273C0092FD0346BB7397F90E30002B15DBBB7B68
:10274C0003F03803002B09D01620FDF784FD034657
:10275C0019461D4806F03CF8012330E0FB7B013B99
:10276C00FB73FB7B002BDED100E000BFFB7B002B5F
:10277C0001D1012323E04520FDF76DFD0346BB731A
:10278C00BB7B9AB23B681A803B681B881B029AB2CF
:10279C003B681A804420FDF75EFD0346BB733B6823
:1027AC001A88BB7B9BB213439AB23B681A804320B6
:1027BC00FDF751FD03461A467B681A700023184634
:1027CC001037BD4680BD00BFFCA0000880B584B0AA
:1027DC0000AF7860002201210F20FDF781FD01215F
:1027EC001020FDF749FD74211120FDF745FD002156
:1027FC001220FDF741FD05211320FDF73DFD0021C1
:10280C001520FDF739FDC823FB731EE0012003F0F2
:10281C00DFFD1620FDF71FFD0346BB7397F90E3045
:10282C00002B03DA124806F03BF811E0BB7B03F0F7
:10283C003803002B06D0BB7B19460E4805F0C8FFA9
:10284C00012310E0FB7B013BFB73FB7B002BDDD1F9
:10285C00FB7B002B01D1012305E0052279683B208D
:10286C00FDF724FD002318461037BD4680BD00BF80
:10287C0030A1000854A1000880B485B000AF034615
:10288C00FB710023FB730023BB730DE0FA79FB7B18
:10289C0042FA03F303F00103002B02D0BB7B01339C
:1028AC00BB73FB7B0133FB73FB7B072BEED9BB7B31
:1028BC0018461437BD4680BC704780B582B000AF57
:1028CC000420FDF7C8FC034643F00103FB71FB79C0
:1028DC0019460420FDF7D0FC00212020FDF7CCFC8C
:1028EC0000212220FDF7C8FC01211020FDF7C4FCBB
:1028FC00FEF7D0F9FEF7E6F900BF0837BD4680BDFC
:10290C0080B500AF084805F063FF01211020FDF7EA
:10291C00B3FCFEF7D7F903212220FDF7ADFCFFF73E
:10292C005FFE00BF80BD00BFB0A1000880B500AF46
:10293C0001212220FDF7A0FC00211020FDF79CFCBA
:10294C0000BF80BD80B586B000AFF8607A603B6098
:10295C000B467B8100237B610BE07B697A68134417
:10296C001978454A7B6913440A461A707B6901330E
:10297C007B613A6813469B0013447A699A42ECDBFC
:10298C007B695A1C7A617A89D1B23B4AD1547B89D2
:10299C001B0A99B27B695A1C7A61C9B2364AD15466
:1029AC0000233B610EE03B69FA6813441978324A04
:1029BC007B6913440A461A703B6901333B617B699E
:1029CC0001337B613B69072BEDDD7B693B6107E0E4
:1029DC00294A7B69134400221A707B6901337B619D
:1029EC007B693F2BF4DD3B699BB2244A1946224894
:1029FC0003F0FEF900237B6136E0204A7B69134427
:102A0C001A787B69396A0B441B789A4229D01C4886
:102A1C0005F0DEFE00237B610AE0184A7B69134453
:102A2C001B781946174805F0D3FE7B6901337B618F
:102A3C007B69132BF1DD144805F0CAFE00237B6182
:102A4C000AE07B693A6A13441B7819460D4805F075
:102A5C00BFFE7B6901337B617B69132BF1DD0123A5
:102A6C0006E07B6901337B617B69132BC5DD002399
:102A7C0018461837BD4680BDBC000020FC00002065
:102A8C00D8A10008E0A10008E8A1000890B585B025
:102A9C0000AF78600B46FB706423FB73FB78002B54
:102AAC0001D1002363E07B68002B01D101235EE0A0
:102ABC0001211020FDF7E0FB74211120FDF7DCFB58
:102ACC0043211220FDF7D8FBFB781A4692001344E1
:102ADC00DBB219461320FDF7CFFB00211520FDF7C3
:102AEC00CBFBC823FB731EE01620FDF7B4FB03469B
:102AFC00BB7397F90E30002B03DA1F4805F0D0FE9C
:102B0C0014E0BB7B03F03803002B06D0BB7B1946CB
:102B1C001A4805F05DFE012329E0052003F058FC5E
:102B2C00FB7B013BFB73FB7B002BDDD1FB7B002B89
:102B3C0001D101231BE0124805F04AFE0023FB7370
:102B4C000AE0FB7B7A68D4181720FDF784FB034658
:102B5C002370FB7B0133FB73F97BFA7813469B00E4
:102B6C0013449942EDDB074805F09AFE0023184602
:102B7C001437BD4690BD00BFF4A100081CA200088C
:102B8C005CA200087CA2000890B585B000AF78600C
:102B9C007B68002B01D101237CE001211020FDF783
:102BAC006BFB74211120FDF767FB20211220FDF730
:102BBC0063FB14211320FDF75FFB00211520FDF7AB
:102BCC005BFBC823FB731EE01620FDF744FB03469A
:102BDC00BB7397F90E30002B03DA304805F060FE1A
:102BEC0014E0BB7B03F03803002B06D0BB7B1946EB
:102BFC002B4805F0EDFD01234CE0052003F0E8FB2C
:102C0C00FB7B013BFB73FB7B002BDDD1FB7B002BA8
:102C1C0004D1244805F044FE01233BE000220121AD
:102C2C000F20FDF75DFB0023FB732FE0FB7B1946A8
:102C3C005020FDF721FBFB7B9B001A467B689C1800
:102C4C005120FDF708FB03462370FB7B9B000133EF
:102C5C007A68D4185220FDF7FEFA03462370FB7BEA
:102C6C009B0002337A68D4185320FDF7F4FA03461C
:102C7C002370FB7B9B0003337A68D4185420FDF738
:102C8C00EAFA03462370FB7B0133FB73FB7B042BBB
:102C9C00CCD9002318461437BD4690BD80A200083D
:102CAC00A0A20008DCA2000890B585B000AF786047
:102CBC007B68002B01D1012363E005215020FDF737
:102CCC00DBFA5120FDF7C7FA03461A467B681A70E7
:102CDC007B685C1C5220FDF7BEFA034623707B68B0
:102CEC009C1C5320FDF7B7FA034623707B68DC1C51
:102CFC005420FDF7B0FA0346237000215020FDF755
:102D0C00BBFA7B681C1D5520FDF7A5FA0346237002
:102D1C0001215020FDF7B0FA7B685C1D5520FDF7B2
:102D2C009AFA0346237002215020FDF7A5FA7B681E
:102D3C009C1D5520FDF78FFA03462370032150206C
:102D4C00FDF79AFA7B68DC1D5520FDF784FA0346E3
:102D5C0023700E4805F03CFD0023FB600AE0FB6885
:102D6C007A6813441B781946094805F031FDFB6855
:102D7C000133FB60FB68072BF1DD064805F090FD85
:102D8C00002318461437BD4690BD00BF08A30008A9
:102D9C0010A300087CA2000880B500AF0120FDF74D
:102DAC0091FD00F005F80020FDF78CFD00BF80BD03
:102DBC0090B587B002AF904A137D23F001031375D1
:102DCC000E20FDF748FA034603F01003DBB2002B8C
:102DDC0004D18A4805F064FD012308E1884805F018
:102DEC005FFDFFF76AFD002201210F20FDF778FA45
:102DFC000023BB8128E00F2003F0EAFA07F1080258
:102E0C0007F10B0311461846FFF76CFC0346002B29
:102E1C0004D07C4805F044FD0123E8E0C020FDF718
:102E2C001AFA034603F00103012B05D13B8903F485
:102E3C008053002B05D00CE03B8903F48053002B0E
:102E4C0006D0BB890133BB81BB894F2BD3D900E0A2
:102E5C0000BFFB7A19463B891A466B4805F0B8FC53
:102E6C003B461846FFF7B2FC3B7819467B78184670
:102E7C00BB781C46FB783A790192009323460246B4
:102E8C00624805F0A5FC0023BB810023FB730FE017
:102E9C00BB8910333B4413F8103C1846FFF7ECFC8D
:102EAC0003461A46FB7B1344FB73BB890133BB817E
:102EBC00BB89042BECD9FB7B142B04D0544805F0B4
:102ECC00EFFC012393E03B79932B10D1FB78432B40
:102EDC000DD1BB785C2B0AD17B78DE2B07D13B78EC
:102EEC00232B04D14B4805F0DBFC01237FE00022AF
:102EFC0001210F20FDF7F4F90420FDF7ACF903468E
:102F0C0023F00103DBB219460420FDF7B5F90921C2
:102F1C002020FDF7B1F9FFF763FBFFF7B4FB0021AD
:102F2C002220FDF7A9F9344A137D23F00103137510
:102F3C00FDF7B0FE0020FDF7C5FCFB7A03F0400363
:102F4C00002B51D1FFF780FBFA23BB813AE005201F
:102F5C0003F03EFA4620FDF77EF90346FB7397F922
:102F6C000F30002B05DA244A137D43F0010313754F
:102F7C002BE00720FDF76FF90346FB73FB7B03F097
:102F8C000103002B1BD004210C20FDF775F9002147
:102F9C000D20FDF771F9012201210E20FDF7A0F99A
:102FAC00002201210E20FDF79BF91B4805F078FC4F
:102FBC00114A137D23F001031375012317E0BB891C
:102FCC00013BBB81BB89002BC1D1BB89002B09D133
:102FDC00124805F065FC084A137D23F001031375B4
:102FEC00012304E0002302E000F01AF8034618461F
:102FFC001437BD4690BD00BF9400002018A30008F4
:10300C0050A3000870A300088CA30008ACA3000810
:10301C00CCA30008DCA30008ECA3000824A400083F
:10302C0080B586B002AF954805F03AFCBA1D07F1A1
:10303C00090311461846FFF755FB022003F0C8F9A7
:10304C000620FDF708F9034603F00303DBB2002B5F
:10305C0003D08B4805F024FC08E1FFF7F5FA0023B8
:10306C00FB730FE00620FDF7F6F8034603F00303AD
:10307C00DBB2002B40F0F1800A2003F0A9F9FB7BB6
:10308C000133FB73FB7B362BECD90A23BB814EE05F
:10309C00BB8919467B4805F09BFB0620FDF7DBF846
:1030AC00034603F00303DBB2002B03D0764805F094
:1030BC00F7FBDBE00620FDF7CEF80346FB72FB7A4C
:1030CC0003F00403002B03D0704805F0E9FBCDE0BE
:1030DC000720FDF7C0F80346FB72FB7A03F00103EF
:1030EC00002B03D06A4805F0DBFBBFE0FB7A03F052
:1030FC000403002B15D010210C20FDF7BDF8002186
:10310C000D20FDF7B9F8012201210E20FDF7E8F89A
:10311C00002201210E20FDF7E3F85E4805F0C0FB0C
:10312C0008E0052003F054F9BB89013BBB81BB8946
:10313C00002BADD1BB89002B03D1574805F0B0FB58
:10314C0094E04FF4FA73BB812EE0BB8919465348C7
:10315C0005F03EFB0620FDF77EF8034603F0030363
:10316C00DBB2002B03D04E4805F09AFB7EE0BA1D73
:10317C0007F1090311461846FFF7B4FA0346012B71
:10318C0003D1484805F08CFB70E07B7A03F02003F8
:10319C00002B03D0444805F083FB08E0052003F026
:1031AC0017F9BB89013BBB81BB89002BCDD1BB89F6
:1031BC00002B03D13D4805F073FB57E0BB89194642
:1031CC003B4805F005FBFDF765FDFDF76FFDFB8842
:1031DC00DBB203F07F03BB72BB7A062B04D8FB88EF
:1031EC0003F40863002B03D0324805F059FB3DE093
:1031FC00BB7A19463048FFF749FC0346012B2ED009
:10320C002E48FFF7C1FC0346012B2AD02C48FFF7B0
:10321C004BFD0346012B26D0F988BB7A274A009236
:10322C00254A2748FFF78EFB0346012B1DD00620AD
:10323C00FDF711F8034603F00303DBB2002B03D0B8
:10324C00204805F02DFB11E0FFF770FB1E4A137DA3
:10325C0043F00103137500230BE000BF06E000BF31
:10326C0004E000BF02E000BF00E000BFFFF748FB36
:10327C00012318461037BD4680BD00BF60A400086E
:10328C0080A4000898A40008B4A40008C8A40008EE
:10329C00D8A4000814A500082CA500085CA50008FB
:1032AC007CA5000894A50008A4A50008B0A50008FA
:1032BC00CCA50008E0A5000810010020300100207A
:1032CC004401002000A600089400002080B582B0C4
:1032DC0000AF002201210F20FDF702F86020FCF75F
:1032EC00BAFF03463B607020FCF7B5FF034603F0C2
:1032FC002003002B04D0094B1B699B087B6003E067
:10330C00064B1B695B087B607A683B6892FBF3F3A6
:10331C007B607B6818460837BD4680BD9400002052
:10332C0080B586B000AF002201210F20FCF7D8FF3A
:10333C005F20FCF790FF034623F07F03FB71FB79C2
:10334C00002B01D1002397E08022F021D720FCF73D
:10335C00C7FF012003F03CF800228021D720FCF7A6
:10336C00BFFFD720FCF777FF034603F00F033B604A
:10337C003B681B023B60D820FCF76DFF03461A46E6
:10338C003B6813433B600723FB750BE0FB7DC3F1EC
:10339C000B03012202FA03F33A689A4206DBFB7D27
:1033AC00013BFB75FB7D002BF0D100E000BFFB7DEA
:1033BC001B01DBB21A467021D720FCF791FFD720F6
:1033CC00FCF749FF034603F07F03FB7100233B61CD
:1033DC000023FB6028E0FB7963F07F03DBB2194626
:1033EC00D720FCF749FF012002F0F2FFFB791946C8
:1033FC00D720FCF741FFD720FCF72DFF034603F045
:10340C000F033B603B681B023B60D820FCF723FF9B
:10341C0003461A463B6813433B60FA683B68134407
:10342C00FB603B6901333B613B69632BD3DDFB687C
:10343C00134A82FB03125211DB17D31AFB60FB6891
:10344C003B60104B1B69DA013B68B2FBF3F31B01C9
:10345C00BB60FB7DBA6802FA03F3BB607020FCF71B
:10346C00FAFE034603F01003002B04D0BB68DA0FFE
:10347C0013445B10BB60BB6818461837BD4680BD53
:10348C001F85EB519400002090B585B000AF002251
:10349C0008210F20FCF724FF0023BB600023FB60F6
:1034AC002CE001210920FCF7ABFE642002F090FF18
:1034BC0000210920FCF7A4FE4720FCF7BBFE0346C5
:1034CC007B607B681B027B604620FCF7B3FE0346E7
:1034DC001A467B6813437B607B681B027B6045202C
:1034EC00FCF7A8FE03461A467B6813437B60BA6858
:1034FC007B681344BB60FB680133FB60FB68042BE7
:10350C00CFDD082208210F20FCF7EAFEBB685B0127
:10351C007B605D20FCF79FFE03469B10DBB203F043
:10352C000103FB70FB78002B02D07B685B107B6087
:10353C007B68174A82FB03129214DB17D01A7A6845
:10354C00134B83FB02139914D317CB1A114901FBAC
:10355C0003F3D31A104A82FB03129211DB17D41A0D
:10356C007B680D4A82FB03129111DA178A1A4FF409
:10357C007A7101FB02F29A1A134622460146074859
:10358C0005F026F97B6818461437BD4690BD00BF80
:10359C0083DE1B4340420F00D34D621010A600087F
:1035AC0080B582B000AF002201210F20FCF798FEFD
:1035BC0008220821A820FCF793FEB220FCF74BFE52
:1035CC000346FB71FB799BB21B039BB203F4805344
:1035DC00BB809120FCF73FFE0346FB71FB791BB2CD
:1035EC001B011AB2B7F9043013431BB2BB809020F5
:1035FC00FCF731FE0346FB71FB791B09DBB21A4663
:10360C00BB881343BB8000220821A820FCF768FE6E
:10361C00BB8818460837BD4680BD80B582B000AF68
:10362C00002201210F20FCF75BFE08220821A820B4
:10363C00FCF756FE9920FCF70EFE0346FB71FB7956
:10364C009BB21B029BB203F47063BB809820FCF707
:10365C0002FE0346FB71FB799AB2BB881343BB8015
:10366C0000220821A820FCF73BFEBB88184608372F
:10367C00BD4680BD80B582B000AF002201210F2075
:10368C00FCF72EFE08220821A820FCF729FEA52015
:10369C00FCF7E1FD0346FB7100220821A820FCF792
:1036AC001FFEFB791B11DBB203F00103DBB21846E2
:1036BC000837BD4680BD000080B500AF0648FCF75A
:1036CC00C1FE064B00221A70054B01221A70054BE5
:1036DC0000221A7000BF80BD20AF00080702002036
:1036EC00080200200902002090B587B002AF4C4BB5
:1036FC001B7801331A464B4B1B6802FB03F3BB6070
:10370C00FCF796FE0346FB71FCF788FE0346BB7183
:10371C00FEF7A2F90020FEF735FFBB68424A934240
:10372C0009D9BB79212B03D1404805F0B9F873E0D6
:10373C000223FB7308E0BB683D4A934202D9012384
:10374C00FB7301E00023FB73FB791846FDF78CFB40
:10375C00FB7903F00203002B06D0364B1B78FA7969
:10376C0011461846FDF790FBF97B334B1B78184636
:10377C00324B1B781C46324B1B781A462D4B1B7850
:10378C0001930092234602462E4805F021F82C4B5B
:10379C001B781946274B1B781A462B4805F018F84E
:1037AC00254B1978254B1A78254B1B78F87BFDF7A0
:1037BC00F9FA234B1B78002B15D0244B1B78002BCC
:1037CC0002D001F059FB03E000210020FEF770FC51
:1037DC00184B1B78124A12781146184601F09CFAC5
:1037EC0000F03AF807E000210020FEF77DFC0021F4
:1037FC000020FEF75DFC164B1B78DBB2002B03D1CF
:10380C000020FDF75FF802E00120FDF75BF8114B9B
:10381C0000221A70FEF7D8FD1437BD4690BD00BFCC
:10382C0002020020FC0100200095BA0A7CA60008C8
:10383C0000B4C4040002002000000020020000209C
:10384C0005020020A8A60008F0A60008010200202E
:10385C004D0100207801002090B583B002AF114BD0
:10386C001B78002B19D001F0D3FA0F4B18780F4BA3
:10387C001A680F4B19780F4B1B7801331C460E4BF3
:10388C001B6804FB03F30193002300930B460021F8
:10389C00FEF7FAF8094B00221A7000BF0437BD4638
:1038AC0090BD00BF0602002009000020040000208B
:1038BC000800002002020020FC01002079010020F9
:1038CC0080B500AF002203210F20FCF709FD6F210A
:1038DC000C20FCF7D1FC00210C20FCF7CDFC00BF28
:1038EC0080BD000080B584B000AFA44AA449A548AF
:1038FC00FCF71EFE0E20FCF7AEFC0346BB72A24B7F
:10390C001B78002B0ED19F4B1B78002B0AD1BB7A56
:10391C0003F04003002B05D09A4B01221A70984BF0
:10392C0001221A7002F04AFD03467B60944B1B780F
:10393C00002B42D0934B1B78002B3ED1934B1B6832
:10394C007A68D31A092B03D88D4B00221A7081E1A7
:10395C008E4A7B68136079688D4804F039FF01202A
:10396C00FCF7B0FFFDF7FCF9FFF7AAFFFCF7A0FF8F
:10397C00884B00221A70884B00221A70874B002249
:10398C001A70874B00221A70864B01221A70864BD4
:10399C0000221A70854B00221A70854B00221A7077
:1039AC00844A7B681360784B00221A70824B002289
:1039BC001A60734B00221A704CE1714B1B78002B70
:1039CC0021D0704B1B78012B1DD1704B1B687A6872
:1039DC00D31A092B03D86A4B00221A703AE16B4AAE
:1039EC007B6813607968754804F0F2FE0120FCF7DF
:1039FC0069FF654B01221A706F4A7B681360604B3C
:103A0C0000221A7026E15F4B1B78002B00F014810A
:103A1C005D4B1B78012B10D1674B1B687A68D31A4E
:103A2C004F2B40F21481634B1B687A68D31AF92B25
:103A3C0040F20F81544B02221A70534B1B78022B0D
:103A4C0040F0C4800023FB600120FCF73BFFFCF737
:103A5C0025FF3D210420FCF70FFC022002F0B8FCEE
:103A6C0000210420FCF708FCFFF72AFF4D4B012234
:103A7C001A704C4B1B7823F00303DAB2494B1A70C3
:103A8C00484B1A78474B1A70474B00221A70474B19
:103A9C0000221A70464B00221A700023FB721AE0A7
:103AAC0001F018FA464B93F8263003F00203DBB210
:103ABC00002B07D1424B93F8263003F00103DBB205
:103ACC00002B02D00123FB6008E00A2002F080FCEE
:103ADC00FB7A0133FB72FB7A022BE1D9FB68002BDA
:103AEC0017D0374B93F8263003F00203DBB2002BD0
:103AFC000FD02D4B01221A70314B1B7803F0400371
:103B0C00002B02D0294B01221A70294B00221A706B
:103B1C000BE0254B00221A70244B00221A70244B08
:103B2C0000221A700020FEF72DFD1D4B00221A708A
:103B3C00FFF7DAFD174B00221A70174B00221A7090
:103B4C00194B1B78002B12D01E4B1B781E4A127877
:103B5C001146184601F0E0F8142002F039FC194B1C
:103B6C001B78194A12781146184601F0D5F8002036
:103B7C00FCF7A8FE044B03221A706BE0090200202C
:103B8C0008020020070200200A0200200C0200207C
:103B9C0070A7000878010020790100204C0100205A
:103BAC004D0100200200002005020020060200202A
:103BBC0001000020100200201402002084A700083D
:103BCC00500100200002002002020020234B1B7831
:103BDC00032B3FD1224B1B78002B06D000F0F4FABC
:103BEC0000F046F81E4B00221A701E4B1B78002B5F
:103BFC0004D0FFF779FD1B4B00221A70FCF77EFCFA
:103C0C000346002B11D0FEF7DDFC0346002B0CD134
:103C1C000120FEF7B7FC0346012B03D10020FCF773
:103C2C0051FE02E00120FCF74DFE0F4B1B78002BE0
:103C3C0010D0FFF711FE0DE0084B1B78002B09D0BC
:103C4C00064B00221A70094B00221A6002E000BFDA
:103C5C0000E000BF1037BD4680BD00BF0A02002047
:103C6C0009020020780100207901002014020020B4
:103C7C0080B584B002AF354B1B78002B03D1344B8D
:103C8C0000221A605DE0FFF721FB78607B68314A07
:103C9C00934203DD304B314A1A602FE07B68304A87
:103CAC00934203DD2C4B2F4A1A6027E07B682E4A87
:103CBC00934203DD284B2D4A1A601FE07B682C4A87
:103CCC00934203DD244B2B4A1A6017E07B684AF6BB
:103CDC00C872934204DD204B4BF680321A600DE023
:103CEC007B6848F6A042934204DD1B4B4AF64442E3
:103CFC001A6003E0184B4FF4FA421A601E4B1B7803
:103D0C00002B1AD1144B1A68114B1B689A4214D011
:103D1C00114B1B68104A12681946184804F058FDDC
:103D2C0001F076F80C4B1A680023019300230093E2
:103D3C00082300218020FDF7A7FE074B1B68044ACF
:103D4C00136000BF0837BD4680BD00BF06020020CF
:103D5C001802002060DE02000400002000EE0200C9
:103D6C008032020010B10200486B010000770100A4
:103D7C0080380100885801007801002098A70008BD
:103D8C00F0B58FB002AFF860084611461A460346EC
:103D9C007B810B463B811346FB7107F11403002218
:103DAC001A605A609A60DA6000233B610023FB6260
:103DBC005AE1B549FA6A1346DB009B1A9B000B4487
:103DCC001B78002B00F05581002387F82B30AE496F
:103DDC00FA6A1346DB009B1A9B000B441833DB7802
:103DEC00C3F30003DBB21A46FB79934240F0F9802F
:103DFC0097F82B30013387F82B30FB79002B3CD113
:103E0C003B895B0899B2A048FA6A1346DB009B1AFF
:103E1C009B00034408331B88994213D93B895B08E8
:103E2C009BB218469849FA6A1346DB009B1A9B0012
:103E3C000B4408331B88C31A092BD4BF012300235E
:103E4C00DBB212E09049FA6A1346DB009B1A9B0026
:103E5C000B4408331B881A463B895B089BB2D31A68
:103E6C00092BD4BF01230023DBB2002B3AD097F8E7
:103E7C002B30013387F82B3034E08349FA6A134630
:103E8C00DB009B1A9B000B4408331B883A899A422F
:103E9C0010D939897C48FA6A1346DB009B1A9B00BF
:103EAC00034408331B88CB1A092BD4BF01230023EE
:103EBC00DBB210E07449FA6A1346DB009B1A9B00D4
:103ECC000B4408331B881A463B89D31A092BD4BFE1
:103EDC0001230023DBB2002B04D097F82B300133E5
:103EEC0087F82B3097F82B30022B7AD16649FA6A77
:103EFC001346DB009B1A9B000B4406331B887A8904
:103F0C009A4210D979896048FA6A1346DB009B1AE9
:103F1C009B00034406331B88CB1A272BD4BF0123E9
:103F2C000023DBB210E05849FA6A1346DB009B1AF7
:103F3C009B000B4406331B881A467B89D31A272B0C
:103F4C00D4BF01230023DBB2002B4AD097F82B30CF
:103F5C00013387F82B304C49FA6A1346DB009B1A65
:103F6C009B000B440C331B68FA689A420BD94649E8
:103F7C00FA6A1346DB009B1A9B000B440C331B683C
:103F8C00FA68D31A0AE04049FA6A1346DB009B1A16
:103F9C009B000B440C331A68FB68D31A7B627A6A59
:103FAC0013469B0013445B0018463749FA6A1346C4
:103FBC00DB009B1A9B000B440C331B68B0FBF3F229
:103FCC0013469B0013445B007B627B6A632B08D80F
:103FDC007B6ADBB297F82B20D31ADBB2643387F8F9
:103FEC002B3097F82B301A46F96A284804F0F0FB6E
:103FFC0097F82B30002B34D0002387F82A302CE094
:10400C0097F82A3030333B4413F8203C97F82B2098
:10401C009A421DD997F82A1097F82A309B00303312
:10402C003B4453F81C2CFB6A194804F0D1FB97F85D
:10403C002A3030333B4497F82B2003F8202C97F888
:10404C002A309B0030333B44FA6A43F81C2C08E0BE
:10405C0097F82A30013387F82A3097F82A30032B47
:10406C00CED9FB6A0133FB62FB6A842B7FF6A1AECF
:10407C0000E000BF4FF0FF33FB62002387F82B30CA
:10408C00002387F82A3036E038AF0008BCA70008B8
:10409C00D0A7000897F82A1097F82A309B003033E5
:1040AC003B4453F81C2C97F82A3030333B4413F81C
:1040BC00203C3E4804F08CFB97F82A3030333B44CC
:1040CC0013F8203C97F82B209A420FD297F82A30FD
:1040DC0030333B4413F8203C87F82B3097F82A30C8
:1040EC009B0030333B4453F81C3CFB6297F82A305E
:1040FC00013387F82A3097F82A30032BCAD997F85E
:10410C002B30022B46D997F82B301A46F96A2848DF
:10411C0004F05EFB2749FA6A1346DB009B1A9B00EE
:10412C000B441B781C462349FA6A1346DB009B1A86
:10413C009B000B4402331B881D461E49FA6A13462A
:10414C00DB009B1A9B000B4404331B881E46194949
:10415C00FA6A1346DB009B1A9B000B440C3319685C
:10416C001448FA6A1346DB009B1A9B00034418336D
:10417C00DB78C3F30003DBB2002B01D00E4B00E065
:10418C000E4B0193009133462A4621460C4804F00D
:10419C001FFB05E04FF0FF33FB620A4804F080FB85
:1041AC00FB6A18463437BD46F0BD00BFF0A70008C7
:1041BC00BCA7000838AF000808A800080CA8000825
:1041CC0010A8000834A8000880B588B002AFFCF72E
:1041DC002FF90346FB75FFF7A3F803463B61FFF786
:1041EC00DFF90346FB81FFF718FA0346BB81FFF7A3
:1041FC0041FA0346002B0CBF01230023DBB2FB72F8
:10420C00874B1B683A699A4204D9854B1B683A69FB
:10421C00D31A03E0824B1A683B69D31A7B60FA8984
:10422C00B9897B6800930B4639697E4804F0D0FA53
:10423C00FB89002B05D0BB89002B02D03B69002BDE
:10424C0003D1794B00221A70E7E03B69774AA2FB55
:10425C0003231B097A689A4203D9734B01221A7003
:10426C002BE0734B1B88FA899A4204D9FB89704A5C
:10427C0012889B1A04E06E4B1B881A46FB89D31AD2
:10428C007B607B68142B02D9674B01221A70694B37
:10429C001B88BA899A4204D9BB89664A12889B1A30
:1042AC0004E0644B1B881A46BB89D31A7B607B687D
:1042BC00142B02D95C4B01221A705B4B1B78002B20
:1042CC0000F09F80564B1B683A6919465A4804F017
:1042DC007FFA574B1B881946FB891A46574804F03E
:1042EC0077FA544B1B881946BB891A46544804F07C
:1042FC006FFA544B1B78002B01D0534900E0534903
:10430C00FB7A002B01D0504B00E0504B1A46504822
:10431C0004F05EFAF989B889FB7A002B01D14D4B78
:10432C0000E04D4B404A1278002A01D04B4A00E085
:10433C004B4A0192009303460A463969494804F0F6
:10434C0047FA0120FCF7BEFAFB7ABA89F989386979
:10435C00FFF716FD3860BB89B3F5FA6F1ED93B68C1
:10436C00002B1BDB404B00221A7040493A68134665
:10437C00DB009B1A9B000B441A783D4B1A703B498F
:10438C003A681346DB009B1A9B000B4401331A78E6
:10439C00384B1A70384A3B6913602AE03B68002B93
:1043AC001BDB32493A681346DB009B1A9B000B441B
:1043BC001A782D4B1A702E4B00221A702B493A6822
:1043CC001346DB009B1A9B000B4401331A78294BD4
:1043DC001A70294A3B6913600BE0234B00221A70B8
:1043EC00234B00221A70234B00221A70224A3B697D
:1043FC0013601D4B1B781E4A12781146184600F0AC
:10440C003DF8074A3B691360094AFB891380094A46
:10441C00BB8913800B4AFB7A13701837BD4680BDDD
:10442C001C02002040A8000878010020CDCCCCCC88
:10443C00200200202202002084A8000898A800086E
:10444C00ACA8000824020020C0A80008C4A80008DA
:10445C00C8A80008E0A80008ECA80008F8A8000804
:10446C0004A9000814A900080002002038AF0008B5
:10447C000102002002020020FC01002080B483B065
:10448C0000AF03460A46FB711346BB71BB79002B88
:10449C0006D0894B01221A70884B01221A7007E151
:1044AC00FB79013B3C2B00F2028101A252F823F074
:1044BC00B1450008BF450008CD450008DB450008A4
:1044CC00E9450008F745000805460008BB4600080A
:1044DC00BB460008BB460008BB460008BB460008AC
:1044EC00BB460008BB460008BB4600081346000844
:1044FC00214600082F4600083D4600084B460008A0
:10450C005946000867460008BB460008BB46000831
:10451C00BB460008BB460008BB460008BB4600086B
:10452C00BB460008BB4600087546000883460008D9
:10453C00914600089F460008BB460008BB46000891
:10454C00BB460008BB460008BB460008BB4600083B
:10455C00BB460008BB460008BB460008BB4600082B
:10456C00BB460008BB460008BB460008BB4600081B
:10457C00BB460008BB460008BB460008BB4600080B
:10458C00BB460008BB460008BB460008BB460008FB
:10459C00BB460008BB460008BB460008BB460008EB
:1045AC00AD460008444B00221A70444B00221A708E
:1045BC007EE0414B00221A70404B00221A7077E0CB
:1045CC003D4B01221A703D4B00221A7070E03A4BA1
:1045DC0001221A70394B01221A7069E0364B012204
:1045EC001A70364B01221A7062E0334B00221A709B
:1045FC00324B00221A705BE02F4B01221A702F4BAA
:10460C0000221A7054E02C4B01221A702B4B012201
:10461C001A704DE0284B00221A70284B00221A7099
:10462C0046E0254B01221A70244B00221A703FE001
:10463C00214B01221A70214B01221A7038E01E4BBB
:10464C0001221A701D4B01221A7031E01A4B002204
:10465C001A701A4B00221A702AE0174B01221A709A
:10466C00164B00221A7023E0134B01221A70134BC5
:10467C0001221A701CE0104B01221A700F4B012200
:10468C001A7015E00C4B01221A700C4B01221A7097
:10469C000EE0094B01221A70084B01221A7007E038
:1046AC00054B01221A70054B01221A7000E000BF65
:1046BC000C37BD4680BC704703020020040200206A
:1046CC0080B582B000AF03460A46FB711346BB713E
:1046DC00C14B1B7803F00303002B02D10023BB71E9
:1046EC0016E0BD4B1B7803F00303012B05D1BB79FE
:1046FC00022B0DD10123BB710AE0B74B1B7803F0E1
:10470C000303022B04D1BB79012B01D10223BB7112
:10471C00FB79013B612B00F29A8201A252F823F043
:10472C00B5480008DB480008014900082749000883
:10473C004D49000873490008994900085B4C000872
:10474C005B4C00085B4C00085B4C00085B4C0008A1
:10475C005B4C00085B4C00085B4C0008BF49000830
:10476C00154A00083B4A0008614A0008874A0008BD
:10477C00AD4A0008D34A00085B4C00085B4C0008AB
:10478C005B4C00085B4C00085B4C00085B4C000861
:10479C005B4C00085B4C0008F94A00081F4B0008F2
:1047AC00454B00086B4B00085B4C00085B4C000849
:1047BC005B4C00085B4C00085B4C00085B4C000831
:1047CC005B4C00085B4C00085B4C00085B4C000821
:1047DC005B4C00085B4C00085B4C00085B4C000811
:1047EC005B4C00085B4C00085B4C00085B4C000801
:1047FC005B4C00085B4C00085B4C00085B4C0008F1
:10480C005B4C00085B4C00085B4C00085B4C0008E0
:10481C00974B00085B4C00085B4C00085B4C000895
:10482C005B4C00085B4C00085B4C00085B4C0008C0
:10483C005B4C00085B4C00085B4C00085B4C0008B0
:10484C005B4C00085B4C00085B4C00085B4C0008A0
:10485C005B4C00085B4C00085B4C00085B4C000890
:10486C005B4C00085B4C00085B4C00085B4C000880
:10487C005B4C00085B4C00085B4C00085B4C000870
:10488C005B4C00085B4C00085B4C00085B4C000860
:10489C00BD4B0008E34B0008094C00085B4C0008BA
:1048AC005B4C0008354C00084C4B01221A704C4BE9
:1048BC004C4A1A604C4B00221A704C4B00221A7056
:1048CC004B4B00221A704B4B00221A70C3E1434B26
:1048DC0002221A70424B484A1A60434B00221A704B
:1048EC00424B00221A70424B00221A70414B00229C
:1048FC001A70B0E1394B03221A70394B3E4A1A60D8
:10490C00394B00221A70394B01221A70384B002295
:10491C001A70384B00221A709DE1304B04221A7029
:10492C002F4B364A1A60304B00221A702F4B012243
:10493C001A702F4B01221A702E4B00221A708AE12A
:10494C00264B05221A70264B2C4A1A60264B002245
:10495C001A70264B01221A70254B01221A70254B16
:10496C0000221A7077E11D4B06221A701C4B244A48
:10497C001A601D4B01221A701C4B00221A701C4B22
:10498C0000221A701B4B00221A7064E1134B072291
:10499C001A70134B1A4A1A60134B01221A70134BDC
:1049AC0001221A70124B00221A70124B00221A703C
:1049BC0051E10A4B10221A70094B124A1A600A4B29
:1049CC0000221A70094B01221A70094B01221A702D
:1049DC00084B00221A703EE1020000200002002069
:1049EC00FC01002040787D0102020020030200201F
:1049FC000402002001020020C0FC9B0110F76C0493
:104A0C0060FECD0020EED908A14B11221A70A14BEB
:104A1C00A14A1A60A14B00221A70A14B00221A70F5
:104A2C00A04B00221A70A04B00221A7013E1984B75
:104A3C0012221A70974B984A1A60984B00221A70DF
:104A4C00974B01221A70974B00221A70964B00223A
:104A5C001A7000E18E4B13221A708E4B934A1A6017
:104A6C008E4B00221A708E4B01221A708D4B012234
:104A7C001A708D4B00221A70EDE0854B14221A70BF
:104A8C00844B8A4A1A60854B00221A70844B01228F
:104A9C001A70844B01221A70834B00221A70DAE0D0
:104AAC007B4B15221A707B4B814A1A607B4B01227F
:104ABC001A707B4B00221A707A4B00221A707A4BB8
:104ACC0000221A70C7E0724B16221A70714B784A8A
:104ADC001A60724B01221A70714B01221A70714BC1
:104AEC0000221A70704B00221A70B4E0684B1F221F
:104AFC001A70684B6F4A1A60684B00221A70684B28
:104B0C0001221A70674B01221A70674B00221A702F
:104B1C00A1E05F4B20221A705E4B644A1A605F4B17
:104B2C0000221A705E4B01221A705E4B01221A7021
:104B3C005D4B00221A708EE0554B21221A70554B9A
:104B4C005A4A1A60554B00221A70554B01221A70A2
:104B5C00544B01221A70544B00221A707BE04C4BC0
:104B6C0022221A704B4B514A1A604C4B00221A707D
:104B7C004B4B01221A704B4B01221A704A4B0022EC
:104B8C001A704D4803F08CFE65E0414B00221A7000
:104B9C00404B464A1A60414B00221A70404B01228E
:104BAC001A70404B01221A703F4B00221A7052E0CF
:104BBC00374B00221A70374B404A1A60374B002291
:104BCC001A70374B01221A70364B01221A70364B71
:104BDC0003221A703FE02E4B00221A702D4B374ADD
:104BEC001A602E4B00221A702D4B01221A702D4B7D
:104BFC0001221A702C4B02221A702CE0244B00223A
:104C0C001A70244B2D4A1A60244B00221A70244B24
:104C1C0001221A70234B01221A70234B01221A70A5
:104C2C00274803F03DFE16E0194B00221A70194B71
:104C3C00224A1A60194B00221A70194B01221A7061
:104C4C00184B01221A70184B04221A7003E01D4BEA
:104C5C0000221A7058E0BB79012B05D0022B07D12A
:104C6C00194B02221A7007E0174B01221A7003E04D
:104C7C00154B00221A7000BF0A4B1B78012B27D151
:104C8C00124B1B7843F01003DAB2104B1A7026E06B
:104C9C0000020020FC010020C0FC9B01020200204D
:104CAC0003020020040200200102002010F76C0413
:104CBC0060FECD0020EED90830A9000840DCB3110D
:104CCC0068A90008780100200200002000000020E4
:104CDC000F4B1B7823F01003DAB20D4B1A70FB79D3
:104CEC00012B07D00A4B1B7843F02003DAB2084B98
:104CFC001A7006E0064B1B7823F02003DAB2044B43
:104D0C001A70044B01221A700837BD4680BD00BFD3
:104D1C00000000207801002080B584B000AF03466D
:104D2C000A46FB711346BB71354BFB60FB68822254
:104D3C001A70FB6802225A70FB680D229A70314B74
:104D4C001B78012B05D0022B07D1FB6850221A715E
:104D5C0007E0FB6830221A7103E0FB6810221A711D
:104D6C0000BFFB6808225A71FB685B795BB2264A6C
:104D7C001278012A01D0102200E0202213435BB2EA
:104D8C00DAB2FB685A71FB685B795BB21F4A127826
:104D9C00012A01D0402201E06FF07F0213435BB285
:104DAC00DAB2FB685A71FB6800229A71FB68FA79D7
:104DBC00DA71BB7903F00303DAB2FB681A72FB6891
:104DCC0000225A72FB6800229A72FB680022DA7287
:104DDC00FB6800221A73FB6800225A73FB680022DE
:104DEC009A73FB680022DA73FB6800221A74F96864
:104DFC000120FDF779F900BF1037BD4680BD00BF1B
:104E0C007C0100200200002003020020040200208C
:104E1C0080B582B000AF164B3B600221154803F001
:104E2C00D7FC3B6884221A703B6801225A703B689D
:104E3C000A229A703B6807221A7101237B6008E0F2
:104E4C003A687B681344043300221A707B68013380
:104E5C007B607B68092BF3DD3B681F22DA7100BF96
:104E6C0039680120FDF75CF900BF0837BD4680BDED
:104E7C007C010020A0A9000880B582B000AF134BC4
:104E8C007B607B6881221A707B6801225A707B6878
:104E9C0005229A707B6803221A717B680C225A7166
:104EAC007B6800229A717B682022DA71084B1A7891
:104EBC007B681A727B6800225A7279680120FDF7B0
:104ECC00F7F800BF0837BD4680BD00BF7C0100204D
:104EDC0001020020F0B58BB006AF764B7B60764AB2
:104EEC0092F8263023F0010382F82630724A92F8A9
:104EFC00263023F0020382F826306F4B002283F811
:104F0C0020206D4B0022DA6179680020FBF7B2FD9E
:104F1C0000233B730023FB7309E03B7B7A6813444B
:104F2C001A78FB7B1344FB733B7B01333B7397F980
:104F3C000C30002BF1DAFB7B002B01D00023B4E00A
:104F4C007B681B78002B22D17B6801331B78FF2BED
:104F5C001DD17B6802331B78FF2B18D17B68033380
:104F6C001B78FF2B13D17B6804331B78FF2B0ED1DE
:104F7C007B6805331B78FF2B09D17B6806331B78C4
:104F8C00FF2B04D17B6807331B78002B01D0002347
:104F9C008BE07B681B781D467B6801331B781E46B3
:104FAC007B6802331B789C467B6803331B781A465C
:104FBC007B6804331B7819467B6805331B781846CD
:104FCC007B6806331B781C467B6807331B7804937D
:104FDC000394029001910092634632462946374869
:104FEC0003F0F6FB7B6893F87E30BB73BB7B002B26
:104FFC0001D1012359E0BB7B042B01D90423BB73E2
:10500C0001233B734CE03B7B79681846FBF732FD80
:10501C0003467B732A4803F043FC0023FB720CE02D
:10502C00FB7A7A6813441B7840F60A5219462548D5
:10503C0003F0CEFBFB7A0133FB7297F90B30002B9C
:10504C00EEDA7B7B002B28D01B4B93F8263003F039
:10505C000203DBB2002B20D17B681B78022B1CD106
:10506C007B6801331B78032B17D1786800F034F878
:10507C0003467B737B7B002B01D0134B00E0134B5F
:10508C001946134803F0A4FB7B7B002B05D00A4B7D
:10509C00DB6919460F4803F09BFB3B7B01333B73E9
:1050AC003A7BBB7B9A42AED97B7B18461437BD4604
:1050BC00F0BD00BF7C01002050010020D4A90008E5
:1050CC00FCA9000800AA000810AA000818AA0008E9
:1050DC0020AA00082CAA000880B588B002AF78601E
:1050EC007B681B78022B04D17B6801331B78032B64
:1050FC0001D000230CE27B689B78BB73844B0022AD
:10510C009A70834B0022DA70814B00221A71804B0B
:10511C0000225A717E4B00229A717D4B0022DA716B
:10512C007B4B00221A727A4B00225A72784B002267
:10513C00DA75774B00221A767B68DA78744B1A7022
:10514C00734BFF225A700423FB75D4E1FB7D7A6804
:10515C0013441B785B097B73FB7D7A6813441B78C3
:10516C0003F01F033B737B7B013B062B00F2BD81DD
:10517C0001A252F823F000BFA15100085D520008B3
:10518C00315300089F540008DB540008F754000802
:10519C00E95400083B7B5F4AA2FB03235B08DAB2AD
:1051AC005B4B9A725A4B9B7A19465B4803F010FB87
:1051BC00FB7D0133FB7500233B613BE0F97D3A69D4
:1051CC0013465B0013440B441A467B68134418784F
:1051DC004F493A6913465B0013440B440B330246A8
:1051EC001A70F97D3A6913465B0013440B44013382
:1051FC007A681344187846493A6913465B0013449D
:10520C000B440C3302461A70F97D3A6913465B0065
:10521C0013440B4402337A68134418783C493A69B6
:10522C0013465B0013440B440D3302461A703B6962
:10523C0001333B61364B9B7A1A463B69934202DA47
:10524C003B69032BBADDFA7D3B7B1344FB7552E1C2
:10525C00FB7D0133FB7500233B612D4BFF225A7004
:10526C004CE0FA7D3B6913441A467B6813441B7867
:10527C0003F07F03FB72FB7A3F2B3CD8FB7ADB08F5
:10528C00D8B20246224B13449B785AB2FB7A03F0F5
:10529C000703012101FA03F35BB213435BB201462E
:1052AC00DAB21B4B0B449A70F97AFB7ADB08DBB24F
:1052BC001846FB7ADB08DBB21A46154B13449B7875
:1052CC000246164803F084FAFA7D3B6913441A46E9
:1052DC007B6813441B785BB2002B0CDA0C4B5B78AD
:1052EC00FF2B08D10A4AFB7A5370094B5B7819469D
:1052FC000B4803F06DFA3B6901333B613B7B3A6928
:10530C009A42AEDBFA7D3B7B1344FB75F3E000BFA6
:10531C0050010020ABAAAAAA4CAA00086CAA00084B
:10532C0098AA0008FB7D0133FB75FB7D02337A687C
:10533C0013441B781A46784BDA61774BDB691B02F6
:10534C00754AD361744BDB69FA7D013279680A4482
:10535C0012781344704AD3616F4BDB691B026E4A9F
:10536C00D3616D4BDB69FA7D79680A44127813447A
:10537C00694AD361FB7D02337A6813441B78194662
:10538C00FB7D01337A6813441B781846FB7D7A68E1
:10539C0013441B781A46604BDB6900931346024694
:1053AC005E4803F015FA5C4BDB6940F6034293420E
:1053BC006AD1594A92F8263043F0020382F826301B
:1053CC00FB7D03337A6813441A78534BDA75FB7DF3
:1053DC0004337A6813441A784F4B1A763B7B052BAF
:1053EC000AD9FB7D05337A6813441B7803F07003EC
:1053FC00DAB2494B83F820203B7B062B07D9FB7D87
:10540C0006337A6813441A78434B83F821203B7B8C
:10541C00072B39D90823FB73FB7D07337A681344B8
:10542C001B785BB2002B02DAFB7B0233FB73FB7D38
:10543C0007337A6813441B7803F04003002B02D027
:10544C00FB7B0233FB73FB7D07337A6813441B78B9
:10545C0003F02003002B17D0FB7B1946304803F0D8
:10546C00B7F9FA7DFB7B13441A467B6813441B780F
:10547C00DB09DBB203F00103D9B2274A92F82630DC
:10548C0061F3820382F82630FA7D3B7B1344FB7573
:10549C0031E0FB7D0133FB75FB7D7A6813441A7890
:1054AC001D4B83F82320FB7D01337A6813441A7853
:1054BC00194B83F82420FB7D02337A6813441A7845
:1054CC00154B83F82520FB7D0333FB7513E03A7BEA
:1054DC00FB7D1344DBB20133FB750CE03A7BFB7DA7
:1054EC001344DBB20133FB7505E03A7BFB7D1344BF
:1054FC00DBB20133FB75FA7DBB7B9A42FFF426AE1F
:10550C00054A92F8263043F0010382F82630012335
:10551C0018461837BD4680BD50010020A8AA0008C7
:10552C00C8AA000880B584B000AFF860B9607A6092
:10553C007B689AB20A23B968034802F0B3FE7B6811
:10554C0018461037BD4680BD7C02002080B500AFE8
:10555C000A4803F0A5F9642000F03AFF002220214C
:10556C00074801F0C1F9642000F032FF012220212C
:10557C00034801F0B9F900BF80BD00BFDCAA0008E8
:10558C000008014080B483B000AF0346FB7100BF3C
:10559C000C37BD4680BC704780B500AF00F0B6FE3E
:1055AC0000F00CF800F0C8F800F044F800F070F8C7
:1055BC0000F098F8FAF7C4FE00BFFBE780B590B096
:1055CC0000AF07F1180328220021184603F048FA0F
:1055DC003B1D00221A605A609A60DA601A6102233D
:1055EC00BB610123BB621023FB6200237B6307F1C9
:1055FC001803184602F0F6F90346002B01D000F010
:10560C00FFF80F237B600023BB600023FB600023AB
:10561C003B6100237B613B1D0021184602F064FCBA
:10562C000346002B01D000F0EBF800BF4037BD461D
:10563C0080BD000080B500AF124B134A1A60114BAD
:10564C00124A5A600F4B00229A600E4B0022DA600D
:10565C000C4B4FF480421A610A4B00225A61094BE1
:10566C0000229A61074B0022DA61064B00221A6273
:10567C00044801F051F90346002B01D000F0C0F8AA
:10568C0000BF80BD2802002000540040A08601000D
:10569C0080B500AF114B124A1A60104B4FF4E13237
:1056AC005A600E4B00229A600C4B0022DA600B4BB6
:1056BC0000221A61094B0C225A61084B00229A6194
:1056CC00064B0022DA61054802F09CFD0346002BD4
:1056DC0001D000F095F800BF80BD00BF7C02002017
:1056EC000038014080B500AF114B124A1A60104BC4
:1056FC004FF4E1325A600E4B00229A600C4B0022A0
:10570C00DA600B4B00221A61094B0C225A61084BD0
:10571C0000229A61064B0022DA61054802F072FD04
:10572C000346002B01D000F06BF800BF80BD00BF1A
:10573C00C40200200044004080B586B000AF07F1E1
:10574C00080300221A605A609A60DA60294B9B6940
:10575C00284A43F004039361264B9B6903F004032E
:10576C007B607B68234B9B69224A43F0080393615F
:10577C00204B9B6903F008033B603B6800224FF40D
:10578C0088711D4801F0B0F800224FF45E411B48AF
:10579C0001F0AAF84FF48873BB600123FB6000236F
:1057AC003B6102237B6107F108031946124800F0A4
:1057BC0017FF4FF45E43BB600123FB6000233B618A
:1057CC0002237B6107F1080319460C4800F008FF1F
:1057DC004FF40053BB600023FB6000233B6107F1D7
:1057EC0008031946054800F0FBFE00BF1837BD46FC
:1057FC0080BD00BF0010024000080140000C0140B9
:10580C0080B400AF72B600BF00BFFDE780B485B0B6
:10581C0000AF78607B68AC4A1A607B680433AB4A93
:10582C001A607B680833AA4A1A607B680C33A94A51
:10583C001A607B681033A84A1A600023FB609EE054
:10584C00FB680F2B53DDFB68D91EA44B83FB012394
:10585C00DA10CB17D21A13461B011344CA1AA04BE9
:10586C0053F82200FB68A3F108019C4B83FB012336
:10587C00DA10CB17D21A13461B011344CA1A984BD1
:10588C0053F822305840FB68A3F10E01934B83FB75
:10589C000123DA10CB17D21A13461B011344CA1A70
:1058AC008F4B53F822305840FB68A3F110018B4BFF
:1058BC0083FB0123DA10CB17D21A13461B011344B6
:1058CC00CA1A874B53F822304340BB60F968834BAC
:1058DC0083FB0123DA10CB17D21A13461B01134496
:1058EC00CA1ABB684FEAF3737D4941F822307B68D2
:1058FC001B684FEAF3627B68043319687B680833D2
:10590C001B6819407B680C3318687B6804331B6870
:10591C00DB4303400B431A447B6810331B68D018DD
:10592C00F9686E4B83FB0123DA10CB17D21A13469E
:10593C001B011344CA1A6A4B53F82230C218694B24
:10594C001344BB607B6810337A68D2681A607B683A
:10595C000C337A6892681A607B6804331A687B6827
:10596C0008334FEAB2021A607B6804337A68126813
:10597C001A607B68BA681A60FB680133FB60FB68CD
:10598C00132B7FF75DAF1423FB6096E0FB68D91EE9
:10599C00524B83FB0123DA10CB17D21A13461B018F
:1059AC001344CA1A4E4B53F82200FB68A3F10801AA
:1059BC004A4B83FB0123DA10CB17D21A13461B0177
:1059CC001344CA1A464B53F822305840FB68A3F1D3
:1059DC000E01424B83FB0123DA10CB17D21A13466C
:1059EC001B011344CA1A3E4B53F822305840FB6833
:1059FC00A3F11001394B83FB0123DA10CB17D21A18
:105A0C0013461B011344CA1A354B53F8223043403A
:105A1C00BB60F968314B83FB0123DA10CB17D21A28
:105A2C0013461B011344CA1ABB684FEAF3732C4983
:105A3C0041F822307B681B684FEAF3627B680433C1
:105A4C0019687B6808331B6859407B680C331B68EA
:105A5C004B401A447B6810331B68D018F9681F4BF5
:105A6C0083FB0123DA10CB17D21A13461B01134404
:105A7C00CA1A1B4B53F82230C2181B4B1344BB6081
:105A8C007B6810337A68D2681A607B680C337A684A
:105A9C0092681A607B6804331A687B6808334FEA93
:105AAC00B2021A607B6804337A6812681A607B68E9
:105ABC00BA681A60FB680133FB60FB68272B7FF721
:105ACC0065AF2823FB60B0E00123456789ABCDEFC0
