:020000040800F2
:1000000000500020897A0008893A00088B3A0008DD
:100010008D3A00088F3A0008913A0008000000006D
:10002000000000000000000000000000933A0008FB
:10003000953A000800000000973A0008993A000835
:10004000D17A0008D17A0008D17A0008D17A000864
:10005000D17A0008D17A0008D17A0008D17A000854
:10006000D17A0008D17A0008D17A0008D17A000844
:10007000D17A0008D17A0008D17A0008D17A000834
:10008000D17A0008D17A0008D17A0008D17A000824
:10009000D17A0008D17A0008D17A0008D17A000814
:1000A000D17A0008D17A0008D17A0008D17A000804
:1000B000D17A0008D17A0008D17A0008D17A0008F4
:1000C000D17A0008D17A0008D17A0008D17A0008E4
:1000D000D17A0008D17A0008D17A0008D17A0008D4
:1000E000D17A0008D17A0008D17A00080000000017
:1000F0000000000000000000000000000000000000
:0C01000000000000000000005FF808F1A3
:10010C0010B5054C237833B9044B13B10448AFF345
:10011C0000800123237010BD40020020000000006D
:10012C00389D000808B5034B1BB103490348AFF3D6
:10013C00008008BD0000000044020020389D00082B
:10014C0030B50D464FF0FF3185B0CDE901210446A5
:10015C00014600932A460123064808F0E7F838B117
:10016C002A462146044808F00DFF002005B030BD9A
:10017C000120FBE784040020509D000830B50D469B
:10018C004FF0FF3185B0CDE90121044601460093C3
:10019C002A460123064808F059F938B12A46214667
:1001AC00044808F0EFFE002005B030BD0120FBE74D
:1001BC0084040020759D000807B501228DF80710F6
:1001CC000DF1070301469C20FFF7BAFFB0FA80F04F
:1001DC00400903B05DF804FB07B5014601220DF19F
:1001EC0007039C20FFF7CAFF9DF8070003B05DF8DA
:1001FC0004FB07B5014601220DF107039820FFF718
:10020C00BDFF9DF8070003B05DF804FB07B50122A4
:10021C008DF807100DF1070301469820FFF790FFAA
:10022C00B0FA80F0400903B05DF804FB08B5D2B217
:10023C000B4601469820FFF7A1FFB0FA80F0400969
:10024C0008BDFF2970B506460D46144606D0FFF7CB
:10025C00D0FF20EA0503DBB22C401C43214630467C
:10026C00BDE87040FFF7D2BF38B5144D2C68012C97
:10027C0007D0022C01D04CB138BDBDE8384002F09B
:10028C007DBF03F0B7F802232B60F5E70C4808F0AC
:10029C00E1FE0C4808F0DEFE03F0ACF802F0C4F806
:1002AC0001F088FA204603F0D1F80121102002F069
:1002BC00C9FA054808F0CEFE0123E5E75C020020F0
:1002CC00999D0008AE9D0008C19D000808B502204C
:1002DC00FFF78FFF064B2128987004D10548BDE825
:1002EC00084008F0B7BE22280CBF03480348F6E7C5
:1002FC0070020020F99D0008199E0008399E000824
:10030C00014B9878704700BF70020020014B1879A0
:10031C00704700BF7002002030B4044630B10FCCDF
:10032C00044D0FC594E8030085E8030030BCFFF7CB
:10033C00CDBF00BF7002002010B50E20FFF759FF93
:10034C0010F0200408D06120FFF753FF012003F0C8
:10035C007DF80124204610BD204603F077F8F9E71C
:10036C0010B50446002201210F20FFF76AFF221E60
:10037C004FF0010118BF0122C120FFF762FFBDE859
:10038C0010400321C620FFF741BF0000F8B504461A
:10039C00144D154E154F21786278A37841EA02006E
:1003AC0018431DD042B993B9384608F0EBFD2078BC
:1003BC0007F0D2FB0334EEE7FF2A08D11A46304689
:1003CC0008F0E0FDA1782078FFF720FFF2E728463F
:1003DC0008F0D8FDA27861782078FFF732FFE9E7C2
:1003EC00F8BD00BF879E0008659E0008589E000857
:1003FC000148FFF7CBBF00BFB4D600080148FFF798
:10040C00C5BF00BFD5D6000808B501211020FFF7E5
:10041C00FDFEBDE8084009211520FFF7F7BE08B521
:10042C0001211020FFF7F2FEBDE808400A2115203B
:10043C00FFF7ECBE38B50420FFF7DBFE04462020A6
:10044C00FFF7D7FE1020FFF7D4FE44F00101C9B22C
:10045C000420FFF7DBFE01211020FFF7D7FE022559
:10046C000F211520FFF7D2FEC8241620FFF7C1FE7E
:10047C00030609D410F0380F06D10120013C07F017
:10048C006BFB14F0FF04F0D1012D00D138BD012518
:10049C00E6E700002DE9F04F914C87B007460E209F
:1004AC000D4694F815A00592FFF7A3FE014600F047
:1004BC004008C0F3801635B1BAEB060A18BF4FF0EE
:1004CC00010A85F800A0B8F1000F03D1237D68F371
:1004DC00000323750A0640F1EE80824808F052FDB5
:1004EC000620FFF786FE8246024606217E4808F06B
:1004FC0049FD1AF0800F0FD07C4808F0ABFD142298
:10050C0004201146FFF79DFE0420FFF772FE00F059
:10051C00EB010420FFF77AFE1AF0100F08D0744894
:10052C0008F098FDFFF770FF237D23F0010323757E
:10053C001AF0040F0CD06F4808F08CFDFFF77AFF0F
:10054C00237DDB0704D56C4808F084FD01F012FE16
:10055C001AF0010F05D025B1012300222B70674B37
:10056C001A601AF0020F18BF237D4FF007001CBF52
:10057C0023F001032375FFF73CFE82460246072158
:10058C00594808F0FFFC1AF0020F07D05C4808F03D
:10059C0061FD02220A201146FFF753FE1AF0010FEB
:1005AC000FD0237D462023F001032375FFF721FE96
:1005BC000146544808F0E6FC0022504B1A60FFF745
:1005CC0039FF0820FFF715FE8246024608214648EF
:1005DC0008F0D8FC1AF0100F1CBF01224A4B4FF048
:1005EC00EE0018BF1A70FFF704FE10F0100B8146D6
:1005FC0006D0424A454811680131116008F0C2FC2E
:10060C0019F0400A38D001220021059B1A703B4A90
:10061C0011604946EE20FFF7F9FD3D4919F0200F16
:10062C003C4A3D4B08BF0A4619F0080F3B4808BF2F
:10063C00084619F0040F18BF9C46394B08BF8C466E
:10064C0019F0020F0CBF8E469E4619F0010F354B68
:10065C0008BF0B46CDE9000CCDE902E33248334B21
:10066C00BBF1000F08BF0B46BAF1000F18BF0146D3
:10067C002F4808F087FC02E0B9F1000FC9D1FF2127
:10068C000C20FFF7C3FDFF210D20FFF7BFFD022259
:10069C000E201146FFF7D5FD0E20FFF7AAFD81466F
:1006AC0040F00101C9B20E20FFF7B0FD0E2009F099
:1006BC00FC01FFF7ABFD5DB12878012808D1B8F13A
:1006CC00000F05D1FFF74CFE30216120FFF79EFD96
:1006DC0007B13E703046667507B0BDE8F08F00BFBD
:1006EC0070020020509F00086E9F0008889F000831
:1006FC00A09F0008B19F0008C09F0008680200205E
:10070C0008A0000826A00008F103002041A0000862
:10071C0016A10008C49E0008FA9E0008EC9E000872
:10072C00179F0008329F0008AC9E0008D89E000856
:10073C005CA000082DE9F84F894617461E46044672
:10074C00A0B30620FFF755FD400704D5434808F039
:10075C0081FCFFF76FFEFFF757FE002201210F20EF
:10076C00FFF76FFD002E01DC002020E0202E354627
:10077C00A8BF20253A462946394808F003FC012138
:10078C001020FFF743FD09211520FFF73FFD4FF027
:10079C00C8081620FFF72DFD010616D410F0380FEF
:1007AC0007D02E4808F056FCFFF744FE0120BDE8A8
:1007BC00F88F0620FFF71DFD4207F2D408F1FF3831
:1007CC001FFA88F8B8F1000FE3D101211020FFF7D0
:1007DC001DFDA0211120FFF719FD5FFA85F83946A0
:1007EC001220FFF713FD41461320FFF70FFD49467A
:1007FC001420FFF70BFD03211520FFF707FD4FF029
:10080C00FA0B032007F0A8F91620FFF7F2FC0306F9
:10081C0001460FD410F0380F03D0124808F0B2FB89
:10082C00C4E70BF1FF3B1FFA8BFBBBF1000FE8D1C8
:10083C000D48F3E7ADB2A3462C441FFA84FA1720F7
:10084C00FFF7D7FC0BF8010B1FFA8BF39A45F6D187
:10085C00B844751B5FFA88F72EB283E76DA00008C9
:10086C0087A00008BFA00008F0A0000808B5034648
:10087C00084661B103F0010203EBD371D20180236E
:10088C00C1F34701FFF756FF013818BF012008BD1F
:10089C0008B50420FFF7ADFC40F00801C9B20420F4
:1008AC00FFF7B4FC30216120FFF7B0FC002290214F
:1008BC006220FFF7C6FCBDE80840002289216420B5
:1008CC00FFF7BFBC014B187101207047700200206C
:1008DC002DE9F04F80468B460022012185B00F2078
:1008EC00FFF7AFFC5A464146664808F04BFBB8F19F
:1008FC00000F32D04FF0000A1822634C02FB0AF3AF
:10090C001D19E35C434521D15146604808F03AFB80
:10091C005F4808F09FFBB5F80CE0EB891BF0010F6A
:10092C0073440293AB7DEF88C3F38002C3F34001A1
:10093C004FEA420242EA81026E89B5F808C0B5F866
:10094C001090688AD2B20FD1023E0EE00AF1010A71
:10095C00BAF1150FD2D14F4800E04F4808F07AFB9E
:10096C00002005B0BDE8F08F013E182303FB0A44BC
:10097C0094F816A006EB0E051AF0010A06EB5707C1
:10098C0009EB000B79D10CEB0904B8F1270F08BF68
:10099C0004F1FF3400EB040806219020FFF751FC12
:1009AC00FBB21A0102F0F002F02190200393FFF742
:1009BC0048FCC7F307119120FFF728FCF1B29520F2
:1009CC00FFF724FCE9B29620FFF720FC291146F32F
:1009DC00072301F0F001C6F303263143972001935E
:1009EC00FFF714FC5FFA89F1A020FFF70FFCC9F3A5
:1009FC00032101EB0B11C9B2A120FFF707FCE1B2F7
:100A0C00A220FFF703FCCBF3031B08F0F00141EA33
:100A1C000B01A620FFF7FAFBC4F3032101EB08112D
:100A2C00C9B2A320FFF7F2FB039BA4201946FFF7E2
:100A3C00EDFB8AF0010AC7F3032101EB0A11A52093
:100A4C00FFF7E4FB019BAD1103F0100305F040052B
:100A5C001D43029B5121C3F300322A44B120FFF7FE
:100A6C00F0FBBA1202F00402C7F300370521B220E2
:100A7C003A43FFF7E6FB012073E74FF03F0840F6DF
:100A8C00FF7489E717A10008BCD400083CA100083A
:100A9C004EA1000881A1000867A1000870B50646A8
:100AAC0070200D46FFF7A5FB00F0030406F00300D1
:100ABC00012805D002282AD0174844F0010402E08E
:100ACC00164844F0410408F0C5FA280704D5144828
:100ADC0044F0200408F0BEFAE90704D5114844F0AC
:100AEC00100408F0B7FAAA0704D50F4844F008041C
:100AFC0008F0B0FA6B0704D50C4844F0040408F075
:100B0C00A9FA2146BDE870407020FFF77FBB08486A
:100B1C0044F08104D7E700BFCCA1000896A10008DF
:100B2C00E7A10008FFA100080DA2000821A20008FF
:100B3C00B1A10008F8B504460A460D4601464948DD
:100B4C0008F020FA04F00303012B09D1464805F004
:100B5C00030508F07FFA012D1ED0022D07D0EDB150
:100B6C00002210210F20FFF76CFB032408E03F4804
:100B7C0008F070FA10220F201146FFF762FB0024D8
:100B8C007220FFF736FB00F01C0040EA04017220D3
:100B9C00BDE8F840FFF73ABB3548E9E7354808F0BF
:100BAC0059FA04F030040321334808F0EBF9202CF7
:100BBC0042D0302C16D0102C29D0304808F0E2F955
:100BCC0073242F4E2F4F16F8015BE0B22946FFF726
:100BDC001DFB21462A463846013408F0D3F9882CEF
:100BEC00F1D1BDE7284808F0CDF97324274E254FE5
:100BFC0016F8015BE0B22946FFF708FB21462A46AE
:100C0C003846013408F0BEF9882CF1D1A8E7204809
:100C1C0008F0B8F973241F4E1A4F16F8015BE0B2B6
:100C2C002946FFF7F3FA21462A463846013408F0E4
:100C3C00A9F9882CF1D193E7174808F0A3F973248C
:100C4C00164E104F16F8015BE0B22946FFF7DEFA9C
:100C5C0021462A463846013408F094F9882CF1D103
:100C6C007EE700BF31A2000872A2000888A200082B
:100C7C009FA20008B5A20008CBA200081BA3000885
:100C8C006DD40008ECA20008DDA2000858D40008BE
:100C9C00FEA2000843D400080CA3000882D400086C
:100CAC0070B504464C4D10216120AE78FFF7AEFABA
:100CBC00631E012B28D8802290216220FFF7C1FAF5
:100CCC00802289216420FFF7BCFA002210216820C1
:100CDC00FFF7B7FA222E7AD1012C4DD002226120D7
:100CEC001146FFF7AEFA30223C216320FFF7A9FA38
:100CFC0097229F216620FFF7A4FA2022E021722080
:100D0C00FFF79FFA354826E0102290216220FFF76A
:100D1C0098FA092289216420FFF793FA102268209F
:100D2C001146FFF78EFA222E51D1DCBB224602214E
:100D3C006120FFF786FA04223C216320FFF781FA39
:100D4C0022469F216620FFF77CFA2022E0217220A8
:100D5C00FFF777FA224808F07DF92B7D9A0704D427
:100D6C00022202216120FFF76CFABDE870400022DC
:100D7C0028210420FFF765BA022261201146FFF7F3
:100D8C0060FA20223C216320FFF75BFA97229F2117
:100D9C006620FFF756FA2022E0217220FFF751FA65
:100DAC001048D8E7022261201146FFF74AFA0422C4
:100DBC003C216320FFF745FA00229F216620FFF7B4
:100DCC0040FA2022E0217220FFF73BFAC5E72B7D89
:100DDC009B07C5D50022C4E7700200207CA3000845
:100DEC0029A3000851A3000808B5002201210F20F7
:100DFC00FFF727FABDE80840002230216120FFF7F9
:100E0C0020BA00002DE9F04106460D4604201D21B4
:100E1C0098461746FFF7FAF901221A4C1146237D22
:100E2C000F2068F341032375FFF70BFA00215820BC
:100E3C00FFF7ECF9002201210F20FFF702FA237DC6
:100E4C009B0702D50120FFF78BFA28462179FFF783
:100E5C0025FE39462846FFF76DFE217DC02011F096
:100E6C00020118BF0121FFF7D1F93046FFF718FF37
:100E7C0015210420FFF7CAF9FFF7B6FF0120BDE8E2
:100E8C00F08100BF70020020012210B5044611460B
:100E9C000F20FFF7D6F921789120490001F07C0151
:100EAC00FFF7B4F961789220FFF7B0F9A17893209D
:100EBC0001F00F01FFF7AAF9A17894200909FFF7B7
:100ECC00A5F9E1789820FFF7A1F921799920FFF78E
:100EDC009DF9BDE81040002201210F20FFF7B1B9A8
:100EEC0070B515461039C9B204292B4A94BF2B4C46
:100EFC00C024537998BF645CADB303F0BF0644F0D3
:100F0C0011040121D4710F200022FFF79AF904F08B
:100F1C00F001E020FFF77AF946F00101E120FFF73C
:100F2C0075F9E421E220FFF771F995B31021E32064
:100F3C00FFF76CF90021E420FFF768F90021E520A8
:100F4C00FFF764F975B140225C201146FFF779F97F
:100F5C0064245F20FFF74DF9830603D4013C14F0A1
:100F6C00FF04F6D170BD032843F040060BD00428D3
:100F7C0006D002280AD003F0BF0644F00104C0E7F3
:100F8C0044F00F04BDE744F00704BAE744F003044F
:100F9C00B7E72946CBE700BF70020020B6D40008A3
:100FAC0010B50446002201210F20FFF74AF9472112
:100FBC00E120FFF72BF9E421E220FFF727F964B3D6
:100FCC00D021E020FFF722F91021E320FFF71EF9D2
:100FDC000821E420FFF71AF90821E520FFF716F99C
:100FEC000CB364245F20FFF704F9830603D4013C9F
:100FFC0014F0FF04F6D1D121E020FFF707F95C20B3
:10100C00FFF7F7F800F0BF015C20FFF7FFF8E020D6
:10101C00FFF7EFF8054BD87110BDC021E020FFF7AA
:10102C00F5F82146D1E7CF21E6E700BF700200209A
:10103C0008B54121E120FFF7E9F8E421E220FFF7B0
:10104C00E5F8C021E020FFF7E1F80021E320FFF7ED
:10105C00DDF80021E420FFF7D9F80221E520FFF7A5
:10106C00D5F8BDE80840CF21E020FFF7CFB800004D
:10107C00FA2208B5084B04201A700022074B1A708C
:10108C0014221146FFF7DDF8BDE8084010220F20AE
:10109C001146FFF7D6B800BF6E0200206D0200208B
:1010AC002DE9F0470446E520FFF7A3F80E2C4FF08E
:1010BC0001028CBF4FF4C0544C4B114698BF33F80F
:1010CC00144000F008070F20FFF7BBF8E1B2332003
:1010DC00FFF79CF8DFF81881210A3420FFF796F807
:1010EC0000213520FFF792F898F800402CB3002629
:1010FC004FF0FF0A3446B1461E2006F02DFD372076
:10110C00FFF777F805033620FFF773F845EA00156B
:10111C003520FFF76EF855EA101353D0A34234BFB5
:10112C00E41A1C1B042C4AD809F101095FFA89F94D
:10113C00B9F11F0F1E444BD97409E1B23020FFF7EF
:10114C0065F8C4F307213120FFF760F8C4F30341BD
:10115C003220FFF75BF8002201210F20FFF771F816
:10116C00C321F820FFF752F8A521F820FFF74EF81D
:10117C0098F8003073B30222C5201146FFF761F8CE
:10118C00FF21F820FFF742F86FBB01220F20114618
:10119C00FFF757F809219820FFF738F89920FFF747
:1011AC0028F800F00F0141F060019920FFF72EF8AC
:1011BC003A46BDE8F04701210F20FFF742B8002660
:1011CC001C46B1460AF1FF3A1AF0FF0A94D1B4E773
:1011DC001C46F7E7C520FFF70CF800F0FD01C52011
:1011EC00FFF714F8CCE7BDE8F08700BF98D40008EF
:1011FC006C0200202DE9F84F1446DDE90A9B2422ED
:10120C009846874B4FF0000A1A7014220E46854FF1
:10121C00854BB97505461146042083F800A0C7F824
:10122C000CB087F807A0FFF70CF815215820FEF733
:10123C00EDFF524610210F20FFF703F8002E7ED051
:10124C00C02D57D181215820FEF7E0FF1022E0205D
:10125C001146FEF7F6FFA02D2AD0744B9C4200F0ED
:10126C00838075D84AF644439C427FD0704B9C4295
:10127C007ED0B4F5FA4F14BF0224032420463C72EE
:10128C00FFF70EFFB9F1000F12D108F101035B104B
:10129C0074D0042B74DCDBB2664A0021D470E443B6
:1012AC009146240144F00B04117051709370147129
:1012BC00102214210420FEF7C4FFA02D00F085801D
:1012CC0060D8802D00F09980902D00F0848009204A
:1012DC00FEF78FFF00F07F010920FEF797FFF979E9
:1012EC00E020FEF793FFBDE8F84F00221421042004
:1012FC00FEF7A7BF3B795B07A8D54F4B9B450DD895
:10130C004E4807F0A7FE534651464FF0600A4AEA92
:10131C00030A41EA0A0141F0010194E7484B9B455D
:10132C0007D8484807F096FE534651464FF0400AFE
:10133C00EDE7454807F08EFE04231021E7E7E02097
:10134C00FEF757FF00F0EF01E020FEF75FFF82E7AA
:10135C003E4B9C420ED03E4B9C420DD03D4B9C4292
:10136C0014BF02240C2489E70A2487E7002485E7AC
:10137C00082483E70E2481E709247FE701238BE708
:10138C00042389E7C02DA2D1334807F063FE99F8F6
:10139C000030484643F0020389F80030002389F8F6
:1013AC00023099F8033023F00F0343F0090389F856
:1013BC00033099F8043043F06B0389F80430FFF7DD
:1013CC0063FD3046FFF7ECFD81E7244807F042FE51
:1013DC00FFF72EFE7BE7224807F03CFE99F8003021
:1013EC00484643F0020389F80030FFF74DFD3246C2
:1013FC0018210120FFF774FD69E71A4807F02AFE4F
:10140C0099F80030484623F0020389F80030FFF7C2
:10141C003BFD08F10100324618214008EAE700BF05
:10142C006E020020700200206D0200200077010087
:10143C0088580100600200207FC3C901A5A30008E1
:10144C00FFB3C404C8A30008EBA3000800EE02001D
:10145C0000B80B0010B102000BA4000818A400087F
:10146C0025A4000834A4000810B50446002851D067
:10147C0001220F201146FEF7E4FE21795820FEF7D9
:10148C00C5FE61795920FEF7C1FEA1795A20FEF7FD
:10149C00BDFEE1795B20FEF7B9FE217A5C20FEF7F8
:1014AC00B5FE617A5E20FEF7B1FEA17A5F20FEF7F1
:1014BC00ADFEE17A6020FEF7A9FE217B6120FEF7EC
:1014CC00A5FE617B6220FEF7A1FEA17B6320FEF7E7
:1014DC009DFEE17B6420FEF799FE217C6520FEF7E2
:1014EC0095FE0021E31C103413F8012F891AA34236
:1014FC00C9B2F9D16F31C9B25D20FEF787FE002267
:10150C0001210F20FEF79DFE0321CD20FEF77EFE6C
:10151C00002010BD0120FCE708B50346084619461B
:10152C0023B9CD20FEF772FE012008BDFFF79CFF0A
:10153C00B0FA80F04009F8E738B50546B8B3012297
:10154C000F201146FEF77DFE29796820FEF75EFE1E
:10155C006820FEF74EFE697904466920FEF756FEB8
:10156C006920FEF746FEE97904446B20FEF74EFE37
:10157C006B20FEF73EFEC4F17104E4B2297A241A02
:10158C006C20FEF743FE6C20FEF733FEE4B2211A0A
:10159C00C9B26D20FEF73AFE002201210F20FEF7A2
:1015AC0050FE0321CE20FEF731FE002038BD012075
:1015BC00FCE708B503460846194623B9CE20FEF7CA
:1015CC0025FE012008BDFFF7B7FFB0FA80F04009F7
:1015DC00F8E770B5054690B301220F201146FEF7CF
:1015EC0030FEE9798020FEF711FE8120297AFEF782
:1015FC000DFE2B7AEC791C441B06E4B217D56E7ADF
:10160C0082203146C6F16906361BFEF7FFFDF1B2AA
:10161C00E9708320FEF7FAFD002201210F20FEF76E
:10162C0010FE0321D220FEF7F1FD002070BD002139
:10163C008220FEF7EBFDC4F16A01C9B2E8E7012094
:10164C00F4E708B503460846194623B9D220FEF73D
:10165C00DDFD012008BDFFF7BCFFB0FA80F04009AA
:10166C00F8E700002DE9F0470025484807F08AFC10
:10167C002C4640F68806464FDFF81881214638463E
:10168C0007F080FC26FA04F3D90702D5404607F090
:10169C0079FC0134102CF1D13F4807F0DBFC00221F
:1016AC0001210F20FEF7CDFD0024DFF8F0903C4F18
:1016BC00DFF8F0802146484607F064FC0026DFF88E
:1016CC00D0A0A01917285CD0C0B2FEF792FD01463D
:1016DC000546504607F056FC40F68803F340DA07FF
:1016EC0002D5384607F04EFC0136102EE9D12E48B3
:1016FC0007F0B0FC04F03F03302B02D12B4807F06D
:10170C00A9FC1034B4F5807FD4D101220F201146EE
:10171C00FEF797FD4FF49874DFF880801C4E204F35
:10172C002146404607F02EFC002540F68809281972
:10173C00C0B2FEF75EFD0146304607F023FC29FAE5
:10174C0005F3DB0702D5384607F01CFC0135102DDC
:10175C00EDD1154807F07EFC04F03F03202B02D19D
:10176C00134807F077FC1034B4F5007FD8D110483B
:10177C0007F070FCBDE8F047002201210F20FEF7B6
:10178C0060BD2946404607F0FDFBAAE742A40008CD
:10179C004AA4000847A4000850A4000891A400081B
:1017AC009DA4000899A400085CAC0008A0A4000843
:1017BC0052A4000810B5134C1348FEF7E7FDE3786C
:1017CC00227DDB0963F38202227500F07DFD20612E
:1017DC000E48FEF7DBFD0E48FEF7D8FD0D48FEF770
:1017EC00D5FD0D48FEF7D2FD0C48FEF7CFFD0C4899
:1017FC00FEF7CCFD0B4807F02DFCBDE81040FFF7C1
:10180C0031BF00BF70020020E9D7000898D700084C
:10181C008CD7000856D7000838D7000814D7000812
:10182C00F6D60008DEA4000870B505210446502049
:10183C00FEF7ECFC5120FEF7DCFC20705220FEF78A
:10184C00D8FC60705320FEF7D4FCA0705420FEF737
:10185C00D0FC0021E0705020FEF7D8FC5520FEF79C
:10186C00C8FC012120715020FEF7D0FC5520FEF75A
:10187C00C0FC022160715020FEF7C8FC5520FEF719
:10188C00B8FC0321A0715020FEF7C0FC5520FEF7D8
:10189C00B0FCE071084807F075FB084E651E073474
:1018AC0015F8011F304607F06DFBA542F8D104482E
:1018BC0007F0D0FB002070BD5BA5000861A50008F7
:1018CC005CAC0008024B187D00F00100704700BFB3
:1018DC007002002008B5002207210A20FEF7B1FC97
:1018EC001C210C20FEF792FC00210D20FEF78EFC33
:1018FC0001220E201146FEF7A4FCBDE80840002290
:10190C0001210E20FEF79DBC08B500212220FEF718
:10191C007DFC00212020FEF779FC012204201146D9
:10192C00FEF78FFC01211020FEF770FCFFF7D2FFB1
:10193C00BDE80840FEF77EBD08B500211020FEF77B
:10194C0065FCBDE8084001212120FEF75FBC08B50D
:10195C0001211F20FEF75AFCBDE80840012006F0CB
:10196C00FBB800211F20FEF751BC37B5FFF7EFFF86
:10197C00FFF7F7FF002201210F20FEF762FC08227F
:10198C0069463020FEF752FC6D462824204601346F
:10199C0015F8011BE4B2FEF739FC302CF6D103B07C
:1019AC0030BD000070B5002206460C460F20012108
:1019BC00FEF747FC01211020FEF728FC74211120B2
:1019CC00FEF724FC40211220FEF720FC03211320FB
:1019DC00FEF71CFC00211520FEF718FCC825012081
:1019EC0006F0BAF81620FEF704FC030610D410F02B
:1019FC00380F08D01620FEF7FCFB01460D4807F007
:101A0C00C1FA012070BD013D15F0FF05E7D1F8E7E3
:101A1C004520FEF7EEFB000220804420FEF7E9FB98
:101A2C002388184320804320FEF7E3FB307000200E
:101A3C00E8E700BF69A5000838B50022012105467A
:101A4C000F20FEF7FEFB01211020FEF7DFFB7421B7
:101A5C001120FEF7DBFB00211220FEF7D7FB05213E
:101A6C001320FEF7D3FB00211520FEF7CFFBC82473
:101A7C00012006F071F81620FEF7BBFB03060146A9
:101A8C0009D50B4807F0E6FA052229463B20FEF75C
:101A9C00CDFB002038BD10F0380F04D0054807F0FE
:101AAC0071FA0120F6E7013C14F0FF04E0D1F8E7ED
:101ABC009BA50008BEA5000808B50420FEF799FBFD
:101ACC0040F00101C9B20420FEF7A0FB0021202048
:101ADC00FEF79CFB00212220FEF798FB0121102031
:101AEC00FEF794FBFEF790FCBDE80840FEF7A2BCA5
:101AFC0008B5084807F046FA01211020FEF786FBCE
:101B0C00FEF798FC03212220FEF780FBBDE808407D
:101B1C00FFF7E0BE17A6000808B501212220FEF74A
:101B2C0075FBBDE8084000211020FEF76FBB0000DC
:101B3C00DFF8C4C02DE9F0416646069D571E03EB45
:101B4C008304C2F1010202EB070E744548DCDB434F
:101B5C00DB0F002B14BF2246002204F1010308BF47
:101B6C000123B154090AF154531C411E334407306C
:101B7C0011F8014F814203F8014FF9D102F10A012A
:101B8C000B4600223F2B30DD1C4E1C4A6C1E1A48A3
:101B9C0089B201F077FE23463246133512F8011B49
:101BAC0013F8010F884223D0154807F0EBF90027F2
:101BBC00DFF85080404616F8011B013707F0E2F9B8
:101BCC00142FF7D1104807F0DDF90E4E14F8011F51
:101BDC00304607F0D7F9AC42F8D10120BDE8F081CE
:101BEC0017F801EF0CF801EBADE7F2540133C9E73C
:101BFC00AB42D3D10020F1E7D8020020C402002070
:101C0C003EA600084AA4000844A60008F8B50646FB
:101C1C000C4689B3C0B301211020FEF7F7FA7421EA
:101C2C001120FEF7F3FA43211220FEF7EFFA04EB32
:101C3C008401C9B21320FEF7E9FA00211520FEF742
:101C4C00E5FAC825A7001620FEF7D3FA03060146CD
:101C5C0014D5124807F0FEF91148274407F092F901
:101C6C0000241720FEF7C5FA30550134E4B2BC420B
:101C7C00F7DB0C4807F0EEF9002006E010F0380F07
:101C8C0004D0094807F07EF90120F8BD0520013D7C
:101C9C0005F062FF15F0FF05D5D1F5E74DA600085C
:101CAC0072A600085CAC000890A6000838B5044683
:101CBC00002844D001211020FEF7A8FA742111202D
:101CCC00FEF7A4FA20211220FEF7A0FA142113200B
:101CDC00FEF79CFA00211520FEF798FAC82516206D
:101CEC00FEF787FA0306014623D51B4807F0B2F925
:101CFC00002201210F20FEF7A4FA0025E9B25020A2
:101D0C00FEF784FA5120FEF774FA20705220FEF789
:101D1C0070FA60705320FEF76CFAA0705420FEF736
:101D2C0068FA0135052DE07004F10404E6D10020B9
:101D3C0006E010F0380F04D0084807F023F9012012
:101D4C0038BD0520013D05F007FF15F0FF05C6D194
:101D5C00034807F07FF9F2E7D0A60008F0A60008C8
:101D6C002BA700087FB5654807F074F90DF10E013B
:101D7C000DF10D00FFF716FE022005F0EDFE06201A
:101D8C00FEF737FA830706D05D4807F063F9FFF7D3
:101D9C00AFFE0124AEE0FFF7CFFD37240620FEF79F
:101DAC0028FA8607F3D10A20013C05F0D5FE14F081
:101DBC00FF04F3D10A24534E2146304607F0E2F8D3
:101DCC000620FEF716FA850701D04F48DDE70620FE
:101DDC00FEF70FFA400701D54C48D6E70720FEF76F
:101DEC0008FA10F0010501D04948CEE7410722D589
:101DFC0010210C20FEF70AFA29460D20FEF706FAF0
:101E0C0001220E201146FEF71CFA2A4601210E2053
:101E1C00FEF717FA3F4807F01DF94FF4FA743E4DE0
:101E2C002146284607F0AEF80620FEF7E2F98207B5
:101E3C0008D03A48A9E7052005F08EFE013CBBD13D
:101E4C003748A2E70DF10E010DF10D00FFF7AAFDC9
:101E5C00012801D1334898E79DF80D309B0612D527
:101E6C00314807F0F7F82146304807F08BF8FEF7B9
:101E7C00CBFAFEF7D4FABDF80E4004F07F05062D20
:101E8C0008D92B4881E7052005F066FE013CC7D137
:101E9C0028487AE714F4086FF3D129462648FFF74F
:101EAC00B5FE01283FF473AF244E3046FFF7FEFE1B
:101EBC0001283FF46CAF2248FFF7B6FC01283FF431
:101ECC0066AF2B4621461C4A1D480096FFF730FE94
:101EDC0001283FF45CAF0620FEF78BF910F00304E9
:101EEC0001D0184851E7FFF717FE174A137D43F04E
:101EFC0001031375204604B070BD00BF56A700083F
:101F0C0073A7000889A70008A4A70008B8A70008B1
:101F1C00C6A7000800A8000845A8000865A8000886
:101F2C0016A800087DA800088DA8000899A800082C
:101F3C00C9A80008ADA80008A40200209002002047
:101F4C0088020020E9A8000870020020F0B5744C4B
:101F5C0087B0237D0E2023F001032375FEF749F98A
:101F6C00C00606D46F4807F075F80125284607B05F
:101F7C00F0BD6D4807F06EF8FFF79EFD00220121C1
:101F8C000F20FEF75EF950250F2005F0E5FD0DF151
:101F9C000E010DF10D00FFF705FD08B16348E2E7F6
:101FAC00C020FEF726F9BDF80E20C10702F48053BD
:101FBC0036D5002B36D09DF80D505D48294606F0DD
:101FCC00E1FF04A8FFF738FD9DF814309DF81120AF
:101FDC0001939DF813309DF81010009355489DF80F
:101FEC00123006F0CFFF0022052104A800231E4664
:101FFC0010F8017B47FA06FC1CF0010F18BF0133E7
:10200C0006F1010618BFDBB2082EF3D101391A44D0
:10201C0089B2D2B20029E9D1142A08D04648A2E7E5
:10202C00002BC8D0013DADB2002DADD1C3E79DF85A
:10203C001430932B11D19DF81330432B0DD19DF8F7
:10204C0012305C2B09D19DF81130DE2B05D19DF897
:10205C001030232B01D1394885E7002201210F20B4
:10206C00FEF7EFF80420FEF7C4F800F0FE010420A0
:10207C00FEF7CCF809212020FEF7C8F8FFF72AFC60
:10208C00FFF773FC00212220FEF7C0F8237D23F01C
:10209C0001032375FEF7B8F90020FEF761F915F07E
:1020AC00400539D1FFF748FCFA26052005F054FD10
:1020BC004620FEF79EF8020604D5237D43F001036B
:1020CC00237553E70720FEF794F8C30719D50421AD
:1020DC000C20FEF79BF800210D20FEF797F801224B
:1020EC000E201146FEF7ADF8002201210E20FEF75E
:1020FC00A8F8134806F0AEFF237D23F001032375E7
:10210C0033E7013EB6B2002ECFD10E4806F0A2FF47
:10211C00237D66F30003F2E7FFF724FE054625E76F
:10212C0070020020F7A800082DA900084AA9000891
:10213C0066A9000884A90008A4A90008B4A900088D
:10214C00C3A90008FBA9000808B548B1FFF7FEFEBB
:10215C00012801D0012008BDFFF7D6FB0020FAE7CB
:10216C00034B1A7D60F300021A75FFF7CDFBF1E704
:10217C007002002008B50120FEF7F2F8FFF7E6FE2A
:10218C00BDE808400020FEF7EBB8000010B50022B7
:10219C0001210F20FEF755F86020FEF72AF80446BF
:1021AC007020FEF726F8054B10F0200F1B6914BFAA
:1021BC009B085B08B3FBF4F010BD00BF700200205D
:1021CC00002201212DE9F8430F20FEF73AF85F2099
:1021DC00FEF70FF8020673D58022F021D720FEF708
:1021EC0030F8012005F0B8FC00228021D720FEF742
:1021FC0028F8D720FDF7FDFF00F00F04D820FDF7DD
:10220C00F8FF240204430F2C58DD1F2C4CDD3F2C0F
:10221C004CDD7F2C4CDDFF2C4CDDB4F5007F4BDB13
:10222C00B4F5806FACBF0024012470212201D720AB
:10223C00FEF707F8D720FDF7DCFF4FF06409002705
:10224C0000F07F0860F07F00C6B23146D720FDF762
:10225C00DDFF012005F080FC4146D720FDF7D6FFBD
:10226C00D720FDF7C6FF00F00F05D820FDF7C1FF02
:10227C002D022843B9F101090744E6D1642297FBEA
:10228C00F2F2104B70201B69DB01B3FBF2F31B0164
:10229C0003FA04F4FDF7ADFFC30602D504EBD474C6
:1022AC0064102046BDE8F8830624BEE70524BCE78D
:1022BC000424BAE70324B8E70224B6E70724B4E7FA
:1022CC000024EEE77002002070B5002208210F20D8
:1022DC00FDF7B7FF0526002401210920FDF76CFF4F
:1022EC00642005F039FC00210920FDF765FF47202B
:1022FC00FDF772FF05024620FDF76EFF05434520F2
:10230C00FDF76AFF2D022843013E0444E4D1082264
:10231C000F201146FDF795FF5D20FDF76AFF4FF486
:10232C007A7264014307094848BF641094FBF0F1CA
:10233C0094FBF2F300FB114002FB134390FBF2F20F
:10234C00034806F01FFE204670BD00BF40420F0040
:10235C0037AA000838B5002201210F20FDF771FFC4
:10236C000822A8201146FDF76CFFB220FDF741FFB3
:10237C0004039120FDF73DFF05469020FDF739FF42
:10238C00C0F3071343EA051004F4805404430022FD
:10239C000821A4B2A820FDF754FF204638BD10B583
:1023AC00002201210F20FDF74CFF0822A820114626
:1023BC00FDF747FF9920FDF71CFF04029820FDF75D
:1023CC0018FF04F47064044300220821A4B2A8206E
:1023DC00FDF737FF204610BD10B5002201210F205C
:1023EC00FDF72FFF0822A8201146FDF72AFFA52094
:1023FC00FDF7FFFE044600220821A820FDF721FF6F
:10240C00C4F3001010BD08B5002203210F20FDF706
:10241C0018FF6F210C20FDF7F9FEBDE808400021E4
:10242C000C20FDF7F3BE000008B50648FDF774FF5D
:10243C0000230121044A1370044A1170044A1370DA
:10244C0008BD00BFE4E60008370300203603002077
:10245C00350300202DE9F04F8DB01646074688460F
:10246C001022002108A8039306F0D4FE00235B4D34
:10247C009B46AA4607934FEA56092A78002A3AD176
:10248C0000244FF0FF352646DFF854910DF11C085F
:10249C0008AB53F824B018F8017B21463B465A464A
:1024AC00484606F06FFD0134B74284BF3E465D4698
:1024BC00042CEDD1022E40F28B803246294649483D
:1024CC0006F060FD1C2169430AEB0102D37E464CE9
:1024DC0013F0010F454B18BF2346D0681AF80110B2
:1024EC00CDE9000393884248528806F04BFD2846FC
:1024FC000DB0BDE8F08F1C2303FB0BA2D27E039B17
:10250C0002F001029A425BD12A8963B991458CBFD2
:10251C00A9EB0202A2EB0902092ACCBF002201227C
:10252C0032B9012421E0B24234BFB21A921BF3E754
:10253C00EA88424534BFA8EB0202A2EB0802272A24
:10254C00CCBF002201220AB902240EE00A21EA685B
:10255C00BA4234BFBC1AD41B4C43B4FBF2F44C4308
:10256C00632C2FD8C4F16704E4B2224659461D48A7
:10257C0006F008FDDCB1002107AA12F8010BA042FD
:10258C0022D20CAB03EB81030493049A5B4652F802
:10259C00102C1848059106F0F5FC059901F1300353
:1025AC000DEB0301049B01F8144C43F810BC0BF128
:1025BC00010BBBF1850F05F11C057FF45EAF5FE7E6
:1025CC000024D2E70324D0E701310429D5D1EEE76A
:1025DC00094806F03FFD4FF0FF3588E758D8000852
:1025EC0072AA000877AA000850AA000852AA00088C
:1025FC008AAA000854AA0008ABAA000829B1012332
:10260C00124A1370124A13707047162810D80028FB
:10261C00FAD001210F4B01FA00F00340002BEED150
:10262C000D4A0240002AEBD10C4B034043B97047D2
:10263C00222802D81E28E2D870473D28DFD07047E8
:10264C00024B1970024B1A70704700BF3B030020FD
:10265C003A03002030001900460022008800440094
:10266C002DE9F74FFDF752FEFFF7AAFD0446FFF7E1
:10267C0071FE0646FFF793FE0546FFF7ADFEDFF849
:10268C006C910746D9F800303246A34234BFA4EB14
:10269C00030AA3EB040A21462B465548CDF800A0AB
:1026AC0006F070FC534B0EB105B124B900221A7020
:1026BC0003B0BDE8F08F1422B4FBF2F2B7FA87F83E
:1026CC005245DFF834B1DFF834A14FEA58185AD22A
:1026DC0001221A702246D9F80010494806F052FC23
:1026EC003246BAF80010474806F04CFC2A46BBF8B4
:1026FC000010454806F046FC444B454893F800C092
:10270C004449002F14BF0A460246BCF1000F18BF03
:10271C000146414806F036FC4049364B404A187891
:10272C00002F18BF0A463F4B3F49002818BF0B46E5
:10273C002146CDE900233D482B46324606F022FCCB
:10274C000120FDF70DFE43462A4631462046FFF791
:10275C0081FEB5F5FA6F4FF00003354A354931D992
:10276C0000283EDB13701C234343334FF818FB5CEB
:10277C000B704378314809780370314B10781C602A
:10278C00FFF73CFF14E0BAF80020B24234BFB21A93
:10279C00921B142A84BF01221A70BBF80020AA4293
:1027AC0034BFAA1A521B142A92D81A78002A91D133
:1027BC00164BC9F80040AAF80060ABF8005083F83B
:1027CC00008075E700280CDB4FF01C0C0CFB00F0B4
:1027DC00194F0B7007EB000C385C9CF80130107033
:1027EC00C8E713700B700023C4E700BF2003002060
:1027FC00DCAA0008C50300201A0300201C030020DB
:10280C0050AB000864AB000878AB0008180300203C
:10281C00B7AA000813CA00081FAB0008B9AA000821
:10282C00C4AA0008CDAA0008D0AA000835AB00083D
:10283C003E0300203D03002058D800083C03002034
:10284C004003002070B5944E0546347814F0030410
:10285C0004D0012C08D1022918BF0C46222D3ED8D9
:10286C00ADB98E4B1D7070BD022C03D1012918BF60
:10287C000C46F3E70C46F1E7052A00F23E81DFE84F
:10288C0012F0DC00EC00FB003C013C012D016B1E46
:10289C00212B00F23281DFE813F02E0057005D008F
:1028AC006A00700073007E0030013001300130018D
:1028BC0030013001300130018B009A009D00A000E6
:1028CC00A300A600A9003001300130013001300115
:1028DC00300130013001AC00AF00B200B5003D2D2D
:1028EC0000F0A480A5F15D02D3B2052B4FF00003DC
:1028FC00C2D91D46B5E70122694B1A70694B6A4A69
:10290C001A600023694A1370694A1370694A13707C
:10291C00694A1370012C03D0A31E5C425C41640015
:10292C006449664A0978137801290CBF43F01003F7
:10293C0003F0EF03012D14BF43F0200303F0DF037A
:10294C000125347013708CE70222554B1A70554BCD
:10295C005B4AD5E70322524B1A70524B584A01215D
:10296C001A600023514A1370514A1170CEE70422A9
:10297C004B4B1A704B4B534A1FE00522484BF8E760
:10298C000622474B1A70474B4F4A1A600122474B9D
:10299C001A700023B8E70722414B1A70414B4A4A80
:1029AC001A600123414A1370414A13700023ADE7AA
:1029BC0010223B4B1A703B4B444A1A6000233B4A93
:1029CC003B49137001220A703A490A70A0E71122A0
:1029DC00334BBBE71222324BBEE71322304BC8E716
:1029EC0014222F4BC5E715222D4BCBE716222C4B6F
:1029FC00D3E71F222A4BDDE72022294BB9E72122FE
:102A0C00274BB6E72222264B29491A70254B2D4A13
:102A1C002F481A600023254A137001220A70254999
:102A2C000A70254A137006F015FB73E700231C4A45
:102A3C00244913701B4A1160C1E7194A25491370C8
:102A4C00184A1160194A13700123194A1370194A54
:102A5C0013700322184B1A705CE7114A1D4913704E
:102A6C00104A1160114A13700123114A1370114A54
:102A7C0013700222104BEEE7094A16491370094AEB
:102A8C0015481160094A13700123094A1370094A49
:102A9C001370094A1370C6E708000020C503002014
:102AAC003E0300204003002040787D013C030020C1
:102ABC003B0300203A0300203D0300200A000020C5
:102ACC00C0FC9B0110F76C0460FECD0020EED90811
:102ADC008CAB000840DCB311C4AB0008084A0949B0
:102AEC001370094A1160094A13700123084A1370C4
:102AFC00084A13700422084BADE70025B1E600BF6D
:102B0C003E03002040DCB311400300203C030020B6
:102B1C003B0300203A0300203D03002082221B4B84
:102B2C0010B41A7002225A700D229A70184A127838
:102B3C00012A28D0022A0CBF502210221A71154AE1
:102B4C00154C12782478012A0CBF20221022012C5B
:102B5C000CBF6FF07F044024224342F008025A71EC
:102B6C00002201F00301D87119720120074910BC31
:102B7C009A715A729A72DA721A735A739A73DA7366
:102B8C001A74FEF7C9BC3022D8E700BF44030020FA
:102B9C00080000203B0300203A03002008B5022166
:102BAC000B4806F0EFF984230A4901200B700A2325
:102BBC008B7007230B710023C1F80530C1F8093065
:102BCC004B731F23CB71BDE808404870FEF7F1BC76
:102BDC00F9AB00084403002013B50D4B1B78ABB1C7
:102BEC000024FFF7DBFF0B4B0B481A780B4B2146ED
:102BFC001B68009402FB0333094A0193094B1268CA
:102C0C001B780078FEF7F6FA074B1C7002B010BD6B
:102C1C00380300203C03002000000020400300206B
:102C2C000400002001000020C403002073B5214BD8
:102C3C00214D1B7883B3FFF7A9FA204B98422EDC69
:102C4C001F4B98422DDC1F4B98422CDC1E4B98429C
:102C5C002BDC4AF6C873984229DC48F6A0434AF6A6
:102C6C0044429842D8BF4FF4FA42184B184E1C7885
:102C7C00326084B92B6893420DD01146154806F08A
:102C8C0081F9FFF78BFFCDE9004408232146802012
:102C9C003268FEF7AFFA33682B6002B070BD0E4A93
:102CAC00E3E70E4AE1E70E4ADFE70E4ADDE74BF6B3
:102CBC008032DAE7380300202403002060DE0200B3
:102CCC0080320200486B010080380100C5030020EF
:102CDC000400002012AC000800EE020010B102004B
:102CEC00007701008858010081230A4920220B70CB
:102CFC0005238B7003230B710C2301204B710023D4
:102D0C00CA71054A487012788B710A724B72FEF7C1
:102D1C0098BC00BF440300203D0300202DE9F7437D
:102D2C003B4A3C4F14683B7803FB0444FDF7EEFA36
:102D3C000546FDF7E5FA0646FEF79AF90020FFF77F
:102D4C0003FA354B9C4207D9212E4FD1334803B09F
:102D5C00BDE8F04306F07EB9314B9C4294BF002491
:102D6C0001242846FDF7AEFD15F0020F2D4E03D0C1
:102D7C0029463078FDF7ACFD33782B4D01932B7839
:102D8C00DFF8A890DFF8A8800093214699F800306E
:102D9C0098F80020274806F0F5F83278297826486C
:102DAC0006F0F0F820462B7899F8002098F80010DF
:102DBC00FEF728F82C78FCB1204B1978C1B1FFF73D
:102DCC0093FF39783078FFF7A9FEFFF705FF1C4B0E
:102DDC001B7803F0FF00C3B9FDF7C2FA0022194BB0
:102DEC001A7003B0BDE8F043FEF73CBC0224B8E710
:102DFC000846FEF726FCE4E721462046FEF78CFB4E
:102E0C0021462046FEF71DFCE1E70120E4E700BF68
:102E1C00400300203C0300200095BA0A35AC0008A2
:102E2C0000B4C4043E030020390300200800002035
:102E3C000A0000205EAC000890AC00083D030020A6
:102E4C00F0030020C50300202DE9F04F0026BB4FF6
:102E5C00BB4D97F826308BB023F003032946304640
:102E6C0087F8263087F82060FE618024FDF7FEFC91
:102E7C002A4612F8013B013C334414F0FF04DEB245
:102E8C00F7D1AA786B781340EA7813402A7913406B
:102E9C006A791340AA791340FF2B68D12A78E97913
:102EAC000A43324363D11A46CDE90334CDE90133E9
:102EBC0000932146A34806F065F895F87E30002B68
:102ECC0000F03A81042B28BF0423079301230693B7
:102EDC009B490698FDF7CAFC04469B4806F0BAF8D5
:102EEC00A8460026013640F60A5218F8011B9748EE
:102EFC00F6B206F047F8802EF4D1002C2FD08F4B71
:102F0C0093F8262012F0020229D18D490978022962
:102F1C0025D18B494978032921D18949DA758878DB
:102F2C00C9781A761970FF215A8059705A601A8123
:102F3C000423DFF80C820890089A9A421BD87F4C25
:102F4C00834994F82630834843F0010384F82630F3
:102F5C0006F018F8E169804806F014F80124069B85
:102F6C00079A013306939DF818309A42B0D2204646
:102F7C000BB0BDE8F08F18F803B05C1C4FEA5B1285
:102F8C00013A0BF01F06E4B2032A00F2D280DFE80C
:102F9C0002F0022B62C20321B6FBF1F1DFF89C9127
:102FAC006E4889F80A1005F0EDFF4B46002199F8A0
:102FBC000A0008EB0402814205DA042902F103023B
:102FCC0003F1030302D13319DBB2B5E712F803CCDA
:102FDC00013183F808C012F802CC83F809C012F84A
:102FEC0001CC83F80AC0E6E7FF234FF0000BDFF8B3
:102FFC004CA108EB04098AF80130B345E3DA99F8DF
:10300C000030590622D4012003F07F01C3F3C30220
:10301C0003F0070300FA03F30AEB020090F802C076
:10302C00099143EA0C03DBB283704D4805F0AAFF0B
:10303C0099F90030002B09DA9AF801300999FF2B25
:10304C0004D148488AF8011005F09CFF0BF1010BE4
:10305C0009F10109D1E7DFF810A1DFF8E0900AF1DE
:10306C00FF331A5D1AF804102B5D02EB012003EB01
:10307C000020C9F81C0000903C4805F083FF40F686
:10308C000343D9F81C209A429DD199F82630052E7D
:10309C0043F0020389F826300AF101031B5D89F81D
:1030AC0017300AF102031B5D89F818300FD90AF1A9
:1030BC0003031B5D062E03F0700318BF0AF1040A0C
:1030CC0089F820301CBF1AF8043089F821301BF025
:1030DC00180F3FF478AF264A135D1257002AB4BF7D
:1030EC004FF00A0A4FF0080A5A0648BF0AF1020AC2
:1030FC009B067FF568AF51461E4805F043FF104B09
:10310C00A24413F80A3099F82620DB0963F38202F3
:10311C0089F8262057E718F80420043387F8232071
:10312C00154A125D87F824200F4A125D87F8252076
:10313C004AE72644F3B2FFE6012418E7C80300204F
:10314C0044030020A6AC00085CAC0008CEAC000820
:10315C0062AD00086AAD000875AD0008DCAC000873
:10316C00FCAC000826AD00084603002034AD000876
:10317C004B03002051AD0008450300202DE9F84316
:10318C00824D834F834A39462846834EFDF782F998
:10319C000E20FDF72EF833782A78134304D140061D
:1031AC0042BF01232B703B7004F0D0FC3B780446EB
:1031BC00002B43D02D7875BB784A1368C31A092BA2
:1031CC0002D800233B7024E010600146744805F0DF
:1031DC00D9FE0120FDF7C4F8FDF75AFBFFF713F9F0
:1031EC00FDF70CF901226F4B35701D706E4B3D7065
:1031FC001D706E4B1D706E4B1D706E4B1A706E4BAE
:10320C001D706E4B1D706E4B1D706E4B1C606E4BAB
:10321C001D60BDE8F883012D14D1604A1368C31AF0
:10322C00092BCED901461060684805F0ABFE284644
:10323C00FDF796F8644B35701C60C2E72B7832783A
:10324C00002B71D03378012B0BD15F4B1B68E31A29
:10325C004F2BDED95B4B1B68E41AF92CD9D902230E
:10326C0033703478022C34D10120FDF779F8FDF756
:10327C00BFF83D210420FCF7C9FF204604F06CFC8C
:10328C0000210420FCF7C2FFFFF7BDF80023032444
:10329C00484A494D494FDFF82881DFF834911370C3
:1032AC002B703B7088F80030FFF7CEFD99F8263074
:1032BC00990740D10A20013C04F04EFC14F0FF04A5
:1032CC00F2D100202870387088F80000FEF73CFF1F
:1032DC003DE0032C9DD12F4C23782BB1FFF7C0F987
:1032EC00FFF7A4FC002323702E4C23781BB1FFF7AF
:1032FC0015FD00232370FDF71FF860B1FEF7E2FA0D
:10330C00044640B90120FEF71FFF01280CBF2046E0
:10331C000120FDF725F8244B1B78002B3FF479AFE7
:10332C00BDE8F843FFF758BC002A3FF472AF264AB9
:10333C00337013606DE79B07C3D5012399F8002008
:10334C002B70520648BF3B70002388F800300024D5
:10335C00174B1C70FFF7E2FC124B1C70124B1C70CD
:10336C002B7863B11B4D1C4C29782078FFF7D6FBCA
:10337C00142004F0F1FB29782078FFF7CFFB002014
:10338C00FCF7EEFF0323337043E700BF3703002045
:10339C0036030020350300203403002030030020C6
:1033AC0092AD0008C5030020C4030020F1030020E7
:1033BC00F00300200800002039030020380300200F
:1033CC00090000202C03002028030020A3AD0008D6
:1033DC00C80300203C0300203E03002010B5144617
:1033EC000A2392B2024805F0BCFC204610BD00BF77
:1033FC003C04002010B51348134C05F02BFE642040
:10340C0004F0AAFB204600224FF4007104F0E0FC0B
:10341C0000224FF48051204604F0DAFC642004F0C2
:10342C009BFB204601224FF4007104F0D1FC204696
:10343C0001224FF4805104F0CBFCBDE810400A206F
:10344C0004F08ABBB4AD0008000C0140704700B515
:10345C0091B02422002107A805F0DCFE14220021E3
:10346C0001A805F0D7FE022301210693102306A81C
:10347C00CDE90A1305F02EF9014608B172B6FEE744
:10348C000F23CDE90300CDE90130059001A805F02B
:10349C00E3FA08B172B6FEE711B05DF804FB000068
:1034AC007FB504F035FBFFF7D2FF1022002102A8F4
:1034BC0005F0B0FE3C4B4FF4D9719A693B4842F091
:1034CC0004029A619A69002402F004020092009AA4
:1034DC009A69012642F008029A619B69002203F066
:1034EC0008030193019B04F073FC00224FF45E412E
:1034FC002F4804F06DFC02254FF4D9732B4802A918
:10350C00CDE90236CDE9044504F08EFB4FF45E4361
:10351C00274802A9CDE90236CDE9044504F084FB25
:10352C004FF40053224802A9CDE90234049404F06C
:10353C007BFB2048204A214BC0E90244C0E9002310
:10354C004FF48043C0E90644C0E90434046204F03B
:10355C0045FE034608B172B6FEE74FF4E1350C2484
:10356C001748184AC0E90233C0E905430361C36137
:10357C00C0E9002505F0C6FB034608B172B6FEE7AC
:10358C001148124AC0E90233C0E90025C0E90434ED
:10359C00C0E9063305F0B6FB08B172B6FEE7FCF7DE
:1035AC0063FE04F03DFAFAE7001002400008014007
:1035BC00000C01408404002000540040A08601004F
:1035CC003C04002000380140F4030020004400407B
:1035DC002DE9F04FA24BA34EA34CC0E9006303F1BD
:1035EC002943A3F59613A3F68B638360A3F1883369
:1035FC00C360224600234FF0110EDFF870B2DFF8E3
:10360C0070C2C0F810B0B3FBFEF50F2B05EB05151F
:10361C00A3EB05050EDD54F8207C54F80C1C794006
:10362C0054F8387C794054F8407C79404FEAF17179
:10363C0042F82510D0F80090D0E903816144D0E91C
:10364C00017A01EBF9698AEA0801394052F82550F0
:10365C0081EA080149442944013305684FEAB70758
:10366C00142BC0E903A8C0E90015876004F1040419
:10367C00C9D11125DFF8FC91DF1EB7FBF5F101EB89
:10368C0001117F1AA3F10801B1FBF5F404EB04144A
:10369C000C1B52F8244052F827106140A3F10E0481
:1036AC00B4FBF5F707EB0717E41B52F82440614015
:1036BC00A3F11004B4FBF5F707EB0717E41B52F862
:1036CC0024406140B3FBF5F404EB04141C1B4FEADB
:1036DC00F17142F824100469D0E900C7D0E902E87E
:1036EC004C4487EA0E0A04EBFC648AEA080A544448
:1036FC0001330C444FEAB707282BC0E903E8C0E9B3
:10370C0001C70460B8D11127DFF86CA1DD1EB5FB31
:10371C00F7F101EB01116D1AA3F10801B1FBF7F4FC
:10372C0004EB04140C1B52F8244052F82510614091
:10373C00A3F10E04B4FBF7F505EB0515641B52F869
:10374C0024406140A3F11004B4FBF7F505EB05151B
:10375C00641B52F824406140B3FBF7F404EB0414EF
:10376C004FEAF1711C1B42F82410D0E902E84EEA32
:10377C000804D0E9009C0EEA080504EA0C042C436A
:10378C0005690133554405EBF9652C440C443C2B7D
:10379C004FEABC01C0E903E8C0E901910460B5D16E
:1037AC004FF01108DFF8D490DC1EB4FBF8F101EBFC
:1037BC000111641AA3F10801B1FBF8F505EB05152D
:1037CC00491B52F8211052F824404C40A3F10E0131
:1037DC00B1FBF8F505EB0515491B52F821104C40CF
:1037EC00A3F11001B1FBF8F505EB0515491B52F8D7
:1037FC0021104C40B3FBF8F101EB0111591A4FEABF
:10380C00F47442F821400169D0E900E5D0E902C71F
:10381C00494485EA0C0A01EBFE618AEA070A514425
:10382C00013321444FEAB505502BC0E903C7C0E969
:10383C0001E50160B8D10A4B05F1184573444360AA
:10384C0005F53A050E4B05F55C453144FE356344F0
:10385C005F4401608560C3600761BDE8F08F00BF05
:10386C0089ABCDEF01234567D8040020F0E1D2C32A
:10387C009979825AA1EBD96EDCBC1B8FD6C162CA76
:10388C0076543210F8B500251446244AAFB28F4254
:10389C0005F00306C5F38D032BD30EB942F8236054
:1038AC00CD43802005F00305ED00A84052F82350CD
:1038BC002843002542F82300013398B20E2828D95A
:1038CC00C9001748D163FFF783FE224604F11401A7
:1038DC00C378D37050F8043B1B0C937050F8043C25
:1038EC001B0A537050F8043C02F8043B9142EFD190
:1038FC00F8BD0EB942F82360EF43465D07F00307AD
:10390C00FF00BE4052F8237001353E4342F823605D
:10391C00BCE742F823500133CFE700BFD8040020A6
:10392C001C0500200A4B82B09A6942F001029A6190
:10393C009A6902F001020092009ADA6942F0805210
:10394C00DA61DB6903F080530193019B02B070478D
:10395C000010024010B5044686B01022002102A8C7
:10396C0005F058FC2268114B9A421CD1104CC02215
:10397C00A369104843F00803A361A36902A903F0EB
:10398C0008030093009B1223CDE902230323059324
:10399C0004F04AF9E36943F40013E361E36903F4C7
:1039AC0000130193019B06B010BD00BF00540040F2
:1039BC0000100240000C0140102210B5044688B0E3
:1039CC000DEB0200002105F025FC2368274A9342E9
:1039DC002AD1274B4FF400709A6904A942F4804213
:1039EC009A619A6902F480420092009A9A6942F0B4
:1039FC0004029A619B6903F004030193019B022367
:103A0C00CDE9040303231B48079304F00DF94FF48D
:103A1C008063002204930123164804A9CDE90523F1
:103A2C0004F002F908B010BD134A9342FAD1104BBE
:103A3C000421DA690F4842F40032DA61DA6902F4DF
:103A4C0000320292029A9A6942F004029A619B69CE
:103A5C0003F004030393039B0223CDE90413032314
:103A6C0004A9079304F0E0F80823D2E700380140DA
:103A7C00001002400008014000440040FEE7FEE751
:103A8C00FEE7FEE7FEE770477047704704F052B858
:103A9C0070B50D4614460E46731B9C4201DC204645
:103AAC0070BDAFF3008006F8010BF5E74FF0FF3067
:103ABC0070474FF4005300204B6070470120704753
:103ACC00002070470B4A0346116810B509B90A4922
:103ADC001160106809490A4C0344091B8B4206D932
:103AEC0005F0E6FB0C2303604FF0FF3010BD1360B4
:103AFC00FCE700BF30050020A80700200050002084
:103B0C00000400007047000030B50D46642185B0FC
:103B1C00CDE901210446014600932A4601230748BA
:103B2C0004F004FC38B12A462146054805F02AFA6F
:103B3C00002005B030BD0120FBE700BF840400204D
:103B4C00C6AD000830B50D46642185B0CDE9012124
:103B5C000446014600932A460123074804F076FCEC
:103B6C0038B12A462146054805F00CFA002005B06C
:103B7C0030BD0120FBE700BF84040020E1AD00084C
:103B8C007047704708B503F0E1FF034A13681060F3
:103B9C00C31A98B208BD00BF3405002003F0DCBF87
:103BAC001FB5002304460146094800930122007802
:103BBC000DF10F03FFF7C6FF30B9064805F0E2F927
:103BCC002146054805F0DEF99DF80F0004B010BD44
:103BDC00D80100202CAE000816AE0008002330B52A
:103BEC0085B08DF80F10054601460F480093012251
:103BFC0000780DF10F03FFF787FF044670B90B48EF
:103C0C0005F028FA0A4805F0BDF929469DF80F2061
:103C1C00084805F0B7F9054805F01CFAB4FA84F029
:103C2C00400905B030BD00BFD801002040AE0008EF
:103C3C0065AE000878AE000870B505460C46164611
:103C4C00FFF7AEFF20EA0401344021442846BDE8CA
:103C5C007040C9B2FFF7C2BF70B50C46417905463A
:103C6C000122164B164EA9B91A7020222620114695
:103C7C00FFF7E2FF315D2720FFF7B0FF27206D79BA
:103C8C00FFF78EFF2246294603460E48BDE87040DA
:103C9C0005F078B95A7020223E201146FFF7CCFF70
:103CAC00315D3F20FFF79AFF3F206D79FFF778FFDA
:103CBC002246034629460448E8E700BF8C0500204D
:103CCC00D901002097AE0008CAAE000808B5002242
:103CDC0001215320FFF7B0FF00220E215320FFF7E4
:103CEC00ABFF0E2253201146FFF7A6FF00220E2138
:103CFC005320FFF7A1FFC02253201146FFF79CFF72
:103D0C004022C0215320FFF797FFBDE8084001482F
:103D1C0005F0A0B9FDAE0008802208B5114664205C
:103D2C00FFF78AFF002280216420FFF785FF0A201D
:103D3C00FFF734FF00220F215320FFF77DFFBDE872
:103D4C000840014805F086B92CAF000837B5154678
:103D5C0004460A4641B1002301460D480093007801
:103D6C002B46FFF7D1FE80B90A4805F073F90A48D3
:103D7C0005F008F92A462146084805F003F90548DC
:103D8C0003B0BDE8304005F065B903B030BD00BFED
:103D9C00D801002040AE00086CAF000878AE0008D7
:103DAC0010B5044614F8030BFF2800D110BD14F80D
:103DBC00012C14F8021CFFF73FFFF3E74FF480319E
:103DCC000023F0B5C1642349FF224B700B704FF4F4
:103DDC008131C0E915134FF47F01016140F20D519F
:103DEC001D4F1E4E1E4D1F4C7B7073706B7063709D
:103DFC003B7033702B7023704375C382038380F840
:103E0C003F200364A0F8443080F84920A0F84A30E1
:103E1C0080F85330A0F85C3080F85E30C36080F8D6
:103E2C006530A0F866300180837090F8AB3080F874
:103E3C006B2003F0030380F8AB30B0F8AC3080F8A3
:103E4C006C2003F0F403A0F8AC30232380F8AE30E0
:103E5C00F0BD00BF8E0500209605002094050020C3
:103E6C0092050020900500202DE9F74F1C4B0646CB
:103E7C00019349F290431B4FDFF86CA0ADF8003072
:103E8C00E9464FF00208002419F8013B0DF1040B30
:103E9C003B70E0B2FFF784FE0546024621465046D1
:103EAC0005F070F81BF8013BAB420ED10134042C29
:103EBC00EFD139780D4805F065F82046FFF770FE14
:103ECC0086F8AF0003B0BDE8F08F3978084805F0EC
:103EDC0059F8B8F1010FD3D04FF00108D3E700BF68
:103EEC0054490268D801002081AF0008C5AF000812
:103EFC0094AF000800F0030203210F20FFF79CBED3
:103F0C0010B59A20FFF74CFE40F6F434B4FBF0F4F5
:103F1C000E48214605F036F8142CD5BF102200228D
:103F2C00114610215020FFF787FE0120FFF7E2FF1A
:103F3C00642CD3BF2022002220211146B820FFF789
:103F4C007BFEBDE810400020FFF7D4BFECAF0008AB
:103F5C0038B505465120FFF723FE04460A20FFF72B
:103F6C001FFEAB7C04F00104A34214BF0020C0F37D
:103F7C00C01038BD01280CBF0B200A2008B5FFF774
:103F8C000FFE00F00800003818BF012008BD00002B
:103F9C00012838B523494FF00004234A234B244D04
:103FAC001FD14C705470FF2122463A205C70FFF7F1
:103FBC0043FE224620213E20FFF73EFE1D4805F021
:103FCC0049F8FF2385F8493095F85C3085F84F4067
:103FDC0003F00F036C76EC7585F85C3085F85E4069
:103FEC0038BD0C701470FF21224622201C70FFF784
:103FFC0023FE224620212620FFF71EFE0E4805F048
:10400C0029F8FF2385F83F3095F85C3085F845405A
:10401C0023F00F032C76AC7585F85C3085F85D4089
:10402C00DEE700BF96050020940500208C050020DB
:10403C00A405002016B0000852B0000838B5404D59
:10404C0004465120FFF7ACFD2B78942B03D100F0E4
:10405C000100A04272D1012C40D13A4804F0FAFF81
:10406C002046FFF747FF00221021C520FFF7E4FD93
:10407C002B78942B27D1B920FFF792FD010620D580
:10408C0000228021B920FFF7D7FD1022C520114650
:10409C00FFF7D2FD0020FFF72DFF2B4804F0DAFFCD
:1040AC003822FF213A20FFF7C7FD04223A2011469F
:1040BC00FFF7C2FD002204213A20BDE83840FFF78B
:1040CC00BBBD8022DDE7C920FFF76AFD020653BFA6
:1040DC008022002280211146C920D4E71B4804F01D
:1040EC00B9FF0120FFF706FF00221021B520FFF7D2
:1040FC00A3FDB920FFF754FD030655BF8022002213
:10410C0011468021B920FFF797FD1022B5201146EA
:10411C00FFF792FD0020FFF7EDFE0D4804F09AFF2B
:10412C003822FF212220FFF787FD0422222011468E
:10413C00FFF782FD002204212220BEE738BD00BF1C
:10414C00D80100208EB00008C2B0000802B10008EF
:10415C0036B100082DE9F04105469C4804F07AFF81
:10416C00012D9B4F9B4E6ED19220FFF719FD0546FA
:10417C009020FFF715FD4DB144074FD54FF4C054B7
:10418C00B4FBF5F49448214604F0FCFE3B78942BE8
:10419C0007D1233C7D2C8CBF00213F213820FFF719
:1041AC001DFD3820FFF7FCFC01468C4804F0EAFEAC
:1041BC000120FFF79FFEC120FFF7F2FC0446C2204E
:1041CC00FFF7EEFC21460246854804F0DBFE00209A
:1041DC00FFF790FE757845BB0120FFF78BFEDC20C6
:1041EC00FFF7DEFC04462846FFF784FEA4B97D48A1
:1041FC0004F030FF3822FF213A20FFF71DFD042286
:10420C003A201146FFF718FD224604213A20FFF709
:10421C0013FD754B83F85440BDE8F08100074CBF8B
:10422C004FF440544FF44064AAE7704804F012FF76
:10423C006D4B93F85C2042F0500283F85C20032213
:10424C0083F85E20E8E79020FFF7AAFC0546912052
:10425C00FFF7A6FC29460246654804F093FE912020
:10426C00FFF79EFC05469020FFF79AFC4DB1C10765
:10427C007ED54FF4C054B4FBF5F45E48214604F0EF
:10428C0081FE3B78942B2DD10A20FFF789FC10F08E
:10429C0040054FF0010072D0FFF72CFE2022B12018
:1042AC001146FFF7C9FC01220721B220FFF7C4FC1D
:1042BC00B120FFF775FC0546B220FFF771FC2946CB
:1042CC0002464D4804F05EFE0020FFF713FE3B78DB
:1042DC00942B07D1233C7D2C8CBF00213F21202027
:1042EC00FFF77CFC2020FFF75BFC0146434804F001
:1042FC0049FE0A20FFF754FC43060FD50120FFF7B7
:10430C00F9FD00228021B820FFF796FC002207213E
:10431C00B620FFF791FC0020FFF7ECFD3678324C0D
:10432C00002E46D10120FFF7E5FDD420FFF738FC25
:10433C0005463046FFF7DEFD9DB9314804F08AFE94
:10434C003822FF212220FFF777FC0422222011467D
:10435C00FFF772FC2A4604212220FFF76DFC84F83B
:10436C00535094F85C3023F0070384F85C3053E727
:10437C0082074CBF4FF440544FF440647BE7FFF787
:10438C00B9FD2A462021B120FFF756FC0422072153
:10439C00B220FFF751FCB120FFF702FC8046B2209F
:1043AC00FFF7FEFB41460246134804F0EBFD28469E
:1043BC008BE7144804F04EFE94F85C3043F0050390
:1043CC0084F85C30032384F85D3025E776B100086F
:1043DC00D80100209605002086B100089EB1000887
:1043EC00B2B10008D4B10008A405002005B2000841
:1043FC003AB200085AB2000872B2000894B200082F
:10440C00A8B20008D9B2000838B50546904804F0A7
:10441C0021FE8F4804F01EFE8D4804F01BFE8C48D4
:10442C0004F018FE8A4804F015FE894804F012FEC8
:10443C00012D884C64D1647804F03F043F2C40F08B
:10444C0005810022844B3E205D70844B5A70FFF72F
:10445C00A7FB0146824804F095FD20223E20114620
:10446C00FFF7EAFB3E20FFF79BFB01467C4804F07C
:10447C0089FD7C4B20465978022994BF032101F019
:10448C007F01FFF7ABFB784B40205978022994BF92
:10449C00032101F07F01FFF7A1FB744B41205978F8
:1044AC00022994BF032101F07F01FFF797FB704AAB
:1044BC00704892F85C3023F0700382F85C3004F0A2
:1044CC00C9FD3F20FFF76CFB01466B4804F05AFD19
:1044DC004020FFF765FB0146684804F053FD41207E
:1044EC00FFF75EFB0146664804F04CFD00213A20C4
:1044FC00FFF774FBC021BDE83840D020FFF76EBB3E
:10450C000A20FFF74DFB10F040005BD0247804F03C
:10451C000304032C40F09A8001224F4B26201A7082
:10452C0000224E4B4F4D1A70FFF73AFB014655488F
:10453C0004F028FD202226201146FFF77DFB2620C3
:10454C00FFF72EFB01464F4804F01CFD2978022989
:10455C0029D821462720FFF741FB21462820FFF7C9
:10456C003DFB21462920FFF739FB474804F072FD3B
:10457C002720FFF715FB0146444804F003FD2820D3
:10458C00FFF70EFB0146424804F0FCFC2920FFF724
:10459C0007FB01463F4804F0F5FC00212220FFF701
:1045AC001DFB3021A7E701F07F012720FFF716FB49
:1045BC002978282001F07F01FFF710FB297801F002
:1045CC007F01CFE7237803F03F033F2B3ED101223D
:1045DC00214B1A70214B18702620FFF7E1FA014687
:1045EC00284804F0CFFC202226201146FFF724FB9C
:1045FC002620FFF7D5FA0146224804F0C3FC194BDC
:10460C0027201978022994BF032101F07F01FFF7BD
:10461C00E5FA154B28201978022994BF032101F0E3
:10462C007F01FFF7DBFA114B29201978022994BF7F
:10463C00032101F07F01FFF7D1FA0D4A164892F8D9
:10464C005C3023F0070382F85C308FE738BD00BF85
:10465C000EB3000894050020960500208C05002060
:10466C0056B3000892050020900500208E0500200E
:10467C00A405002073B30008A6B30008DEB300083D
:10468C0016B400084EB400086BB40008A2B40008BD
:10469C00DEB400081AB5000856B5000870B5037AE8
:1046AC00C27904469A4238BF1346427A2CBF012580
:1046BC000025934228BF02251F4E38BF1A462946B3
:1046CC00735D1E4804F05EFC6379F3B92720FFF795
:1046DC0067FA020604D46079BDE87040FFF794BE17
:1046EC00202226201146FFF7A7FA715D2720FFF73D
:1046FC0075FA27206479FFF753FA2A4621460346B8
:10470C000F48BDE8704004F03DBC3F20FFF748FA6D
:10471C000306E0D520223E201146FFF78DFA715D8D
:10472C003F20FFF75BFA3F206479FFF739FA2A46FE
:10473C00034621460348E4E7D901002089B5000867
:10474C00CFB50008FFB5000810B5044681780B48BA
:10475C0004F018FC23783C2B02D8A378E37110BD2D
:10476C00462B02D8A3782372F9E7502BF7D8A378FD
:10477C0020466372BDE81040FFF790BF2FB60008CB
:10478C0010B5A820FFF70CFA04465120FFF708FAE1
:10479C0000F0010314F0010000D01BB114F0100064
:1047AC0018BF184610BD08B528B90A20FFF7F8F94C
:1047BC0000F0010008BD0B20F8E738B50A20FFF720
:1047CC00EFF905460B20FFF7EBF900F0020451203E
:1047DC00FFF7E6F9AB0700F0010000D520B1002C83
:1047EC0018BF0446204638BD0124FBE710B504462B
:1047FC000220FFF77FFB1520FFF7D2F9C0F3411021
:10480C0084F85F001620FFF7CBF9801184F8600064
:10481C001720FFF7C5F9C0F3021084F861001720C8
:10482C00FFF7BEF9C0F3810084F862001820FFF78F
:10483C00B7F900F07F0084F864001920FFF7B0F995
:10484C00801184F863000020FFF754FB94F8623069
:10485C003BB994F86430012B8CBF0123022384F8FC
:10486C00623094F85F100F4804F08CFB94F86010E1
:10487C000D4804F087FB94F861100C4804F082FB9F
:10488C0094F862100A4804F07DFB94F8641009480F
:10489C0004F078FB94F863100748BDE8104004F06E
:1048AC0071BB00BF5CB6000870B6000886B6000885
:1048BC00A4B60008C3B60008D1B6000838B5044643
:1048CC000220FFF717FB1520FFF76AF905460020B9
:1048DC00FFF710FB237DC5F3411023F003030228DF
:1048EC0084F86C50237523D0032830D0012827D0AE
:1048FC001A4804F047FB0220FFF7FCFA1720FFF7D9
:10490C004FF9237DC0F3810001280CBF43F0200335
:10491C0003F0DF0323750020FFF7ECFA7120FFF79B
:10492C003FF9BDE8384000F0FB017120FFF756B9A4
:10493C000B4804F027FB237D43F002032375DAE7D1
:10494C00084804F01FFB237D43F00103F6E70648FB
:10495C0004F018FB237D43F00303EFE716B70008C0
:10496C00F0B6000803B7000828B7000838B50446AD
:10497C000220FFF7BFFA1620FFF712F905460020B8
:10498C00FFF7B8FA05F0C000402804D1237D23F0CE
:10499C001003237538BD8028FCD1237D43F0100310
:1049AC00F7E700002DE9F8430746AF4804F052FB47
:1049BC000120FFF79FFA10217020FFF70FF98021DB
:1049CC007120FFF70BF900217220FFF707F9002087
:1049DC00FFF790FAFC7C04F00304012C73D0022C3A
:1049EC0004D0002C00F09080002482E09F4804F05A
:1049FC0031FB3B7D03F00303022B58D0032B2AD051
:104A0C00012B56D09A4804F025FB00240022782173
:104A1C006720FFF711F900216820FFF7DFF89548B0
:104A2C0004F018FB3B7DDB0640F1E280924804F079
:104A3C00A9FA3B7D9E0640F1D380904804F00AFB16
:104A4C000120FFF757FA8E4A15217020FFF77EF9E7
:104A5C00002602258FE08B4804F0FCFA0024802607
:104A6C003D7D15F0030540F04E8197F86290B9F149
:104A7C00010F40F02B81F87C10F020087BD182488C
:104A8C0004F0E8FA4846FFF735FA15217F4A702002
:104A9C00FFF75CF94046FFF72DFA782267201146A4
:104AAC00FFF7CAF8ED216820FFF798F8D0E77848AF
:104ABC00D2E7784804F0CEFA97F91330FC7C002B3F
:104ACC0015DA052415E03B7D03F00303012B12D00E
:104ADC00022B08D0002B87D1654804F0BBFAFC7C74
:104AEC00C4F3801492E76A4804F0B4FAFC7CC4F373
:104AFC0080140026B4E7674804F0ACFA97F9133039
:104B0C00002BBFF671AFDCE7634804F0A3FA3B7DE2
:104B1C0003F00303012B59D0022B04D0002B7FF49C
:104B2C0063AF534898E75A4804F094FA5B4804F092
:104B3C0029FA002278216720FFF77EF800216820EF
:104B4C00FFF74CF84B4804F085FA3B7DD80675D539
:104B5C00494804F017FAFB7C990667D5504804F0D5
:104B6C0079FA0120FFF7C6F94E4A15217020FFF79C
:104B7C00EDF8002603250020FFF7BCF92A46032197
:104B8C006520FFF759F8224607216720FFF754F8F4
:104B9C0045B978212A466720FFF74EF82946682048
:104BAC00FFF71CF8324680215120FFF745F897F8A3
:104BBC00AF30C02B00F0AB80002E00F0A68000229E
:104BCC00BDE8F84303215020FFF736B8314804F014
:104BDC0041FA97F91330FC7C002B24DA0524A5E765
:104BEC00314804F037FA0120FFF784F92F4A2BE7FC
:104BFC002F4804F0C7F93B7D01209D060AD5FFF72D
:104C0C0079F9702015212B4AFFF7A0F81B4804F006
:104C1C0021FA1DE7FFF76EF970201521264AFFF7E0
:104C2C0095F82148F3E7C4F380147FE7234804F098
:104C3C0011FA0120FFF75EF9214A96E71C4804F0AF
:104C4C00A1F9FB7C9A0607D5154804F003FA01205C
:104C5C00FFF750F91B4A88E7184804F0FBF90120CC
:104C6C00FFF748F9184A80E73BB700085CB7000823
:104C7C00B1B70008DBB70008F6B70008FEB70008AC
:104C8C00A7E7000872B7000824B8000814E700086A
:104C9C0087B700089CB70008C6B7000815B800080D
:104CAC00FFB7000853E7000806B8000892E70008B1
:104CBC000DB80008D1E70008BCE7000807B80008E9
:104CCC003EE700087DE7000868E70008B9F1020F2D
:104CDC007FF451AFFB7C9B067FF54DAF0D4804F084
:104CEC00B9F90120FFF706F915210B4A7020FFF7DF
:104CFC002DF82846FFF7FEF8782140226720FEF7B2
:104D0C009BFF1021CFE6002535E7022258E7BDE8CE
:104D1C00F88300BF42B8000829E7000838B50446FC
:104D2C000D467120FEF73CFF227D012D02F0DC02C6
:104D3C0000F0FC03227513D0022D0BD04DB943F0BB
:104D4C0004017120FEF74AFFFF2384F86B3084F8CE
:104D5C006C3038BD43F0060142F002022275F0E7D8
:104D6C0043F0050142F00102F8E7000038B50446B3
:104D7C009A20FEF715FF05460146064804F002F995
:104D8C00237D332D03F0EF0398BF43F010032375FD
:104D9C0038BD00BF60B8000870B5064690F8AF503B
:104DAC009A20FEF7FDFE40F6F431B1FBF0F1F47CF5
:104DBC00337D240104F0300403F00303F92944EAA1
:104DCC00030449DC434804F0DDF82146424804F072
:104DDC00D9F85020FEF7E4FE0146404804F0D2F822
:104DEC00232C29D80F2C14D8012C1DD021D8C02D40
:104DFC0004D000220C215020FEF71EFF80226420DC
:104E0C001146FEF719FF002280216420FEF714FFE3
:104E1C0012E00123103C324AE4B2A3401A40002AAB
:104E2C00E5D1304A1A403AB1C02DE7D000221C21FE
:104E3C00E1E7023C012CDAD9C02D04D1062207216E
:104E4C005620FEF7F9FE5020FEF7AAFEBDE8704092
:104E5C000146224804F096B8234804F093F8214602
:104E6C001D4804F08FF85020FEF79AFE01461B48AF
:104E7C0004F088F8232C29D80F2C14D8012C1DD021
:104E8C0021D8C02D04D008220C215020FEF7D4FECE
:104E9C00802264201146FEF7CFFE00228021642080
:104EAC00FEF7CAFE12E00123103C0D4AE4B2A34007
:104EBC001A40002AE5D10B4A1A403AB1C02DE7D06E
:104ECC0008221C21E1E7023C012CDAD9C02DBAD111
:104EDC000422B4E790B80008CAB80008F5B8000876
:104EEC000A000D000500020021B90008024618B99D
:104EFC0010215020FEF7A0BEFFF702B870B5064691
:104F0C004A4804F0A7F84A4B96F8552053F822006B
:104F1C0004F038F8474804F09DF85120FEF740FEA5
:104F2C0000F09B056520FEF73BFEF37C00F00F04C0
:104F3C0003F00303012B34D0022B35D096F85630F6
:104F4C00012B07D196F85730023B012B02D9304682
:104F5C00FFF722FF96F8AF30C02B0AD196F85630E7
:104F6C00012B24D196F85730023B012B1FD8FEF7AA
:104F7C00C7FF96F85730023B012B09D880226420DA
:104F8C001146FEF759FE002280216420FEF754FEE4
:104F9C0096F85630013B032B0FD8DFE803F00C19C1
:104FAC001E1C44F01004C9E744F02004C6E700209E
:104FBC00FFF79CFFDDE745F0400596F85730022BD4
:104FCC000ED0032B2ED0012B0CD144F0400409E061
:104FDC0045F02005F1E745F0400544F0C004ECE74E
:104FEC0045F004052946144803F0CCFF214613482C
:104FFC0003F0C8FF29465120FEF7F0FD214665203D
:10500C00FEF7ECFD0120FEF775FF00218D20FEF769
:10501C00E5FD00218E20FEF7E1FDBDE8704000208B
:10502C00FEF768BF45F00405CFE700BF5CB9000888
:10503C006001002078B900087DB9000889B9000822
:10504C00C27C02F00302012A06D0022A06D03AB929
:10505C0030216520FEF7F0BD1022F9E72022F7E79A
:10506C007047000010B50446084803F0F3FF2046D3
:10507C00FFF724FC2046FFF779FC2046FFF792FC53
:10508C002046BDE81040FFF7DBBF00BF95B9000814
:10509C0010B50446084803F0DDFF00212046FFF759
:1050AC003DFE2046FFF762FE2046FFF77BFC2046C4
:1050BC00BDE81040FFF7C4BFADB9000810B50446F9
:1050CC00FFF77BFB94F8AB3060F3451384F8AB30FF
:1050DC009B06204616D4FFF7DBFF94F8AB309920E3
:1050EC0023F0800384F8AB30FEF75AFD001105283D
:1050FC0084F869000CD0062817D00E4803F0AAFFDC
:10510C00002209E0FFF772FB2046FFF7ABFFE4E754
:10511C00094803F09FFF04220C216520FEF78CFD4B
:10512C002046BDE81040FFF7E9BE044803F092FFAB
:10513C000822F1E711BA0008C1B90008E9B9000862
:10514C0038B505460C460A460146254803F01AFFB9
:10515C00C5BB0A200CBBFEF723FD10F001050CD0DB
:10516C00204803F077FF0120FEF7C4FE0122032143
:10517C00B020FEF761FD20460BE01B4803F06AFFF0
:10518C000120FEF7B7FE2A460321B020FEF754FD9E
:10519C002846BDE83840FEF7ADBEFEF701FD10F025
:1051AC00010407D0114803F055FF0120FEF7A2FEC1
:1051BC000322E9E70E4803F04DFF0120FEF79AFEAB
:1051CC002246D4E70B4D2CB10B4803F043FF0023D0
:1051DC002B6038BD094803F03DFF0123F8E700BF01
:1051EC0039BA000852BA000868BA00087DBA00083B
:1051FC0093BA000898050020B6BA0008C7BA000890
:10520C0010B50446184803F025FFBCB921462046CA
:10521C00FFF796FF0F2211201146FEF70DFD4FF4FC
:10522C009670FEF7BBFC0F2122461120FEF704FD01
:10523C0001212046BDE81040FFF782BF002101206C
:10524C00FFF77EFF0F2218201146FEF7F5FC4FF4F6
:10525C009670FEF7A3FC0F2100221820FEF7ECFC41
:10526C0001210846E6E700BFD8BA0008022210B5B3
:10527C0011461020FEF7E0FC002202211020FEF760
:10528C00DBFC7B20FEF78CFC044601467B20FEF702
:10529C00A5FC21467B20FEF7A1FC21467B20FEF7D6
:1052AC009DFC2146BDE810407B20FEF797BC0128F1
:1052BC0008B508D1FFF7DAFF0022BDE808401F212E
:1052CC005220FEF7B9BC1F22F7E720227D201146A1
:1052DC00FEF7B2BC10227D201146FEF7ADBC0022B9
:1052EC0010217D20FEF7A8BC38B50446AE20FEF791
:1052FC0057FC00F00F00A070AA20FEF751FC20F024
:10530C000F03237000F00F0305466370AA20FEF70D
:10531C0047FC637800F00F00034315F0600F6370D7
:10532C0008D1AB20FEF73CFCC3075EBF237843F0EB
:10533C000103237038BD10B5437804468B4217D057
:10534C004170042914D8DFE801F00308130D140090
:10535C00022210201146FEF76FFCBDE81040002021
:10536C00FFF7A5BFFFF7B6FFFFF7B9FFC9232382ED
:10537C0010BDFFF77BFFBDE8104000221F2152201B
:10538C00FEF75ABC038A37B5642B38BF6423827886
:10539C00643B9BB2012A0446038273D04278032AF1
:1053AC0052D0042A57D0012A6CD10330FFF79CFF4E
:1053BC0094F90330002B65DA102270215420FEF78B
:1053CC003BFCE278530614D500220C217720FEF723
:1053DC0033FC30227A201146FEF72EFC00223021BD
:1053EC007E20FEF729FC002270215420FEF724FCBD
:1053FC0013E012F020054FF00C014FF008024FF0B3
:10540C00770011D0FEF718FCB02110227A20FEF79D
:10541C0013FC70217E20FEF7E1FBFFF756FFFFF730
:10542C0025FF0321204611E0FEF706FC1022302157
:10543C007A20FEF701FC2A4630217E20FEF7FCFB89
:10544C002A4610217D20D1E7E3B9042103B0BDE841
:10545C003040FFF770BFABB9972303826846FFF764
:10546C0043FFE2789DF800309A4209D122799DF8E9
:10547C0001309A4204D162799DF802309A4201D0EF
:10548C000121CFE703B030BD10B50020FEF732FD8F
:10549C005120FEF785FB10F0010416D0144803F0E0
:1054AC00D9FD012218201146FEF7C6FB0120FEF79C
:1054BC0075FB002201211820FEF7BEFB0120FEF730
:1054CC0067FD00220B4B5A7510BD0B4803F0C2FD53
:1054DC00012211201146FEF7AFFB0120FEF75EFB07
:1054EC00224601211120FEF7A7FB2046E7E700BF6B
:1054FC00FCBA0008A40500201CBB000808B598B134
:10550C00C02253201146FEF797FB20225220114651
:10551C00FEF792FB00220E215320FEF78DFBBDE817
:10552C000840034803F096BDBDE80840FEF7CEBB2B
:10553C003CBB000838B50C4699B1C022532011462B
:10554C00FEF77AFB202252201146FEF775FB002253
:10555C000E215320FEF770FB2048BDE8384003F0C5
:10556C0079BD05780A2D37D10A4653200121FEF763
:10557C0063FB22460E215320FEF75EFBFFF700F97A
:10558C00012806D1BDE83840202252201146FEF7F2
:10559C0053BB802264201146FEF74EFB224680212D
:1055AC006420FEF749FB2846FEF7F8FA0E2253203A
:1055BC001146FEF741FB22460E215320FEF73CFB21
:1055CC00C02253201146FEF737FB4022C021532046
:1055DC00FEF732FB0248C0E738BD00BF74BB0008C1
:1055EC00ACBB000808B518B1BDE80840FEF794BB89
:1055FC000F2253201146FEF71FFBBDE8084001485F
:10560C0003F028BDE6BB000810B5837D5A1C152B92
:10561C0082750DD990F84530012B09D00024847582
:10562C00044803F017FD2046BDE81040FFF7E8BD25
:10563C0010BD00BF27BC000808B5C37D5A1C152B34
:10564C00C2750DD990F84F30012B09D00023C375CA
:10565C00044803F0FFFCBDE808400120FFF7D0BD73
:10566C0008BD00BF4BBC000810B5037E5A1C152B9F
:10567C00027614D990F84530012B10D00024047612
:10568C00074803F0E7FC2020FEF78AFA28B93F21EF
:10569C00BDE810402020FEF7A1BA2146F8E710BD66
:1056AC006FBC000810B5437E5A1C152B427614D9DA
:1056BC0090F84F30012B10D000244476074803F0AB
:1056CC00C9FC3820FEF76CFA28B93F21BDE8104020
:1056DC003820FEF783BA2146F8E710BD96BC0008C7
:1056EC0038B5044651200D46FEF75AFA00F0010079
:1056FC00A8422DD1FFF761F8054688B123780A2B13
:10570C0003D101212046FFF716FE94F8AB30114867
:10571C0043F0200384F8AB30BDE8384003F09ABC6A
:10572C0001462046FFF707FE94F8AB3065F3C7132C
:10573C0084F8AB3023780A2B02D12046FFF7A8FC63
:10574C0094F8AB30044823F0200384F8AB30E3E743
:10575C0038BD00BFBDBC0008DCBC000803681BB131
:10576C006422B3FBF2F303604BF637630068984294
:10577C0045F61C738BBFA0F53E40C0F53E40383853
:10578C00383098428CBF00200120704738B500217A
:10579C000F20FEF723FA05217320FEF71FFA0121D3
:1057AC000F20FEF71BFA12215720FEF717FA0221E1
:1057BC005720FEF713FA01215620FEF70FFA0021AD
:1057CC005020FEF70BFA00215120FEF707FA0421B6
:1057DC005320FEF703FA6120FEF7E2F9054661203B
:1057EC00FEF7DEF904466120FEF7DAF9022D28D126
:1057FC00022C2DD102282BD101215020FEF7EEF9DD
:10580C0060215120FEF7EAF904215320FEF7E6F956
:10581C006120FEF7C5F904466120FEF7C1F9054683
:10582C006120FEF7BDF945EA002544EA0524002174
:10583C000F20FEF7D3F900217320FEF7CFF9204695
:10584C0038BD2CB90540EDB2FF2DF0D10321D4E7C2
:10585C000024ECE737B5FFF799FF014601901E488D
:10586C0003F090FB01A8FFF779FF80BB4BF6386182
:10587C001A48019103F086FB4FF47A74019D184885
:10588C00B5FBF4F4214603F07DFB42F21073B5FB3B
:10589C00F3F3DBB2581CB4FBF3F1B4FBF0F20A39AE
:1058AC00C2F10A02914288BFC3B2B4FBF3F10D48B6
:1058BC0003F068FB4FF47A61B5FBF1F10A4B0B482E
:1058CC00AA081A6003B0BDE8304003F05BBB08487F
:1058DC0003F0C0FBD0E700BFFABC00080FBD000806
:1058EC0045BD000855BD0008A005002063BD00089B
:1058FC002CBD000810B504465120FEF751F900F0FC
:10590C000100031B5842584110BD000038B50D462C
:10591C00FFF7F0FFD8B10E4C55B10120FFF7EEFDAB
:10592C00012384F867300B48BDE8384003F092BB84
:10593C0023780A2B08D194F86730012B04D1FEF799
:10594C00C5F9054803F086FB002384F8673038BDA1
:10595C00A405002071BD0008A2BD000810B50446C6
:10596C0001700A464179104803F00CFB2378462B52
:10597C0017D008D81E2B0DD03C2B10D000216079ED
:10598C00FFF7C4FF01E0502BF8D100232371A37063
:10599C00E37010BD00212046FEF75EF9F5E701210A
:1059AC00F9E70221F7E700BFD2BD00082DE9F74F58
:1059BC0004465120FEF7F4F8637900F0010B012B3B
:1059CC0040F092800B20FEF7EBF88246B720FEF7F2
:1059DC00E7F80646B820FEF7E3F800F0E009B92036
:1059EC00FEF7DEF80546BA20FEF7DAF80746BB20CC
:1059FC00FEF7D6F880463146B720FEF7EFF8494659
:105A0C00B820FEF7EBF82946B920FEF7E7F839463F
:105A1C00BA20FEF7E3F84146BB20FEF7DFF89520ED
:105A2C00FEF7BEF86179594507D11AF0800F01BF16
:105A3C00FF26E37863F07F03E3700090334622780F
:105A4C007F4803F09FFAFF2F7DD0FF2D7BD00023E2
:105A5C002371AEB149467B4803F094FA29467A4843
:105A6C0003F090FA3946794803F08CFA41467848AD
:105A7C0003F088FAA378E67801330136A370F6B206
:105A8C007206E67005D4FF2F00F0D780FF2D00F0D2
:105A9C00D48016F00C0F00F0D0800A265120A6708E
:105AAC00FEF77EF8637900F00105012B0CBF0B208B
:105ABC003046FEF775F86379AB4207D1030603D580
:105ACC0094F90330002B01DA8A23A3702046FEF7E9
